:100000000C94C7020C94E4020C94E4020C94E402F5
:100010000C94E4020C94E4020C94E4020C94E207C5
:100020000C94E4020C94E4020C94C40A0C94E402D0
:100030000C94E4020C9478060C94A7060C94E40249
:100040000C94E4020C94E4020C94E4020C94E40298
:100050000C94E402C904CB04D704CF042805280576
:100060002805280528052805280528052805280528
:100070002805F10328056404EF0367042004C6047F
:1000800028043804F1031C05280528052805400428
:100090002B052805280559045E043B0461048604E9
:1000A0003E042805A504C0042805280528052805C0
:1000B0002805280528056404280567042004C604CB
:1000C00028043804F1031C052805280528054004E8
:1000D0002B052805280559045E043B0461048604A9
:1000E0003E042805A504C004004080C0105090D0F4
:1000F0002060A0E03070B0F0044484C4145494D460
:100100002464A4E43474B4F4084888C8185898D80F
:100110002868A8E83878B8F80C4C8CCC1C5C9CDCBF
:100120002C6CACEC3C7CBCFC014181C1115191D1E7
:100130002161A1E13171B1F1054585C5155595D50F
:100140002565A5E53575B5F5094989C9195999D9BF
:100150002969A9E93979B9F90D4D8DCD1D5D9DDD6F
:100160002D6DADED3D7DBDFD024282C2125292D297
:100170002262A2E23272B2F2064686C6165696D6BF
:100180002666A6E63676B6F60A4A8ACA1A5A9ADA6F
:100190002A6AAAEA3A7ABAFA0E4E8ECE1E5E9EDE1F
:1001A0002E6EAEEE3E7EBEFE034383C3135393D347
:1001B0002363A3E33373B3F3074787C7175797D76F
:1001C0002767A7E73777B7F70B4B8BCB1B5B9BDB1F
:1001D0002B6BABEB3B7BBBFB0F4F8FCF1F5F9FDFCF
:1001E0002F6FAFEF3F7FBFFF76322E350A0053658A
:1001F0006C662D54657374204572726F723A2030AC
:100200006200496E697469616C697A65643A2000BC
:10021000203D3E204E6F20616E73776572206672BE
:100220006F6D20417564696F210A00203D3E204EAC
:100230006F20616E737765722066726F6D204D65F9
:100240006D6F7279210A00203D3E2043616E277454
:1002500020777269746520746F204D656D6F7279B7
:10026000210A00286429656C6574652C202867299B
:10027000657420616E696D732C2028732965742064
:10028000616E696D732C20287629657273696F6EB3
:100290000A00287429696D652C2028612975646914
:1002A0006F2C202863296F756E742C2028782943C1
:1002B0007573746F6D20636F756E740A00287929E9
:1002C00053657420666978656420616E696D617438
:1002D000696F6E20636F756E740A00532865296C10
:1002E0006620546573742C20286D296F64652C205A
:1002F000642875296D700A00506C61792053286E4E
:1003000029616B650A00416C6C204C454473204F99
:1003100066662F4F6E2028302F31290A0028322997
:100320003A205465737420416E696D2E20310A00A5
:100330002833293A20416C6C2053757266616365DD
:10034000204C454473206F6E0A0053797374656DB9
:100350002054696D653A2000204672616D657320F6
:1003600073746F7265640A0053656E642061206265
:100370007974652E2E2E2000207772697474656E54
:10038000210A00416E696D6174696F6E20636F753B
:100390006E74206E6F772038373035210A00536530
:1003A0006C662D546573743A203062004B696C6C36
:1003B000656420416E696D6174696F6E20436F756D
:1003C0006E746572210A00436F756C64206E6F74E1
:1003D0002061636365737320646576696365210AD0
:1003E00000417564696F20446174613A0A00436F8B
:1003F0006E74726F6C733A20572041205320442052
:100400005120452C207820746F20717569740A0082
:1004100052616E206F7574206F662048656170218F
:100420000A00416E696D6174696F6E2061626F725E
:10043000746564210A002869296E7465727275708A
:100440007420636F756E742C20287229616E646F3E
:100450006D2C2028712972657365740A0020496E1D
:100460007465727275707473206166746572203180
:100470003030306D7365630A00204672616D6573BC
:1004800020706572205365636F6E640A004D656D60
:100490006F72792064656C65746564210A00526529
:1004A00073657420696E203530306D732E2042796B
:1004B00065210A00456E746572206672616D652063
:1004C000746F2064756D703A2000466F726D6174B0
:1004D00074696E67206D656D6F72792E2E2E200007
:1004E000446F6E65210A002866296F726D61742061
:1004F0006D656D6F72790A0000000000004375623F
:1005000065206D6F646520656E7465726564210A8F
:1005100000417564696F206D6F646520656E746558
:10052000726564210A00E801EE01020210022B024A
:10053000470263029202BD02DB02F80206031D03BA
:1005400030034A0358036803780383039E03AC0314
:10055000C703E103EE031004220436045D047904AA
:100560008D049E04B404CA04E004E704F804F9040A
:10057000FA04FB04FC04FD041105537472696E67F0
:10058000206E6F7420666F756E64210A000011245E
:100590001FBECFE5D8E0DEBFCDBF11E0A0E6B0E0E2
:1005A000E8E6FFE402C005900D92A23EB107D9F73C
:1005B00012E0A2EEB1E001C01D92A93CB107E1F743
:1005C0000E9434050C94B2270C9400008FEF8ABB74
:1005D0008CEF81BB98E197BB84BB87B3866087BBF8
:1005E000B8980E94F30889E190E068E040E021E0DB
:1005F0000E94EA060E943C090E94BB0A789485E6A4
:1006000090E00E9492080895B09911C04091E401D1
:10061000242F30E08091A50090E00197281739073A
:1006200024F44F5F4093E40102C01092E4018091F2
:10063000E4010895CF93DF930E949D0AC1E00097E3
:1006400009F0C0E060E070E0CB0141E00E94D90910
:10065000009711F4C26002C00E943E2680E063E26F
:100660000E94A80B80E00E94B60B833211F0C46098
:1006700002C0CC2341F181E00E94C50B0E94C0075B
:10068000DC2F8C2F90E069E872E042E050E00E949D
:1006900032270E94C0078AE00E948007C0FF05C081
:1006A00083E00E94C50B0E94C007D1FF05C084E013
:1006B0000E94C50B0E94C007D2FF05C085E00E94C2
:1006C000C50B0E94C0078C2FDF91CF910895AF9288
:1006D000BF92CF92DF92EF92FF920F931F93CF932F
:1006E000DF9380E490E00E94A425C82FD92F2097A3
:1006F00031F488E10E94C50B0E94C0074EC0E82F6C
:10070000F92FCF01805C9F4F1192E817F907E1F7AD
:1007100000E010E191E0C92ED12CA895CE010E94F5
:1007200092080E94EF088823E1F30E941B275C01D6
:100730000E941B277C010E941B279C01C701B80156
:100740000E941925E62FF0E083E0EE0FFF1F8A9547
:10075000E1F7C501B8010E941925E60FF11DEC0F64
:10076000FD1FC901B8010E941925C60102C0880FEA
:10077000991F6A95E2F7BC018081862780830E94D9
:100780001C07882351F289E10E94C50B0E94C00713
:10079000CE010E943E260E942A07DF91CF911F9131
:1007A0000F91FF90EF90DF90CF90BF90AF900895A2
:1007B000CF92DF92EF92FF920F931F93CF93DF932D
:1007C00090E0C0978A34910508F042C1865D9F4F42
:1007D000FC01EE0FFF1F0590F491E02D099482E4D7
:1007E00038C186E00E94C50B0E94C00787E00E94C6
:1007F000C50B0E94C00788E00E94C50B0E94C0077D
:1008000089E00E94C50B0E94C0078AE00E94C50BC8
:100810000E94C0078AE10E94C50B0E94C00782E2C5
:100820000E94C50B0E94C0078BE00E94C50B0E946E
:10083000C0078CE00E94C50B0E94C0078DE0F7C086
:1008400080E090E00E94970B82E40E9480070CC039
:1008500080E20E94C50B0E94C0070E945B0B81E2F0
:100860000E94C50B0E94C00781E08093E301F3C0A2
:100870000E945B17F0C00E940C12F6CF80E0D7C038
:100880004091E401242F30E08091A50090E0019791
:100890002817390724F44F5F4093E40102C01092F7
:1008A000E4018091E401882311F089E2C0C088E26C
:1008B000BEC081E08093E2018EE1B9C00E9467036F
:1008C000CAC00E949017C7C00E945F17C4C00E9490
:1008D0007B0B69E872E04AE050E00E9432270E94F8
:1008E000C00780E690E00E94C0078091E30190E09D
:1008F00069E872E04AE050E00E9432270E94C00797
:1009000083E690E00E94C0078FE091C08FE10E94D3
:10091000C50B0E94C00701C0A8950E941C07882330
:10092000D9F30E942A07C82F0E9480078AE00E94FC
:1009300080078C2F805390E00E943A0BEC010E94BC
:100940004A18CE010E943E2686C080E10E94C50B57
:100950000E94C0070E941C078823E1F30E942A0717
:10096000C82F90E00E94970B8C2F90E069E872E00E
:100970004AE050E00E9432270E94C00781E157C040
:1009800081E092E20E94970B82E151C00E941A031B
:1009900062C080E001C08FEF0E94C70804C085E6F6
:1009A00090E00E94920881E08093E70154C080E0CB
:1009B0000E94C708DD2441E0E42EF12C29C01882F2
:1009C00000E010E0C701002E02C0880F991F0A94B2
:1009D000E2F72881282B288385E690E00E94920880
:1009E00005C0A8950E941C078823F1F40E94EF0817
:1009F0008823B9F30F5F1F4F0830110519F7CA9408
:100A00002196CC20E1F6D394FD2DF83008F0DD24BA
:100A1000CD2DD0E033E0CC0FDD1F3A95E1F7CB5977
:100A2000DF4F28E0C22ECBCF0E942A0789E10E9427
:100A3000C50B0E94C0070FC00E94870849E852E01A
:100A40002AE030E00E9453270E94C0078AE001C0DC
:100A500083E20E948007DF91CF911F910F91FF9059
:100A6000EF90DF90CF9008955F926F927F928F9278
:100A70009F92AF92BF92CF92DF92EF92FF920F932D
:100A80001F93CF93DF9314BE88E10FB6F89481BD16
:100A900011BC0FBE0E94E6022EE088E190E00FB686
:100AA000F894A89581BD0FBE21BD0E941A0390E065
:100AB00080FF03C021E02093E501867090700097CD
:100AC00019F081E08093E60180E00E94C50B0E944E
:100AD000C0070E9404030E94290B522E8091E60158
:100AE000882321F40E947B0B082F01C000E00E94A4
:100AF0007610682E8091E501882329F40E943A0C33
:100B00008F5F8093A500C0E010E0D0E077240894C8
:100B1000610871088091E201882309F4A895809109
:100B2000E301882349F01092E3018091E6018823D4
:100B300019F40E947B0B082F0E941C07882321F0C8
:100B40000E942A070E94D8030E94290B9924AA24F4
:100B5000BB24CC24DD247601F22FF519A1E02F1758
:100B600008F0A0E0232F2919E1E0321708F0E0E0B7
:100B7000322F3A1BA32F31E02A1708F030E0E32B85
:100B8000342F3A1921E0431708F020E0432F4E1B81
:100B9000E42F41E03E1708F040E0242B452F4B198D
:100BA00031E0541708F030E0542F521B21E0451774
:100BB00008F020E0322B462F4C1921E0641708F092
:100BC00020E0642F631B31E0461708F030E0232B50
:100BD000472F4D1931E0741708F030E0742F721B65
:100BE00021E0471708F020E0322B482F4E1921E072
:100BF000841708F020E0842F831B31E0481708F0A9
:100C000030E0232B9F19921771F4882361F4772326
:100C100051F4662341F4552331F4EE2321F4AA2341
:100C200011F4F63928F00E9404030E94290B522E79
:100C30008091E4018823F1F58091E701882309F090
:100C400069CF002329F18091E601882309F50E94EC
:100C5000EF08C81708F05ECF2D2F30E0802F90E00E
:100C600001972817390714F4DF5F01C0D0E08D2FFA
:100C700090E00E943A0B4C01009789F1FC01E05C86
:100C8000FF4FC0810E949208C4010E943E2642CFBD
:100C90000E94EF08C81708F03DCF812F90E086151D
:100CA000970514F41F5F01C010E0812F0E94F4111A
:100CB000C82F30CF8091E5018823B9F40E94EF0856
:100CC000882309F427CF0E949D0A009731F0609194
:100CD000E40161500E94720C1DCF1092E40185E680
:100CE00090E00E949208C8E115CF1092E40112CF63
:100CF0001F920F920FB60F9211248F939F93EF9331
:100D0000FF93E091EA01F091EB018CB1EE5FFD4FB2
:100D100080838091EA019091EB018F31910550F42D
:100D20008091EA019091EB0101969093EB01809301
:100D3000EA0104C01092EB011092EA01FF91EF91D9
:100D40009F918F910F900FBE0F901F9018951F923B
:100D50000F920FB60F9211242F933F938F939F936F
:100D6000EF93FF932091EC013091ED018091EE0122
:100D70009091EF0128173907F1F0E091EC01F09123
:100D8000ED01EE5DFD4F80818CB98091EC01909179
:100D9000ED018F31910550F48091EC019091ED01BE
:100DA00001969093ED018093EC0109C01092ED0142
:100DB0001092EC0104C081E08093A6005598FF9149
:100DC000EF919F918F913F912F910F900FBE0F90B8
:100DD0001F901895433060F5362F3550343040F56C
:100DE000322F3150323030F5442341F030B530628B
:100DF00030BD423019F430B5306130BD223019F4C5
:100E000020B5286020BD653061F0663011F0683093
:100E100029F420B5226020BD663019F020B5246089
:100E200020BD90BD89B98AB188698AB980E00895EA
:100E300081E0089581E008954091E8015091E90131
:100E40002091EA013091EB0181E04217530709F448
:100E500080E008952091E8013091E9018091EA0154
:100E60009091EB012817390729F1E091E801F09101
:100E7000E901EE5FFD4F8081E091E801F091E90129
:100E8000EE5FFD4F10822091E8013091E9012F3192
:100E9000310558F42091E8013091E9012F5F3F4F6F
:100EA0003093E9012093E80108951092E90110922E
:100EB000E801089580E008958091EE019091EF019E
:100EC0002091EC013091ED0101968217930791F08A
:100ED0008091EC019091ED01009779F42091EE0161
:100EE0003091EF0181E090E02F31310541F080E059
:100EF00090E0089581E090E0089580E090E008950A
:100F00002091EE013091EF014091EC015091ED0103
:100F10002F5F3F4F2417350799F32091EC01309153
:100F2000ED012115310539F42091EE013091EF01E9
:100F30002F31310529F3E091EE01F091EF01EE5DE3
:100F4000FD4F80838091EE019091EF018F319105EB
:100F500050F48091EE019091EF0101969093EF0192
:100F60008093EE0104C01092EF011092EE01809187
:100F7000A600813021F41092A600559A5D9A08953A
:100F8000CF93DF93C82FD92F02C00E948007899189
:100F90008823D9F7DF91CF9108951AB810BC10BCFF
:100FA00019B81092E9011092E8011092ED01109227
:100FB000EC011092EB011092EA011092EF011092F5
:100FC000EE0108951F920F920FB60F9211242F93E6
:100FD0003F934F935F936F938F939F93AF93BF9381
:100FE000EF93FF938091F3018091F001882321F02A
:100FF0001092F2011092F00112BA88B3877E88BB7A
:1010000080E090E021E030E045B3437045BB48B359
:10101000497F48BBE091F201F0E043E0EE0FFF1F93
:101020004A95E1F7E80FF91FEE5BFD4F40814BBB9E
:10103000823058F065B3A901082E02C0440F551F35
:101040000A94E2F7642B65BB0CC068B3AC014F5F38
:101050005F4FF90102C0EE0FFF1F4A95E2F76E2BBA
:1010600068BB01968830910579F62091F20181E004
:1010700090E0AC0102C0440F551F2A95E2F742BB35
:1010800028B33091F20102C0880F991F3A95E2F718
:1010900033E0880F991F3A95E1F78871277E822BFC
:1010A00088BB8091F201873030F48091F2018F5F2C
:1010B0008093F20107C01092F2018091F1018F5FDD
:1010C0008093F1011092F3018091F4019091F50168
:1010D000A091F601B091F7010196A11DB11D809379
:1010E000F4019093F501A093F601B093F701FF91FD
:1010F000EF91BF91AF919F918F916F915F914F91C0
:101100003F912F910F900FBE0F901F901895209137
:10111000F4013091F5014091F6015091F701B901C8
:10112000CA010895CF93DF936FB7F89421E020931D
:10113000F0011092F1011092F301482F592F87E02E
:1011400090E01DC0ED91F0E0E851FF4FE491E09593
:10115000E90173E0CC0FDD1F7A95E1F7C80FD91FC5
:10116000CE5BDD4FE8832F5F3F4F2830310551F7CD
:10117000485F5F4F01972FEF8F3F920721F0DA0111
:1011800020E030E0DFCF6FBFDF91CF9108959FB7B0
:10119000F89421E02093F0011092F1011092F301F4
:1011A00020E030E0809510C0FB01E40FF51FEE5BFE
:1011B000FD4F80834F5F5F4F48305105A9F72F5F88
:1011C0003F4F2830310549F040E050E0B901E3E0FD
:1011D000660F771FEA95E1F7E7CF9FBF08958091EB
:1011E000F101869508958EB589608EBD82EC92EAF4
:1011F0009BBD8ABD80E189BF80E00E94C7087894CA
:1012000080E090E061E01DC07FB7F894FA01E20F42
:10121000F31FEE5BFD4FA08110826093F0011092EE
:10122000F1011092F3017FBF7091F1017723E1F397
:101230002F5F3F4F2830310539F7019688309105EF
:1012400049F020E030E0AC01F3E0440F551FFA957F
:10125000E1F7DACFF8941092F4011092F5011092B0
:10126000F6011092F7011092F1011092F301089526
:1012700089B78F7E89BF089511B88CE080B9089531
:1012800094EA96BF06B607FEFDCF91B1987F9830DD
:1012900011F0903179F483B984E886BF06B607FE71
:1012A000FDCF91B1987F983139F081E0903429F4E5
:1012B00080E0089581E0089580E0089544EA34E8EC
:1012C00024E946BF06B607FEFDCF91B1987F98305E
:1012D00011F09031B1F783B936BF06B607FEFDCFE6
:1012E00091B1987F903211F0983529F426BF06B657
:1012F00004FCFDCFE6CF08950E944009089584E9DB
:1013000086BF06B604FCFDCF089583B984E886BF86
:1013100006B607FEFDCF91B1987F81E0983209F4BF
:1013200080E0089584EC86BF06B607FEFDCF83B14A
:10133000089584E886BF06B607FEFDCF83B1089501
:10134000DF92EF92FF920F931F93DF93CF930F9251
:10135000CDB7DEB77B018C0180E0E81680E0F806AF
:1013600081E0080780E0180718F490EAD92E02C03F
:1013700082EAD82E8D2D0E944009882381F40E9494
:1013800085098E2D0E9485098D2D81600E947C0922
:101390000E94990989830E947F09898101C080E0A8
:1013A0000F90CF91DF911F910F91FF90EF90DF9001
:1013B00008958F929F92AF92BF92CF92DF92EF9259
:1013C000FF920F931F93CF93DF934B015C0180E05B
:1013D000881680E0980681E0A80680E0B80618F438
:1013E00030EAE32E02C022EAE22E042F10E0C80108
:1013F0000E94A425EC016C01009731F488E10E9461
:10140000C50B0E94C0072BC08E2D0E944009882367
:1014100021F50E948509882D0E9485098E2D816005
:101420000E947C09BB24480108948108910807C0E8
:101430000E949209FE01EE0DFF1D8083B394EB2CF8
:10144000FF24E814F904A4F30E949909C00FD11FE6
:10145000219788830E947F0902C0CC24DD24C60125
:10146000DF91CF911F910F91FF90EF90DF90CF9080
:10147000BF90AF909F908F900895EF92FF920F933F
:101480001F93CF937B018C01C42F80E0E81680E08E
:10149000F80681E0080780E0180710F480EA01C030
:1014A00082EA0E944009882351F40E9485098E2D0A
:1014B0000E9485098C2F0E9485090E947F09CF9187
:1014C0001F910F91FF90EF900895CF92DF92EF92CE
:1014D000FF920F931F93CF93DF937B018C01D42E48
:1014E000C52FC22E80E0E81680E0F80681E00807EC
:1014F00080E0180710F480EA01C082EA0E944009E7
:10150000882391F40E9485098E2D0E9485098C2FD5
:10151000CD2DD82F03C089910E9485098C2F8D195C
:101520008C15C8F30E947F09DF91CF911F910F9115
:10153000FF90EF90DF90CF900895CF93DF9383E4F7
:101540000E944009882389F4C2E8D2E00E949209EF
:10155000899382E0C838D807C9F70E949909809317
:1015600088020E947F09269702C0C0E0D0E0CE0129
:10157000DF91CF91089583B78B6083BF8AEF8CBFD3
:1015800089B7826089BF08951F920F920FB60F929C
:1015900011242F933F934F935F936F937F938F9378
:1015A0009F93AF93EF93FF934091F9013091FA012C
:1015B0002091FB019091FC018091FD01F091FE01D1
:1015C000E091FF01A0910002642F6F5F51E064176A
:1015D00008F050E0530F41E0531708F040E0420F8D
:1015E00031E0421708F030E0390F21E0391708F0F8
:1015F00020E0280F91E0281708F090E09F0F81E08D
:101600009F1708F080E08E0F71E08E1708F070E0F1
:101610007A0F6093F9015093FA014093FB013093E4
:10162000FC012093FD019093FE018093FF017093D4
:101630000002FF91EF91AF919F918F917F916F91F8
:101640005F914F913F912F910F900FBE0F901F9080
:1016500018952091F9013091FA014091FB015091C8
:10166000FC016091FD017091FE018091FF0190915C
:1016700000020895BC0126E0660F771F2A95E1F766
:10168000680F791F605E7F4F80E090E041E40E9428
:10169000D9090895AB01BC0136E0660F771F3A9572
:1016A000E1F7680F791F605E7F4F80E090E021E4F2
:1016B0000E94650A0895EF92FF920F931F93EE2404
:1016C000FF248701C801B70140E00E943D0AA895A8
:1016D0000894E11CF11C011D111D80E0E81680E05A
:1016E000F80682E0080780E0180761F71F910F9164
:1016F000FF90EF900895CF9360E070E0CB010E94DF
:10170000A009C82F61E070E080E090E00E94A0098D
:101710002C2F30E0582F40E0242B352B87E0213E42
:10172000380710F020EE37E0C901CF910895CF932C
:10173000482FC92F60E070E0CB010E943D0A61E0B4
:1017400070E080E090E04C2F0E943D0ACF91089518
:10175000462F8E3150F490E002969C01B901882703
:1017600077FD8095982F0E943D0A08958E3158F498
:10177000682F70E06E5F7F4F882777FD8095982FE8
:101780000E94A009089580E008958A3248F4E82F65
:10179000F0E0EE0FFF1FEA5DFA4F2591349104C08F
:1017A000EAE7F5E02591349189E892E0B9010E94D9
:1017B0002B2789E892E0089580E490E00E94A42518
:1017C0009C01009731F488E10E94C50B0E94C0077C
:1017D000FFCFE82FF92FCF01805C9F4F1192E817C0
:1017E000F907E1F7C9010895A7E0B0E0FD01E41BA6
:1017F000F109AD01421B51099A0143E0220F331F49
:101800004A95E1F7E20FF31FE80FF91F81E090E03E
:1018100002C0880F991F6A95E2F72081282B208348
:101820000895A7E0B0E0FD01E41BF109AD01421B02
:1018300051099A0153E0220F331F5A95E1F7E20F45
:10184000F31FE80FF91F81E090E002C0880F991F95
:101850006A95E2F780959081982390830895282FC8
:10186000392FF90180E411928150E9F708950E941F
:101870003E26089585E00895982F662359F0E1EB00
:10188000F0E080E003C08F5F883039F021912917A4
:10189000D0F308956FE10E94F9240895282F392F7D
:1018A000F90127E080E090E03191830F911D2150F4
:1018B000D9F767E070E00E940525862F0895CF9341
:1018C000DF93D82FC92F0E944E0C823140F49E0125
:1018D000832F922FFC0187E011928150E9F7DF916D
:1018E000CF9108950F931F93DF93CF930F92CDB7AE
:1018F000DEB78C01653078F469830E945F0C6981E2
:10190000E62FF0E0EE0FFF1FE955FF4F0190F08149
:10191000E02DC80109950F90CF91DF911F910F9194
:1019200008955F926F927F928F929F92AF92BF9233
:10193000CF92DF92EF92FF920F931F93CF93DF939B
:10194000D82E5B01942E522E0D2D192FFF249FE0CF
:10195000692E712CF80181918F01652D0E943C0C3C
:10196000882EC0E0D0E0EE24C02ECD1814C0FF2099
:1019700051F4CE01B3010E941925462FC50160E044
:10198000292D0E94F40BC5016C2D4E2D292D0E948E
:10199000F40BE3942A96E81450F3F394FF2DF730F8
:1019A000C9F6DF91CF911F910F91FF90EF90DF90DB
:1019B000CF90BF90AF909F908F907F906F905F90EF
:1019C0000895EF92FF920F931F93DF93CF930F929F
:1019D000CDB7DEB78C010E94DC0B7C010E942F0C7E
:1019E00030E0C801B701432F20E039830E94910CF9
:1019F00039813F5F3830A9F7C7010E949208C701BB
:101A00000E94370C0F90CF91DF911F910F91FF90A3
:101A1000EF900895EF92FF920F931F93DF93CF9370
:101A20000F92CDB7DEB78C010E94DC0B7C010E94C7
:101A30002F0C30E0C801B701432F21E039830E9409
:101A4000910C39813F5F3830A9F7C7010E94920895
:101A5000C7010E94370C0F90CF91DF911F910F911A
:101A6000FF90EF900895EF92FF920F931F93CF9303
:101A7000DF93F82E062F142FE901EE2407C0CE01C4
:101A80006F2D4E2D202F0E94F40BE394E116B8F336
:101A9000DF91CF911F910F91FF90EF900895FF92EA
:101AA0000F931F93CF93DF938C010E94DC0BEC010B
:101AB0000E942F0CF80180812FE1F22E6F2D0E94E1
:101AC000F924482F80E060E09E010E94330DF80168
:101AD00080816F2D0E94F924482F80E061E09E01F3
:101AE0000E94330DF80180816F2D0E94F924482F48
:101AF00081E060E09E010E94330DF80181816F2D2D
:101B00000E94F924482F80E062E09E010E94330D7C
:101B1000F80181816F2D0E94F924482F80E063E055
:101B20009E010E94330DF80181816F2D0E94F924DE
:101B3000482F81E061E09E010E94330DF801818110
:101B40006F2D0E94F924482F81E062E09E010E94DF
:101B5000330DF80181816F2D0E94F924482F82E016
:101B600060E09E010E94330DF80181816F2D0E947B
:101B7000F924482F82E061E09E010E94330DF801B4
:101B800082816F2D0E94F924482F80E064E09E013D
:101B90000E94330DF80182816F2D0E94F924482F95
:101BA00080E065E09E010E94330DF80182816F2D77
:101BB0000E94F924482F81E063E09E010E94330DCA
:101BC000F80182816F2D0E94F924482F81E064E0A2
:101BD0009E010E94330DF80182816F2D0E94F9242D
:101BE000482F82E062E09E010E94330DF80182815D
:101BF0006F2D0E94F924482F82E063E09E010E942D
:101C0000330DF80182816F2D0E94F924482F83E063
:101C100060E09E010E94330DF80182816F2D0E94C9
:101C2000F924482F83E061E09E010E94330DF80102
:101C300082816F2D0E94F924482F83E062E09E018B
:101C40000E94330DF80182816F2D0E94F924482FE4
:101C500084E060E09E010E94330DF80182816F2DC7
:101C60000E94F924482F84E061E09E010E94330D18
:101C7000F80183816F2D0E94F924482F80E066E0EF
:101C80009E010E94330DF80183816F2D0E94F9247B
:101C9000482F80E067E09E010E94330DF8018381A8
:101CA0006F2D0E94F924482F81E065E09E010E947B
:101CB000330DF80183816F2D0E94F924482F81E0B4
:101CC00066E09E010E94330DF80183816F2D0E9412
:101CD000F924482F82E064E09E010E94330DF80150
:101CE00083816F2D0E94F924482F82E065E09E01D8
:101CF0000E94330DF80183816F2D0E94F924482F33
:101D000083E063E09E010E94330DF80183816F2D13
:101D10000E94F924482F83E064E09E010E94330D65
:101D2000F80183816F2D0E94F924482F84E062E03E
:101D30009E010E94330DF80183816F2D0E94F924CA
:101D4000482F84E063E09E010E94330DF8018381F7
:101D50006F2D0E94F924482F85E060E09E010E94CB
:101D6000330DF80183816F2D0E94F924482F85E0FF
:101D700061E09E010E94330DF80183816F2D0E9466
:101D8000F924482F85E062E09E010E94330DF8019E
:101D900083816F2D0E94F924482F86E060E09E0128
:101DA0000E94330DF80183816F2D0E94F924482F82
:101DB00086E061E09E010E94330DF80184816F2D61
:101DC0000E94F924482F81E067E09E010E94330DB4
:101DD000F80184816F2D0E94F924482F82E066E08B
:101DE0009E010E94330DF80184816F2D0E94F92419
:101DF000482F82E067E09E010E94330DF801848144
:101E00006F2D0E94F924482F83E065E09E010E9417
:101E1000330DF80184816F2D0E94F924482F83E04F
:101E200066E09E010E94330DF80184816F2D0E94AF
:101E3000F924482F84E064E09E010E94330DF801EC
:101E400084816F2D0E94F924482F84E065E09E0173
:101E50000E94330DF80184816F2D0E94F924482FD0
:101E600085E063E09E010E94330DF80184816F2DAF
:101E70000E94F924482F85E064E09E010E94330D02
:101E8000F80184816F2D0E94F924482F86E062E0DA
:101E90009E010E94330DF80184816F2D0E94F92468
:101EA000482F86E063E09E010E94330DF801848193
:101EB0006F2D0E94F924482F87E060E09E010E9468
:101EC000330DF80184816F2D0E94F924482F87E09B
:101ED00061E09E010E94330DF80185816F2D0E9403
:101EE000F924482F83E067E09E010E94330DF8013A
:101EF00085816F2D0E94F924482F84E066E09E01C1
:101F00000E94330DF80185816F2D0E94F924482F1E
:101F100084E067E09E010E94330DF80185816F2DFA
:101F20000E94F924482F85E065E09E010E94330D50
:101F3000F80185816F2D0E94F924482F85E066E025
:101F40009E010E94330DF80185816F2D0E94F924B6
:101F5000482F86E064E09E010E94330DF8018581E0
:101F60006F2D0E94F924482F86E065E09E010E94B3
:101F7000330DF80185816F2D0E94F924482F87E0E9
:101F800062E09E010E94330DF80185816F2D0E9451
:101F9000F924482F87E063E09E010E94330DF80189
:101FA00085816F2D0E94F924482F87E064E09E010F
:101FB0000E94330DF80186816F2D0E94F924482F6D
:101FC00085E067E09E010E94330DF80186816F2D48
:101FD0000E94F924482F86E066E09E010E94330D9E
:101FE000F80186816F2D0E94F924482F86E067E072
:101FF0009E010E94330DF80186816F2D0E94F92405
:10200000482F87E065E09E010E94330DF80186812C
:102010006F2D0E94F924482F87E066E09E010E9400
:10202000330DF80186816F2D0E94F924482F87E037
:1020300067E09E010E94330DCE010E949208CE01FE
:102040000E94370CDF91CF911F910F91FF9008955F
:102050000F931F93CF93DF938C010E94DC0BEC0155
:102060000E942F0CC8010E944E0C60E00E943C0CA4
:10207000482F80E060E09E010E94330DC801BE0140
:1020800047E020E00E94910CCE010E949208CE0110
:102090000E94370CDF91CF911F910F9108950F93FC
:1020A0001F93CF93DF938C010E94DC0BEC010E9405
:1020B0002F0CC8010E944E0C61E00E943C0C482F7E
:1020C00080E060E09E010E94330DC801BE0147E040
:1020D00021E00E94910CCE010E949208CE010E9444
:1020E000370CDF91CF911F910F91089580E10895F2
:1020F0008F929F92AF92BF92CF92DF92EF92FF9218
:102100000F931F93DF93CF9300D0CDB7DEB7882E08
:102110000E94DC0B7C01B82CBB0C99240894811C18
:10212000911C880C991C00E010E0CB2CDD24C7FC2E
:10213000D09424C0C701632F4A2D252F3A83598399
:102140000E94F40B59815F5F3A81583099F73F5FE5
:10215000383021F405C030E0AB2CA00E50E0EACFBF
:10216000C7010E94920801C0A8950E94EF08882329
:10217000D9F3C7010E942F0C0F5F1F4FC8018C0DB0
:102180009D1D881599053CF3C7010E943E260F90BE
:102190000F90CF91DF911F910F91FF90EF90DF9003
:1021A000CF90BF90AF909F908F9008958F929F9205
:1021B000BF92CF92DF92EF92FF920F931F93DF9324
:1021C000CF9300D0CDB7DEB7E82E0E94DC0B8C0198
:1021D000BE2CB194BB0C23E0822E912C8E1891085A
:1021E000880C991C87E0B80EEE24FF24CB2CDD244C
:1021F000C7FCD09424C0C801632F4B2D252F3A83F0
:1022000059830E94F40B59815F5F3A81583099F7E6
:102210003F5F383011F403C030E050E0ECCFC8012C
:102220000E94920801C0A8950E94EF088823D9F364
:10223000C8010E942F0CBA940894E11CF11CC6013D
:102240008E199F09881599053CF7C8010E943E2602
:102250000F900F90CF91DF911F910F91FF90EF9012
:10226000DF90CF90BF909F908F9008958F929F9214
:10227000AF92BF92CF92DF92EF92FF920F931F9394
:10228000DF93CF9300D0CDB7DEB7882E0E94DC0B52
:102290007C01B82CBB0C99240894811C911C880CDF
:1022A000991C00E010E0CB2CDD24C7FCD09424C0A6
:1022B000C701652F432F2A2D3A8359830E94F40BBF
:1022C00059815F5F3A81583099F73F5F383021F488
:1022D00005C030E0AB2CA00E50E0EACFC7010E9451
:1022E000920801C0A8950E94EF088823D9F3C7017E
:1022F0000E942F0C0F5F1F4FC8018C0D9D1D88156C
:1023000099053CF3C7010E943E260F900F90CF9194
:10231000DF911F910F91FF90EF90DF90CF90BF90D2
:10232000AF909F908F9008958F929F92BF92CF927F
:10233000DF92EF92FF920F931F93DF93CF9300D022
:10234000CDB7DEB7E82E0E94DC0B8C01BE2CB19419
:10235000BB0C53E0852E912C8E189108880C991C8B
:1023600087E0B80EEE24FF24CB2CDD24C7FCD094EC
:1023700024C0C801632F452F2B2D3A8359830E9417
:10238000F40B59815F5F3A81583099F73F5F3830DD
:1023900011F403C030E050E0ECCFC8010E94920875
:1023A00001C0A8950E94EF088823D9F3C8010E94B4
:1023B0002F0CBA940894E11CF11CC6018E199F09D8
:1023C000881599053CF7C8010E943E260F900F9092
:1023D000CF91DF911F910F91FF90EF90DF90CF9001
:1023E000BF909F908F9008958031A0F4843018F4AE
:1023F0000E9436110FC0883020F484500E9494113E
:1024000009C08C3020F488500E94781003C08C5092
:102410000E94D61081E008952F923F924F925F92D2
:102420006F927F928F929F92AF92BF92CF92DF92E4
:10243000EF92FF920F931F93DF93CF93CDB7DEB749
:102440006C970FB6F894DEBF0FBECDBF81E490E06D
:102450000E94A425888B998B8B839C830E94290BD7
:10246000B22EC32ED42E152F062FF72EE82E392E7E
:1024700082E40E94800774C00E94290BA22FAB192E
:10248000F1E02A1708F0F0E0232F2C19E1E03217D1
:1024900008F0E0E0322F3F1BF32F31E02F1708F058
:1024A00030E0E32B342F3D1921E0431708F020E002
:1024B000432F4E1BE42F41E03E1708F040E0242B51
:1024C000452F411B31E0541708F030E0542F521BC8
:1024D00021E0451708F020E0322B462F401B21E079
:1024E000641708F020E0642F631B31E0461708F002
:1024F00030E0232B472F4F1931E0741708F030E0FC
:10250000742F721B21E0471708F020E0322B482F70
:102510004E1921E0841708F020E0842F831B31E05E
:10252000481708F030E0232B9319921709F099C44B
:10253000882309F096C4772309F093C4662309F031
:1025400090C4552309F08DC4EE2309F08AC4F230FB
:1025500008F087C4F13019F4A53F08F082C4A895AB
:102560000E941C07882309F487CF0E942A078A8BC0
:1025700082E40E94800784EF282EAA24A394552485
:10258000662477248824992444241F821E821E8670
:102590008B819C81805C9F4F9F8B8E8B2D82BB8615
:1025A000CC86DD86212EB02ECF2CDE2C37C20E94A9
:1025B000290B122FAB851A1BF1E0211708F0F0E070
:1025C000E32FBC85EB1B21E03E1708F020E03E2FF7
:1025D0003F1BF1E0E31708F0F0E02F2BA42FED856F
:1025E000AE1BF1E04A1708F0F0E04A2F421B21E051
:1025F000A41708F020E0F22BA52FA21921E05A170A
:1026000008F020E05A2F5F1BF1E0A51708F0F0E07A
:102610002F2BA62FAB19F1E06A1708F0F0E06A2F14
:10262000621B21E0A61708F020E0F22B272F2C19BF
:10263000A1E0721708F0A0E0722F7F1BF1E02717CE
:1026400008F0F0E0AF2BF82FFD1921E08F1708F00C
:1026500020E08F2F8A1BA1E0F81708F0A0E02A2BBA
:102660009319921B491608F4FCC3941511F598169A
:1026700008F4F7C38915E9F4871608F4F2C378154E
:10268000C1F4761608F4EDC3671599F4651608F4DD
:10269000E8C3561571F4541608F4E3C3451549F41C
:1026A000A31608F4DEC33A1521F4FD81F11708F4EE
:1026B000D8C3A8950E941C07882309F478CF0E94EC
:1026C0002A078B8B82E40E9480072E813F813A8308
:1026D00029834F864B2CBC2CCD2C8EC13D813C5088
:1026E0003A8751E04D81341708F050E08A2D8F5F12
:1026F00091E08A1508F090E0580F41E0581708F073
:1027000040E0492B450D11E0451508F010E0160D8D
:1027100001E0161508F000E0070D81E0071508F04C
:1027200080E0F82EF80C81E0F81408F080E0E82E44
:10273000E90C81E0E91408F080E0DF84D80E8A8596
:102740008D83A52E542E612E702E8F2C9E2CDF860D
:10275000588F4C8B87C00E94290BA22FBB85AB1BC7
:10276000A887F1E02A1708F0F0E0E32F2C85E21BA0
:1027700021E03E1708F020E03E2F3F1BF1E0E31779
:1027800008F0F0E02F2BA42FBD85AB1BF1E04A171A
:1027900008F0F0E04A2F421B21E0A41708F020E0E7
:1027A000F22BA52FA21921E05A1708F020E05A2F8A
:1027B0005F1BF1E0A51708F0F0E02F2BA62FA4195E
:1027C000F1E06A1708F0F0E06A2F621B21E0A6171B
:1027D00008F020E0F22B272F2B19A1E0721708F048
:1027E000A0E0722F7F1BF1E0271708F0F0E0AF2B7D
:1027F000F82FFC1921E08F1708F020E08F2F8A1B9B
:10280000A1E0F81708F0A0E02A2B9319921BD91623
:1028100008F427C39D1529F5E81608F422C38E1580
:1028200001F5F71608F41DC37F15D9F4061708F44F
:1028300018C36017B1F4151708F413C3511789F4BE
:10284000EC89E41708F40DC34E1759F4F88DF3170B
:1028500008F407C33F1729F428853A85321708F48E
:1028600000C3A8950E941C07882309F474CF588DD3
:102870004C894C8F5A8F0E942A07AE89BF898C934E
:1028800082E40E94800738892989832F922F9987B3
:102890008887805C9F4F9D8B8C8B5A8D5B8F4C8D76
:1028A000498F8AC00E94290BE22FBB85EB1BF1E008
:1028B0002E1708F0F0E0232FAC852A1BB1E0B88F6B
:1028C000321708F0188E322F3F1BF32F31E02F17ED
:1028D00008F030E0A88DA32BA88F342FBD853B1BBB
:1028E00021E0431708F020E0432FA88D4A1BA1E008
:1028F000341708F0A0E02A2BA52FA21931E05A17AF
:1029000008F030E05A2F521B21E0A51708F020E014
:10291000322BA62FA41921E06A1708F020E06A2FB5
:10292000631B31E0A61708F030E0232BA72FAB196B
:1029300031E07A1708F030E07A2F721B21E0A717F8
:1029400008F020E0322BA82FAC1921E08A1708F0FC
:1029500020E08A2F831B31E0A81708F030E0232BFA
:102960009319921BD91608F47CC29D1521F5E8161F
:1029700008F477C28E15F9F4F71608F472C27F15C1
:10298000D1F4061708F46DC26017A9F4151708F4FE
:1029900068C2511781F4B98DB41708F462C24B179D
:1029A00051F42B8D2F1708F45CC2F21721F43A85ED
:1029B0003E1708F456C2A8950E941C07882309F404
:1029C00071CF0E942A07A885B9858D93B987A887FA
:1029D000EC89FD89AE17BF0779F782E40E94800772
:1029E00009811A810F5F1F4F89819A816B817C81D8
:1029F0000E944A0B1A8309838981FE818F1B2B89D0
:102A0000821708F46BCEDC2CCB2CB42C4F843E8583
:102A10003F5F3E8789819A819F838E839E85AA89A5
:102A20009A1708F447CE122D2D800B2DBB84FC2C59
:102A3000CC84ED2CDD848B819C810E943E2680C05D
:102A40000E94290BE22FEB19F1E02E1708F0F0E0BD
:102A5000232F2C19A1E0321708F0A0E0B22FBF1BE2
:102A6000FB2F31E02B1708F030E0A32B342F3D195A
:102A700021E0431708F020E0432F4A1BA1E0341760
:102A800008F0A0E02A2BA52FA11B31E05A1708F06F
:102A900030E05A2F521B21E0A51708F020E0322B1E
:102AA000A62FA01B21E06A1708F020E06A2F631B05
:102AB00031E0A61708F030E0232BA72FAF1931E043
:102AC0007A1708F030E07A2F721B21E0A71708F080
:102AD00020E0322BA82FAE1921E08A1708F020E061
:102AE0008A2F831B31E0A81708F030E0232B9319BD
:102AF000921B491608F4B5C1941509F5981608F407
:102B0000B0C18915E1F4871608F4ABC17815B9F4A2
:102B1000761608F4A6C1671591F4651608F4A1C1EC
:102B2000561569F4541608F49CC1451541F4AF16C6
:102B300008F497C1FA1519F42E1608F492C1A89555
:102B40000E941C07882309F47BCF0E942A0780C0BB
:102B50000E94290BE22FEB19F1E02E1708F0F0E0AC
:102B6000232F2C19A1E0321708F0A0E0322F3F1BD1
:102B7000F32F31E02F1708F030E0A32B342F3D194D
:102B800021E0431708F020E0432F4A1BA1E034174F
:102B900008F0A0E02A2BA52FA11B31E05A1708F05E
:102BA00030E05A2F521B21E0A51708F020E0322B0D
:102BB000A62FA01B21E06A1708F020E06A2F631BF4
:102BC00031E0A61708F030E0232BA72FAF1931E032
:102BD0007A1708F030E07A2F721B21E0A71708F06F
:102BE00020E0322BA82FAE1921E08A1708F020E050
:102BF0008A2F831B31E0A81708F030E0232B9319AC
:102C0000921B491608F42DC1941509F5981608F47D
:102C100028C18915E1F4871608F423C17815B9F4A1
:102C2000761608F41EC1671591F4651608F419C1EB
:102C3000561569F4541608F414C1451541F4AF163D
:102C400008F40FC1FA1519F42E1608F40AC1A89554
:102C50000E941C07882309F47BCF0E942A0780C0AA
:102C60000E94290BE22FEB19F1E02E1708F0F0E09B
:102C7000232F2C19A1E0321708F0A0E0B22FBF1BC0
:102C8000FB2F31E02B1708F030E0A32B342F3D1938
:102C900021E0431708F020E0432F4A1BA1E034173E
:102CA00008F0A0E02A2BA52FA11B31E05A1708F04D
:102CB00030E05A2F521B21E0A51708F020E0322BFC
:102CC000A62FA01B21E06A1708F020E06A2F631BE3
:102CD00031E0A61708F030E0232BA72FAF1931E021
:102CE0007A1708F030E07A2F721B21E0A71708F05E
:102CF00020E0322BA82FAE1921E08A1708F020E03F
:102D00008A2F831B31E0A81708F030E0232B93199A
:102D1000921B491608F4A5C0941509F5981608F4F5
:102D2000A0C08915E1F4871608F49BC07815B9F4A2
:102D3000761608F496C0671591F4651608F491C0EC
:102D4000561569F4541608F48CC0451541F4AF16B5
:102D500008F487C0FA1519F42E1608F482C0A89555
:102D60000E941C07882309F47BCF0E942A077CC09D
:102D70000E94290BE22FEB19F1E02E1708F0F0E08A
:102D8000232F2C19A1E0321708F0A0E0322F3F1BAF
:102D9000F32F31E02F1708F030E0A32B342F3D192B
:102DA00021E0431708F020E0432F4A1BA1E034172D
:102DB00008F0A0E02A2BA52FA11B31E05A1708F03C
:102DC00030E05A2F521B21E0A51708F020E0322BEB
:102DD000A62FA01B21E06A1708F020E06A2F631BD2
:102DE00031E0A61708F030E0232BA72FAF1931E010
:102DF0007A1708F030E07A2F721B21E0A71708F04D
:102E000020E0322BA82FAE1921E08A1708F020E02D
:102E10008A2F831B31E0A81708F030E0232B931989
:102E2000921B4916F0F09415D1F49816D0F089153C
:102E3000B1F48716B0F0781591F4761690F0671516
:102E400071F4651670F0561551F4541650F045158E
:102E500031F4AF1630F0FA1511F42E1610F0A895D3
:102E600003C080E090E00CC00E941C07882309F496
:102E70007FCF0E942A0782E40E9480078E819F8173
:102E80000E94970B6C960FB6F894DEBF0FBECDBFB5
:102E9000CF91DF911F910F91FF90EF90DF90CF9036
:102EA000BF90AF909F908F907F906F905F904F906A
:102EB0003F902F90089583E20E94800708951F930A
:102EC000CF93DF930E949D0AEC01009731F485E1D6
:102ED0000E94C50B0E94C0071FC086E10E94C50B5F
:102EE0000E94C00710E3812F0E94800789EB90E0C9
:102EF0000E94C007899190E069E872E04AE050E0E2
:102F00000E94322789E892E00E94C0078AE00E946E
:102F100080071F5F173339F7DF91CF911F91089515
:102F2000AF92BF92CF92DF92EF92FF920F931F93D7
:102F30008EE00E94C50B0E94C0070E94290BB901B8
:102F4000CA0149E852E02AE030E00E9453270E947B
:102F5000C0078CEB90E00E94C0070E94290B9923C8
:102F600081F4882371F4772361F4662351F45523A7
:102F700041F4442331F43B3E20F43A3E09F5213636
:102F8000F8F08FEB90E00E94C0070E94290BB0E69A
:102F9000AB2EAAEEBA2ECC24DD24EE24FF2400E0D2
:102FA00010E00E94A518C90169E872E04AE050E00B
:102FB0000E9432270E94C00782EC90E00E94C00766
:102FC0000E94290B992391F4882381F4772371F4CB
:102FD000662361F4552351F4442341F4343030F432
:102FE000333009F04BC0293E08F448C08FEB90E025
:102FF0000E94C0070E94290BF8EEAF2EE3E0BE2E20
:10300000CC24DD24EE24FF2400E010E00E94A5186B
:10301000C90169E872E04AE050E00E9432270E944C
:10302000C0070E94290B0E94D91EC90169E872E0FD
:103030004AE050E00E94322780918902882319F0EB
:103040008EE20E94800780918B02882319F480E32E
:103050000E94800780918A02882319F480E30E94ED
:10306000800780918902882321F089E892E00E94FC
:10307000C00788EC90E00E94C00703C08AE00E946D
:1030800080071F910F91FF90EF90DF90CF90BF903E
:10309000AF900895AF92BF92DF92EF92FF920F939D
:1030A0001F93DF93CF930F92CDB7DEB77C015C0106
:1030B00010E3D12E8D2D0E94800789EB90E00E94B5
:1030C000C007850120E0F80181918F0190E069E857
:1030D00072E040E150E029830E94322789E892E0C3
:1030E0000E94C00780E20E94800729812F5F28305C
:1030F00051F78AE00E948007D39488E090E0A80E00
:10310000B91E9D2D9833B1F68CEC90E00E94C0075B
:10311000F701E05CFF4F808190E069E872E04AE0EF
:1031200050E00E94322789E892E00E94C0078AE0BE
:103130000E9480070F90CF91DF911F910F91FF9018
:10314000EF90DF90BF90AF900895A8E3B0E0EBEA76
:10315000F8E10C946D2529833A834B835C836D835E
:103160007E838F839887A986BA86CB86DC86ED8698
:10317000FE860F87188BE984FA840B851C852D85C4
:103180003E854F85588929803A804B805C802DA2EE
:103190003EA24FA258A6AD80BE80CF80D884211514
:1031A00031054105510509F0A6C3AE14BF04C006A0
:1031B000D10608F03FC120E0E21620E0F20621E04F
:1031C000020720E0120758F43FEFE316F10401056F
:1031D000110509F090F420E030E0A90117C040E0AB
:1031E000E41640E0F40640E0040741E0140750F420
:1031F00020E130E040E050E009C028E030E040E06D
:1032000050E004C028E130E040E050E0D801C701C0
:10321000022E04C0B695A795979587950A94D2F784
:1032200089529F4FDC016C9180E290E0A0E0B0E019
:10323000821B930BA40BB50B861B9109A109B10945
:103240000097A105B105A1F1082E04C0EE0CFF1CEA
:10325000001F111F0A94D2F7A6019501082E04C081
:10326000220F331F441F551F0A94D2F760E270E00B
:10327000681B790BADA0BEA0CFA0D8A404C0D69483
:10328000C794B794A7946A95D2F7A22AB32AC42AFE
:10329000D52A2DA03EA04FA058A404C0220C331C58
:1032A000441C551C8A95D2F72DA23EA24FA258A6C7
:1032B000380188249924A801970140705070298F03
:1032C0003A8F4B8F5C8FC601B501A40193010E9418
:1032D0004B25222E532E442E352E6D8F7E8F8F8FB1
:1032E00098A3C601B501A40193010E944B25822D2C
:1032F000952DA42DB32D1C012D01C201B101298DE5
:103300003A8D4B8D5C8D0E942C255B016C014D8D9F
:103310005E8D6F8D78A1DA01992788274DA15EA176
:103320006FA178A59B0144275527822B932BA42BB3
:10333000B52B8A159B05AC05BD05E0F40894210862
:103340003108410851088E0D9F1DA01FB11F8E1519
:103350009F05A007B10770F08A159B05AC05BD0558
:1033600048F4089421083108410851088E0D9F1D2A
:10337000A01FB11F9C01AD012A193B094C095D0931
:1033800059016A01CA01B901A40193010E944B25A8
:1033900029A739A349AB5DA76D8F7E8F8F8F98A327
:1033A000C601B501A40193010E944B25A9A4B9A0AF
:1033B000C9A8DDA4C601B501298D3A8D4B8D5C8D60
:1033C0000E942C253B014C016D8D7E8D8F8D98A127
:1033D000AB01332722278DA19EA1AFA1B8A5A07074
:1033E000B070282B392B4A2B5B2B26153705480547
:1033F0005905C0F40894A108B108C108D1082E0DE0
:103400003F1D401F511F2E153F054007510750F02B
:10341000261537054805590528F40894A108B10870
:10342000C108D1088101FF24EE24EA28FB280C29D9
:103430001D29A1C4E114F1040105110559F461E04D
:1034400070E080E090E0A80197010E944B2579018F
:103450008A0110C070E0E71670E0F70671E0070718
:1034600070E0170758F48FEFE816F1040105110515
:1034700009F090F420E030E0A90117C090E0E916CF
:1034800090E0F90690E0090791E0190750F420E177
:1034900030E040E050E009C028E030E040E050E09B
:1034A00004C028E130E040E050E0D801C701022E1E
:1034B00004C0B695A795979587950A94D2F7895237
:1034C0009F4FDC018C91280F311D411D511D80E261
:1034D00090E0A0E0B0E0821B930BA40BB50B61F46D
:1034E000150126012E183F08400A510A81E0A82E36
:1034F000B12CC12CD12C23C1082E04C0EE0CFF1C12
:10350000001F111F0A94D2F715012601022E04C0D4
:1035100056944794379427940A94D2F7350146017C
:10352000082E04C0660C771C881C991C0A94D2F7DC
:103530006D8E7E8E8F8E98A28DA09EA0AFA0B8A417
:1035400004C0B694A794979487942A95D2F7A501BE
:103550009401AD8CBE8CCF8CD8A0A22AB32AC42AE9
:10356000D52AAD8EBE8ECF8ED8A22DA13EA14FA161
:1035700058A504C0220F331F441F551F8A95D2F748
:103580002DA33EA34FA358A7380188249924B8013E
:10359000A7016070707049A75AA76BA77CA7C201EA
:1035A000B101A40193010E944B25298F39AB4DA78E
:1035B0005DAB69A37AA38BA39CA3C201B101A40153
:1035C00093010E944B25A98CB9A8CDA4DDA8A98E92
:1035D000BA8ECB8EDC8EC601B50129A53AA54BA5C6
:1035E0005CA50E942C255B016C0129A03AA04BA090
:1035F0005CA0D101992788272D8C3E8C4F8C58A038
:10360000920144275527822B932BA42BB52B8A1587
:103610009B05AC05BD0530F5298D3A8D4B8D5C8D34
:103620002150304040405040298F3A8F4B8F5C8F63
:103630008E0D9F1DA01FB11F8E159F05A007B107FE
:1036400088F08A159B05AC05BD0560F4215030401B
:1036500040405040298F3A8F4B8F5C8F8E0D9F1DBD
:10366000A01FB11FAC01BD014A195B096C097D099E
:103670005A016B01CB01BA01A40193010E944B25B1
:10368000522E432E342E252E69A37AA38BA39CA3FE
:10369000C601B501A40193010E944B25652C742C31
:1036A000832C922CC401B30129A53AA54BA55CA596
:1036B0000E942C259B01AC0169A17AA18BA19CA140
:1036C0006B01BB24AA248D8D9E8DAF8DB8A1A070F7
:1036D000B070A82AB92ACA2ADB2AA216B306C406E1
:1036E000D506E0F408946108710881089108AE0CD1
:1036F000BF1CC01ED11EAE14BF04C006D10670F0A0
:10370000A216B306C406D50648F4089461087108E9
:1037100081089108AE0CBF1CC01ED11E15012601E8
:10372000221A330A440A550A898D9A8DAB8DBC8DB5
:103730006C01BB24AA24A628B728C828D928380198
:10374000882499246D8E7E8E8F8E98A2A801970171
:103750004070507029A73AA74BA75CA7C201B101DE
:10376000A40193010E944B25922E832E742E652E68
:1037700069A37AA38BA39CA3C201B1012D8D3E8DB9
:103780004F8D58A10E944B25892D982DA72DB62D20
:10379000898F9A8FAB8FBC8FBC01CD0129A53AA52B
:1037A0004BA55CA50E942C253B014C0149A15AA1C7
:1037B0006BA17CA1DA01992788272DA03EA04FA0FC
:1037C00058A4920144275527822B932BA42BB52B69
:1037D00086159705A805B90530F5298D3A8D4B8DCD
:1037E0005C8D2150304040405040298F3A8F4B8FA4
:1037F0005C8F8E0D9F1DA01FB11F8E159F05A0070A
:10380000B10788F086159705A805B90560F4215021
:10381000304040405040298F3A8F4B8F5C8F8E0D47
:103820009F1DA01FB11FAC01BD01461957096809B2
:1038300079093A014B01CB01BA012D8D3E8D4F8D97
:1038400058A10E944B25522E432E342E252E69A3BB
:103850007AA38BA39CA3C401B3012D8D3E8D4F8D04
:1038600058A10E944B25652C742C832C922CC401EA
:10387000B30129A53AA54BA55CA50E942C251B01E7
:103880002C0169A17AA18BA19CA1AB01332722272E
:103890008DA19EA1AFA1B8A5A070B070282B392B27
:1038A0004A2B5B2B2215330544055505C0F40894BB
:1038B00061087108810891082E0D3F1D401F511F9E
:1038C0002E153F054007510750F0221533054405DA
:1038D000550528F408946108710881089108898DBC
:1038E0009A8DAB8DBC8D8C01FF24EE24E628F72841
:1038F0000829192943C2A216B306C406D50608F43E
:103900002AC2203090E0390791E0490790E059073A
:1039100050F42F3F31054105510509F090F466241C
:103920007724430119C02030A0E03A07A0E04A07FD
:10393000A1E05A0760F490E1692E712C812C912C42
:103940000BC088E0682E712C812C912C05C0B8E149
:103950006B2E712C812C912CDA01C901062C04C02C
:10396000B695A795979587950A94D2F789529F4F58
:10397000FC018081680E711C811C911C80E290E02A
:10398000A0E0B0E086199709A809B90989F42A15B9
:103990003B054C055D0508F4E5C12DA03EA04FA0F8
:1039A00058A42E143F044006510608F0DBC1D3C1D1
:1039B00089A719012A0104C0220C331C441C551C80
:1039C0008A95D2F7D801C701062C04C0B695A795F1
:1039D000979587950A94D2F7282A392A4A2A5B2A8A
:1039E000A801970109A404C0220F331F441F551FCB
:1039F0000A94D2F729A33AA34BA35CA386017501CD
:103A0000062C04C016950795F794E7940A94D2F70C
:103A1000B601A50109A404C0440F551F661F771FF6
:103A20000A94D2F74D8F5E8F6F8F78A36DA17EA120
:103A30008FA198A504C096958795779567956A9408
:103A4000D2F73B014C018D8D9E8DAF8DB8A186299B
:103A50009729A829B9298D8F9E8FAF8FB8A35201BE
:103A6000CC24DD24A20191014070507029AB3AAB07
:103A70004BAB5CABC801B701A60195010E944B2579
:103A8000622E932E842E752E6DA77EA78FA798ABDE
:103A9000C801B701A60195010E944B25E62CF92C1F
:103AA000082D172DE98EFA8E0B8F1C8FC801B701D8
:103AB00029A93AA94BA95CA90E942C256DA47EA432
:103AC0008FA498A88301FF24EE246D8C7E8C8F8CAC
:103AD00098A0940144275527E22AF32A042B152B9A
:103AE000E616F7060807190730F5298D3A8D4B8D34
:103AF0005C8D2150304040405040298F3A8F4B8F91
:103B00005C8FE20CF31C041D151DE214F304040584
:103B1000150588F0E616F7060807190760F4215026
:103B2000304040405040298F3A8F4B8F5C8FE20CE1
:103B3000F31C041D151DE61AF70A080B190BC80122
:103B4000B701A60195010E944B252DAB3EAB4FABB3
:103B500058AF6DA77EA78FA798ABC801B701A60184
:103B600095010E944B256DA87EA88FA898ACC40132
:103B7000B30129A93AA94BA95CA90E942C259B0154
:103B8000AC01ADA4BEA4CFA4D8A8D501992788279D
:103B9000AD8CBE8CCF8CD8A06FEFE62E6FEFF62EDB
:103BA000012D112DAE20BF20C022D1228A299B29B0
:103BB000AC29BD2982179307A407B507E0F4089440
:103BC0006108710881089108820D931DA41DB51D1F
:103BD00082159305A405B50570F082179307A40715
:103BE000B50748F408946108710881089108820DAE
:103BF000931DA41DB51D1C012D01221A330A440A70
:103C0000550A2D8E3E8E4F8E58A2A98CBA8CCB8C25
:103C1000DC8C8501FF24EE24E628F72808291929E1
:103C2000AFEFAA2EAFEFBA2EC12CD12CAE20BF2001
:103C3000C022D12218014424552469A07AA08BA067
:103C40009CA02FEF3FEF40E050E0622273228422DD
:103C5000952269A17AA18BA19CA1AC016627772747
:103C6000498F5A8F6B8F7C8FC601B501A4019301D8
:103C70000E942C2569A37AA38BA39CA3C601B5013E
:103C8000298D3A8D4B8D5C8D0E942C255B016C013A
:103C9000C201B101A40193010E942C253B014C01FA
:103CA000C201B101298D3A8D4B8D5C8D0E942C256E
:103CB0009B01AC01A60CB71CC81CD91C29A03AA0BA
:103CC0004BA05CA0C201AA27BB27A80EB91ECA1E22
:103CD000DB1EA614B704C804D90420F420503040D9
:103CE0004F4F5F4FC601AA27BB27820F931FA41F08
:103CF000B51F4D8C5E8C6F8C78A0481659066A06ED
:103D00007B0618F184159505A605B705A1F5650193
:103D1000BB24AA2489A19AA1ABA1BCA1A070B070B8
:103D2000A80EB91ECA1EDB1E8DA19EA1AFA1B8A50B
:103D300009A404C0880F991FAA1FBB1F0A94D2F7B9
:103D40008A159B05AC05BD05B0F40894E108F1089F
:103D50000109110910C0AA24BB246501EE24FF2427
:103D600087010CC0AA24BB24650181E0E82EF12C58
:103D7000012D112D03C0AA24BB246501FE017196FB
:103D800088E0DF011D928A95E9F7E98AFA8A0B8BB0
:103D90001C8BAD8ABE8ACF8AD88E2E2D3A894B894C
:103DA0005C896A2D7E898F89988DE896E2E10C9472
:103DB0008925ACE3B0E0EFEDFEE10C946D25F82F22
:103DC000E92FA986BA86CB86DC86ED86FE860F872C
:103DD000188BE984FA840B851C858D859E85AF85BB
:103DE000B889298F3A8F4B8F5C8F298C3A8C4B8CFA
:103DF0005C8C2DA23EA24FA258A63B018F2E9E2E78
:103E0000130124010097A105B10509F00DC36E143B
:103E10007F048006910608F0F7C020E0E21620E05B
:103E2000F20621E0020720E0120758F43FEFE31604
:103E3000F1040105110509F090F480E090E0DC0147
:103E400017C040E0E41640E0F40640E0040741E01B
:103E5000140750F480E190E0A0E0B0E009C088E0F1
:103E600090E0A0E0B0E004C088E190E0A0E0B0E025
:103E7000A8019701082E04C05695479537952795B8
:103E80000A94D2F729523F4FF9012081F0E2AF2E78
:103E9000B12CC12CD12CA81AB90ACA0ADB0AA21A61
:103EA000B108C108D108AD8EBE8ECF8ED8A2A114A4
:103EB000B104C104D10499F12D8D022E04C0EE0C81
:103EC000FF1C001F111F0A94D2F7022E04C0660CBB
:103ED000771C881C991C0A94D2F760E270E06A197A
:103EE0007B09298C3A8C4B8C5C8C04C0569447948B
:103EF000379427946A95D2F72628372848285928D6
:103F0000498D5A8D6B8D7C8D04C0440F551F661FE3
:103F1000771F2A95D2F74DA35EA36FA378A7380128
:103F200088249924C801B70180709070698F7A8FB6
:103F30008B8F9C8FC201B101A40193010E944B257C
:103F4000D22EA32EC42EB52E69A37AA38BA39CA335
:103F5000C201B101A40193010E944B256D2D7A2D60
:103F60008C2D9B2D298D3A8D4B8D5C8D0E942C259F
:103F70005B016C0129A03AA04BA05CA0D10199275C
:103F800088272DA03EA04FA058A492014427552772
:103F9000822B932BA42BB52B8A159B05AC05BD0555
:103FA00090F48E0D9F1DA01FB11F8E159F05A007B9
:103FB000B10748F08A159B05AC05BD0520F48E0DB0
:103FC0009F1DA01FB11F9C01AD012A193B094C097F
:103FD0005D0959016A01CA01B901A40193010E9456
:103FE0004B25522E232E442E352E69A37AA38BA364
:103FF0009CA3C601B501A40193010E944B25652D28
:10400000722D842D932DC5C1E114F1040105110514
:1040100059F461E070E080E090E0A80197010E940F
:104020004B2579018A0110C050E0E51650E0F506F5
:1040300051E0050750E0150758F46FEFE616F1045C
:104040000105110509F090F480E090E0DC0117C053
:1040500070E0E71670E0F70670E0070771E01707F9
:1040600050F480E190E0A0E0B0E009C088E090E08A
:10407000A0E0B0E004C088E190E0A0E0B0E0A801DA
:104080009701082E04C056954795379527950A94B1
:10409000D2F729523F4FF9012081820F911DA11DB6
:1040A000B11D50E2252E312C412C512C281A390AF1
:1040B0004A0A5B0A2D8E3E8E4F8E58A2211431047F
:1040C0004104510439F464015301AE18BF08C00A19
:1040D000D10AEBC02D8D022E04C0EE0CFF1C001F78
:1040E000111F0A94D2F713012401082E04C056941C
:1040F0004794379427940A94D2F764015301022E0F
:1041000004C0AA0CBB1CCC1CDD1C0A94D2F7498D40
:104110005A8D6B8D7C8D04C0769567955795479524
:104120008A95D2F7A42AB52AC62AD72AA9A2BAA262
:10413000CBA2DCA2698D7A8D8B8D9C8D04C0660F1D
:10414000771F881F991F2A95D2F76DA37EA38FA38F
:1041500098A7380188249924D801C701A070B070AD
:10416000898F9A8FAB8FBC8FC201B101A4019301DB
:104170000E944B25D22EA32EC42EB52E69A77AA756
:104180008BA79CA7C201B101A40193010E944B25FA
:104190006D2D7A2D8C2D9B2D298D3A8D4B8D5C8D1F
:1041A0000E942C255B016C0129A43AA44BA45CA4B9
:1041B000D1019927882729A03AA04BA05CA09201A1
:1041C00044275527822B932BA42BB52B8A159B05AF
:1041D000AC05BD0590F48E0D9F1DA01FB11F8E155F
:1041E0009F05A007B10748F08A159B05AC05BD05E2
:1041F00020F48E0D9F1DA01FB11F9C01AD012A1937
:104200003B094C095D0959016A01CA01B901A401C0
:1042100093010E944B25522E232E442E352E69A742
:104220007AA78BA79CA7C601B501A40193010E94A0
:104230004B25652D722D842D932D298D3A8D4B8D17
:104240005C8D0E942C255B016C0149A55AA56BA5CC
:104250007CA5DA019927882729A13AA14BA15CA165
:1042600040705070822B932BA42BB52B8A159B0585
:10427000AC05BD0590F48E0D9F1DA01FB11F8E15BE
:104280009F05A007B10748F08A159B05AC05BD0541
:1042900020F48E0D9F1DA01FB11F1C012D012A1897
:1042A0003B084C085D086201510118014424552463
:1042B000A801970140705070298F3A8F4B8F5C8F07
:1042C000C601B501A20191010E944B25622E932ED9
:1042D000842E752E69A37AA38BA39CA3C601B50176
:1042E000A20191010E944B25662D792D882D972DD5
:1042F000298D3A8D4B8D5C8D0E942C255B016C01C4
:1043000049A15AA16BA17CA1DA01992788276DA048
:104310007EA08FA098A4940144275527822B932B2D
:10432000A42BB52B8A159B05AC05BD0590F48E0D0D
:104330009F1DA01FB11F8E159F05A007B10748F054
:104340008A159B05AC05BD0520F48E0D9F1DA01F91
:10435000B11F9C01AD012A193B094C095D095901A6
:104360006A01CA01B901A20191010E944B25622E86
:10437000932E842E752E69A37AA38BA39CA3C601CA
:10438000B501A20191010E944B25662D792D882D42
:10439000972D298D3A8D4B8D5C8D0E942C255B01CC
:1043A0006C0149A15AA16BA17CA1DA019927882748
:1043B0002DA13EA14FA158A540705070822B932B88
:1043C000A42BB52B8A159B05AC05BD0590F48E0D6D
:1043D0009F1DA01FB11F8E159F05A007B10748F0B4
:1043E0008A159B05AC05BD0520F48E0D9F1DA01FF1
:1043F000B11F8A199B09AC09BD099C01AD010D8C47
:1044000004C056954795379527950A94D2F7298B7E
:104410003A8B4B8B5C8B1D8A1E8A1F8A188E3A89B9
:104420004B895C8960E0DEC2681679068A069B06C5
:1044300018F48F2F9E2FD9C2803050E0950751E09D
:10444000A50750E0B50750F48F3F9105A105B105D0
:1044500009F090F4AA24BB24650119C0803060E003
:10446000960760E0A60761E0B60760F440E1A42E7D
:10447000B12CC12CD12C0BC038E0A32EB12CC12CF7
:10448000D12C05C028E1A22EB12CC12CD12C9C012D
:10449000AD010A2C04C056954795379527950A9487
:1044A000D2F729523F4FF9012081A20EB11CC11C45
:1044B000D11C20E230E040E050E02A193B094C09D1
:1044C0005D0909F047C086159705A805B90548F0AC
:1044D000A98CBA8CCB8CDC8CAE14BF04C006D10680
:1044E00038F1298D3A8D4B8D5C8D2E193F09400B8B
:1044F000510B681A790A8A0A9B0AA1E0EA2EF12C6C
:10450000012D112D698D7A8D8B8D9C8D621773070E
:104510008407950718F0EE24FF2487011301240176
:104520002E183F08400A510A2DA33EA34FA358A7B7
:104530008DA19EA1AFA1B8A5898B9A8BAB8BBC8BAB
:104540002D8A3E8A4F8A588E2DA13A894B895C89E3
:10455000622D48C22DA31C012D01022E04C0220C85
:10456000331C441C551C0A94D2F7A9A6D801C701D4
:1045700004C0B695A79597958795AA94D2F7282A4F
:10458000392A4A2A5B2A2D8E3E8E4F8E58A2570119
:104590006801022E04C0AA0CBB1CCC1CDD1C0A94B2
:1045A000D2F7ADA6BEA6CFA6D8AA1301240109A4AE
:1045B00004C056944794379427940A94D2F7740110
:1045C0006301022E04C0CC0CDD1CEE1CFF1C0A94FF
:1045D000D2F7898D9A8DAB8DBC8D09A404C0B69598
:1045E000A795979587950A94D2F7C82AD92AEA2AD7
:1045F000FB2AC9A2DAA2EBA2FCA2E98CFA8C0B8DF1
:104600001C8D04C0EE0CFF1C001F111F2A95D2F751
:10461000E9AAFAAA0BAB1CAB0D8D1E8D2F8D38A10C
:104620003901882499242070307009AF1AAF2BAF5C
:104630003CAFC201B101A40193010E944B25A22EFF
:10464000D32EE42E052F6DAB7EAB8FAB98AFC2019E
:10465000B101A40193010E944B258A2D9D2DAE2D01
:10466000B02F898F9A8FAB8FBC8FBC01CD0129AD44
:104670003AAD4BAD5CAD0E942C252DA93EA94FA9AA
:1046800058AD8901FF24EE2429A03AA04BA05CA0DC
:10469000920144275527E22AF32A042B152BE6160C
:1046A000F7060807190750F5298D3A8D4B8D5C8D5B
:1046B0002150304040405040298F3A8F4B8F5C8FC3
:1046C0002D8C3E8C4F8C58A0E20CF31C041D151D44
:1046D000E214F3040405150588F0E616F70608074A
:1046E000190760F42150304040405040298F3A8FE4
:1046F0004B8F5C8FE20CF31C041D151DE61AF70AA4
:10470000080B190BC801B701A40193010E944B25A6
:10471000D22EC32EB42E552E6DAB7EAB8FAB98AF81
:10472000C801B701A40193010E944B258D2D9C2D3A
:10473000AB2DB52D5C016D01C601B50129AD3AADBA
:104740004BAD5CAD0E942C258B019C014DA85EA851
:104750006FA878ACB2015527442789A19AA1ABA1D3
:10476000BCA1A070B070482B592B6A2B7B2B401733
:1047700051076207730700F50894A108B108C10842
:10478000D1086D8C7E8C8F8C98A0460D571D681DAE
:10479000791D461557056805790570F040175107D2
:1047A0006207730748F40894A108B108C108D1084A
:1047B000460D571D681D791DDB01CA01801B910B39
:1047C000A20BB30B89A39AA3ABA3BCA3298C3A8CED
:1047D0004B8C5C8CD101992788278A299B29AC298D
:1047E000BD292FEFE22E2FEFF22E012D112DE82201
:1047F000F9220A231B233D0188249924ADA4BEA4D9
:10480000CFA4D8A82FEF3FEF40E050E0A222B32280
:10481000C422D5224DA55EA56FA578A91B0144240D
:104820005524C801B701A60195010E942C25698F66
:104830007A8F8B8F9C8FC801B701A20191010E94D2
:104840002C257B018C01C401B301A60195010E94B6
:104850002C255B016C01C401B301A20191010E94EE
:104860002C259B01AC01EA0CFB1C0C1D1D1D298C89
:104870003A8C4B8C5C8CC201AA27BB27E80EF91E30
:104880000A1F1B1FEA14FB040C051D0520F4205011
:1048900030404F4F5F4FC801AA27BB27820F931F9D
:1048A000A41FB51F8701FF24EE24298D3A8D4B8D5F
:1048B0005C8D40705070E20EF31E041F151F49A05E
:1048C0005AA06BA07CA0481659066A067B0670F0B9
:1048D00084159505A605B70599F569A87AA88BA84A
:1048E0009CA86E147F048006910650F5A8019701DC
:1048F0008DA49EA4AFA4B8A8281939094A095B0958
:104900005C016D012D8C3E8C4F8C58A0A218B30811
:10491000C408D50881E090E0A0E0B0E0E216F3061C
:104920000407150718F080E090E0DC01250136014E
:10493000481A590A6A0A7B0AD301C20179018A011D
:1049400069A87AA88BA89CA86E187F08800A910A8B
:104950009401830149A15AA16BA17CA1481B590B69
:104960006A0B7B0B81E090E0A0E0B0E089A89AA8F8
:10497000ABA8BCA880169106A206B30618F080E08A
:1049800090E0DC01481B590B6A0B7B0B5A016B0151
:1049900009A404C0AA0CBB1CCC1CDD1C0A94D2F7D1
:1049A0000DA004C036952795179507950A94D2F760
:1049B000A02AB12AC22AD32AA98ABA8ACB8ADC8A37
:1049C000CB01BA010DA004C09695879577956795A0
:1049D0000A94D2F76D8B7E8B8F8B988F2A2D3A8914
:1049E0004B895C897E898F89988DEC96E2E10C94E5
:1049F0008925991B79E004C0991F961708F0961B2A
:104A0000881F7A95C9F780950895AA1BBB1B51E1B1
:104A100007C0AA1FBB1FA617B70710F0A61BB70B2E
:104A2000881F991F5A95A9F780959095BC01CD01D3
:104A3000089597FB092E07260AD077FD04D0E5DFFD
:104A400006D000201AF4709561957F4F0895F6F70F
:104A5000909581959F4F0895629FD001739FF001BB
:104A6000829FE00DF11D649FE00DF11D929FF00DFE
:104A7000839FF00D749FF00D659FF00D9927729F35
:104A8000B00DE11DF91F639FB00DE11DF91FBD01C0
:104A9000CF0111240895A1E21A2EAA1BBB1BFD0110
:104AA0000DC0AA1FBB1FEE1FFF1FA217B307E4070D
:104AB000F50720F0A21BB30BE40BF50B661F771F65
:104AC000881F991F1A9469F7609570958095909545
:104AD0009B01AC01BD01CF0108952F923F924F92EF
:104AE0005F926F927F928F929F92AF92BF92CF927E
:104AF000DF92EF92FF920F931F93CF93DF93CDB787
:104B0000DEB7CA1BDB0B0FB6F894DEBF0FBECDBFFE
:104B100009942A88398848885F846E847D848C84CF
:104B20009B84AA84B984C884DF80EE80FD800C81D8
:104B30001B81AA81B981CE0FD11D0FB6F894DEBFBB
:104B40000FBECDBFED010895CF93DF938230910565
:104B500010F482E090E0E091C702F091C80240E0DA
:104B600050E020E030E026C060817181681779074D
:104B7000E0F06817790781F482819381211531056E
:104B800031F0D90113969C938E9312972BC090937A
:104B9000C8028093C70226C04115510519F0641759
:104BA000750718F4AB01E901DF019F017281638190
:104BB000E72FF62F3097C1F64115510501F1481B3B
:104BC000590B4430510580F412968D919C911397A6
:104BD000209719F09B838A8304C09093C802809326
:104BE000C702FD01329646C0FD01E40FF51F819317
:104BF00091934250504011965C934E933BC020914C
:104C0000C5023091C6022115310541F42091D90128
:104C10003091DA013093C6022093C5022091DB0166
:104C20003091DC012115310541F42DB73EB740919B
:104C3000D7015091D801241B350BE091C502F091AA
:104C4000C602E217F307A0F42E1B3F0B2817390703
:104C500078F0AC014E5F5F4F2417350748F04E0FD8
:104C60005F1F5093C6024093C5028193919302C087
:104C7000E0E0F0E0CF01DF91CF910895CF93DF9393
:104C8000009709F491C0FC0132971382128260915F
:104C9000C7027091C8026115710581F420813181CC
:104CA000280F391F8091C5029091C6028217930781
:104CB00099F5F093C602E093C50276C0DB0180E06F
:104CC00090E002C0CD01D901AE17BF0748F412969B
:104CD0002D913C91139721153105A1F7CD0121C0EC
:104CE000B383A283EF01499159919E01240F351F8F
:104CF000A217B30779F42D913C911197240F351F1A
:104D00002E5F3F4F3183208312962D913C91139754
:104D100033832283009729F4F093C802E093C702FB
:104D200043C0DC011396FC93EE9312974D915D9175
:104D3000A40FB51FEA17FB0769F420813181240F06
:104D4000351F2E5F3F4FEC01398328832281338149
:104D50003B832A83E0E0F0E002C0FB01BC01DB0101
:104D600012968D919C9113970097B9F79B012E5F36
:104D70003F4F8D919C911197820F931F4091C502D7
:104D80005091C6024817590779F4309729F41092C8
:104D9000C8021092C70202C0138212822250304011
:104DA0003093C6022093C502DF91CF910895A0E011
:104DB000B0E0EDEDF6E20C947525EC0168817981A7
:104DC0008A819B81611571058105910521F464E259
:104DD00079ED8BE597E02DE133EF41E050E00E9463
:104DE000972779018A0127EA31E440E050E00E94E8
:104DF0002C255B016C01C801B7012CEE34EF4FEF9D
:104E00005FEF0E942C256A0D7B1D8C1D9D1D97FF59
:104E100004C06150704080409048688379838A83E1
:104E20009B837F77CB01CDB7DEB7EAE00C94912569
:104E30000E94D72608958DED91E00E94D72608950F
:104E4000A0E0B0E08093DD019093DE01A093DF014C
:104E5000B093E0010895FB01DC0105900D92002064
:104E6000E1F70895FB019F01E8944230C4F0453218
:104E7000B4F44A3029F497FB1EF4909581959F4F26
:104E8000642F77270E940525805D8A330CF0895DA9
:104E90008193CB010097A1F716F45DE25193108244
:104EA000C9010C948727FA01CF93FF93EF93223027
:104EB00044F1253234F5C22FE894CA3049F497FB07
:104EC0003EF490958095709561957F4F8F4F9F4FE1
:104ED0002C2F332744275527FF93EF930E944B2510
:104EE000EF91FF91605D6A330CF0695D6193B901E8
:104EF000CA01605070408040904051F716F4CDE2F6
:104F0000C19310828F919F91CF910C948727DC01E0
:104F1000FC01672F71917723E1F7329704C07C91F0
:104F20006D9370836291AE17BF07C8F3089597FB26
:104F3000092E05260ED057FD04D0ADDD0AD0001C89
:104F400038F450954095309521953F4F4F4F5F4F26
:104F50000895F6F790958095709561957F4F8F4FE6
:084F60009F4F0895F894FFCF64
:104F680020280029008142241818244281000000CA
:104F78000000000000000000000000000081422442
:104F88001818244281814224181824428100000004
:104F98000000000000000000000000000081422422
:104FA800181824428101012810E10C4F0D4F100AF6
:104FB8000D020408101F3F7DFA3A20006D7300208F
:104FC8002800206D696E290073290A0044757261F2
:104FD80074696F6E3A2000000102020303030304A0
:104FE8000404040404040405050505050505050570
:104FF8000505050505050506060606060606060650
:105008000606060606060606060606060606060638
:10501800060606060606060707070707070707071F
:105028000707070707070707070707070707070708
:1050380007070707070707070707070707070707F8
:1050480007070707070707070707070707070707E8
:1050580007070707070707080808080808080808CF
:1050680008080808080808080808080808080808B8
:1050780008080808080808080808080808080808A8
:105088000808080808080808080808080808080898
:105098000808080808080808080808080808080888
:1050A8000808080808080808080808080808080878
:1050B8000808080808080808080808080808080868
:1050C8000808080808080808080808080808080858
:1050D800080808080808082000C9020000010000A4
:0250E8000000C6
:00000001FF
