:100000000C9441020C945E020C945E020C945E020D
:100010000C945E020C945E020C945E020C944206F8
:100020000C945E020C945E020C943E080C945E02EA
:100030000C945E020C94F3030C9422040C945E0264
:100040000C945E020C945E020C945E020C945E02B0
:100050000C945E0276322E332052656C65617365B6
:100060000A0053656C662D54657374204572726F77
:10007000723A20306200496E697469616C697A6510
:10008000643A2000203D3E204E6F20616E737765FC
:10009000722066726F6D20417564696F210A0020BD
:1000A0003D3E204E6F20616E737765722066726FE1
:1000B0006D204D656D6F7279210A00203D3E204311
:1000C000616E277420777269746520746F204D65A6
:1000D0006D6F7279210A00286429656C6574652C3E
:1000E00020286729657420616E696D732C20287340
:1000F00029657420616E696D732C202876296572DC
:1001000073696F6E0A00287429696D652C20286157
:10011000297564696F2C202863296F756E742C20F3
:10012000287829437573746F6D20636F756E740A38
:100130000028792953657420666978656420616EAA
:10014000696D6174696F6E20636F756E740A005318
:100150002865296C6620546573742C20286D296FDE
:1001600064650A00506C61792053286E29616B65C3
:100170000A00416C6C204C454473204F66662F4F3B
:100180006E2028302F31290A002832293A20546560
:10019000737420416E696D2E20310A002833293A8C
:1001A00020416C6C2053757266616365204C454438
:1001B00073206F6E0A0053797374656D2054696DF6
:1001C000653A2000204672616D65732073746F720A
:1001D00065640A0053656E64206120627974652E3F
:1001E0002E2E2000207772697474656E210A0041FA
:1001F0006E696D6174696F6E20636F756E74206EC9
:100200006F772038373035210A0053656C662D54DE
:100210006573743A203062004B696C6C65642041F0
:100220006E696D6174696F6E20436F756E7465726F
:10023000210A00436F756C64206E6F7420616363E4
:1002400065737320646576696365210A004175648E
:10025000696F20446174613A0A00436F6E74726F73
:100260006C733A2057204120532044205120452CC4
:10027000207820746F20717569740A0052616E20B5
:100280006F7574206F662048656170210A00416EA9
:10029000696D6174696F6E2061626F72746564214B
:1002A0000A002869296E7465727275707420636F14
:1002B000756E742C20287229616E646F6D2C202855
:1002C000712972657365740A0020496E74657272D3
:1002D0007570747320616674657220313030306DD2
:1002E0007365630A00204672616D657320706572E4
:1002F000205365636F6E640A004D656D6F727920DF
:1003000064656C65746564210A00526573657420C8
:10031000696E203530306D732E20427965210A00D8
:100320005761746368646F672052657365742064F5
:10033000657465637465642E0A0042726F776E2D72
:100340004F757420526573657420646574656374B9
:1003500065642E0A004E6F205265736574207265C5
:1003600061736F6E2064657465637465642E0A0042
:1003700045787465726E616C205265736574206493
:10038000657465637465642E0A004A5441472052BF
:10039000657365742064657465637465642E0A0012
:1003A000506F7765722D4F6E2052657365742064AF
:1003B000657465637465642E0A0059617921204172
:1003C0006E6F74686572206D696E757465207061FA
:1003D00073736564203A290A00417564696F204D82
:1003E0006F6465210A0043756265204D6F64652165
:1003F0000A0043756265206D6F646520656E7465E3
:10040000726564210A00417564696F206D6F6465CF
:1004100020656E7465726564210A0054006200767E
:100420000084009F00BB00D700060131014F01642A
:1004300001720189019C01B601C401D401E401EFFC
:10044000010A02180233024D025A027C028E02A2F5
:1004500002C902E502F9020A0320033A03550370B8
:10046000038A03A003BA03D903E603F20306045385
:100470007472696E67206E6F7420666F756E64218A
:100480000A0011241FBECFE5D8E0DEBFCDBF12E0C9
:10049000A0E6B0E0ECEFFCE202C005900D92AC38B3
:1004A000B107D9F713E0ACE8B2E001C01D92A13763
:1004B000B107E1F70E94AE020C947C160C94000088
:1004C000B09911C040918D02242F30E080918E02AE
:1004D00090E001972817390724F44F5F40938D026D
:1004E00002C010928D0280918D020895863561F1CF
:1004F000873580F4873411F1883438F48234E1F0A0
:100500008434C1F08F3331F513C0883489F08335DA
:1005100009F517C0883661F0893628F4843651F021
:100520008736C1F40BC0833761F0863799F40CC06D
:1005300086E00BC00E94D50882E40DC00E943314EF
:1005400008950E94FD0F089580E00E943E090E94D8
:100550003B05089583E20E94FB0408955F926F9229
:100560007F928F929F92AF92BF92CF92DF92EF9243
:10057000FF920F931F93CF93DF9384B78093A902C9
:1005800014BE98E10FB6F89491BD11BC0FBE8FEF69
:100590008ABB8CEF81BB97BB84BB87B3866087BB6C
:1005A000B8980E94CB0589E190E068E040E021E046
:1005B0000E9465040E94BC060E943508789481E67A
:1005C00090E00E946E052EE088E190E00FB6F8946E
:1005D000A89581BD0FBE21BD0E94AE098F5F80939B
:1005E0008E020E9460020E94A308D22EC32EB42E57
:1005F000A52E962E872E782E592E0E94F408EC01F7
:10060000FF246624EE2480918C02882309F4A895A7
:1006100080918D02882381F00E94C705882309F408
:1006200063C00E941708009709F45EC060918D02B4
:1006300061500E94B00958C080916000882331F059
:100640000E94F408EC0110926000EE242097F1F073
:100650000E94C705681608F047C02E2D30E0CE0175
:1006600001972817390710F4E39401C0EE248E2D6A
:1006700090E00E94B4088C01FC01E05CFF4F6080B8
:100680000E946E05C8010E94AB152EC080918F029A
:1006900082FD2AC081FF0FC00E94EE0FF81638F4C9
:1006A0000F2D0F5F8F2D0E94F00FF02E1DC0809137
:1006B0008F028D7F16C00E94C7058033A8F0EF2DF2
:1006C000F0E0EE0FFF1FEF59FE4F808191810E94F5
:1006D0006E053F2D333010F4F39406C080918F02E5
:1006E000826080938F02FF240E949704882321F068
:1006F0000E94A5040E9476020E94A308F22FFD1911
:10070000A1E02F1708F0A0E0232F2C19E1E0321709
:1007100008F0E0E0322F3A1BA32F31E02A1708F04F
:1007200030E0E32B342F3B1921E0431708F020E0A1
:10073000432F4E1BE42F41E03E1708F040E0242BEE
:10074000452F4A1931E0541708F030E0542F521B5E
:1007500021E0451708F020E0322B462F491921E00F
:10076000641708F020E0642F631B31E0461708F09F
:1007700030E0232B472F481931E0741708F030E0A0
:10078000742F721B21E0471708F020E0322B482F0E
:10079000471921E0841708F020E0842F831B31E003
:1007A000481708F030E0232B9519921779F4882325
:1007B00069F4772359F4662349F4552339F4EE2379
:1007C00029F4AA2319F4F73908F41DCF0E94600216
:1007D0000E94A308D22EC32EB42EA52E962E872EAD
:1007E000782E592E10CF1F920F920FB60F92112410
:1007F0008F939F93EF93FF93E0919202F091930276
:100800008CB1E655FD4F80838091920290919302C6
:100810008F31910550F4809192029091930201964C
:10082000909393028093920204C0109293021092CC
:100830009202FF91EF919F918F910F900FBE0F90B9
:100840001F9018951F920F920FB60F9211242F939D
:100850003F938F939F93EF93FF9320919402309156
:100860009502809196029091970228173907F1F02E
:10087000E0919402F0919502E653FD4F80818CB98E
:1008800080919402909195028F31910550F480915E
:100890009402909195020196909395028093940210
:1008A00009C0109295021092940204C081E08093D6
:1008B00067015598FF91EF919F918F913F912F91F3
:1008C0000F900FBE0F901F901895433060F5362F94
:1008D0003550343040F5322F3150323030F544232A
:1008E00041F030B5306230BD423019F430B530617E
:1008F00030BD223019F420B5286020BD653061F08C
:10090000663011F0683029F420B5226020BD6630D1
:1009100019F020B5246020BD90BD89B98AB18869DD
:100920008AB980E0089581E0089581E008954091BA
:10093000900250919102209192023091930281E0B5
:100940004217530709F480E00895209190023091F6
:10095000910280919202909193022817390729F110
:10096000E0919002F0919102E655FD4F8081E09177
:100970009002F0919102E655FD4F10822091900275
:10098000309191022F31310558F42091900230912D
:1009900091022F5F3F4F3093910220939002089570
:1009A0001092910210929002089580E00895809133
:1009B00096029091970220919402309195020196AF
:1009C0008217930791F0809194029091950200977D
:1009D00079F4209196023091970281E090E02F31D6
:1009E000310541F080E090E0089581E090E00895C5
:1009F00080E090E008952091960230919702409116
:100A00009402509195022F5F3F4F2417350799F3B9
:100A100020919402309195022115310539F42091ED
:100A20009602309197022F31310529F3E091960219
:100A3000F0919702E653FD4F80838091960290914A
:100A400097028F31910550F4809196029091970210
:100A50000196909397028093960204C01092970299
:100A60001092960280916701813021F41092670103
:100A7000559A5D9A0895CF93DF93C82FD92F02C05E
:100A80000E94FB0489918823D9F7DF91CF910895C3
:100A90001AB810BC10BC19B81092910210929002B2
:100AA0001092950210929402109293021092920268
:100AB0001092970210929602089520919C02309114
:100AC0009D0240919E0250919F02B901CA01089572
:100AD000E8E6F1E0E80FF11D808108957FB7F89412
:100AE00021E0209398021092990210929B02482FC5
:100AF000592F80E090E01DC0ED91F0E0E859FE4FE5
:100B000060816095F901EE0FFF1FEE0FFF1FEE0FE2
:100B1000FF1FE80FF91FE651FD4F60832F5F3F4F26
:100B20002830310549F70196485F5F4F88309105BD
:100B300021F0DA0120E030E0DFCF7FBF08959FB7DA
:100B4000F89421E0209398021092990210929B024F
:100B500020E030E0809510C0FB01E40FF51FE65166
:100B6000FD4F80834F5F5F4F48305105A9F72F5FDE
:100B70003F4F2830310549F040E050E0B901E3E053
:100B8000660F771FEA95E1F7E7CF9FBF0895809141
:100B90009902869508958EB589608EBD82EC92EAA1
:100BA0009BBD8ABD80E189BF80E00E949F0578944B
:100BB00080E090E061E01DC07FB7F894FA01E20F99
:100BC000F31FE651FD4FA0811082609398021092AE
:100BD000990210929B027FBF709199027723E1F3F3
:100BE0002F5F3F4F2830310539F701968830910546
:100BF00049F020E030E0AC01F3E0440F551FFA95D6
:100C0000E1F7DACFF89410929C0210929D021092B4
:100C10009E0210929F021092990210929B020895D8
:100C200089B78F7E89BF0895982F9C7F92BB98B318
:100C3000880F880F880F8871977E892B88BB08954D
:100C400095B3937095BB98B3997F98BB823058F059
:100C500095B321E030E002C0220F331F8A95E2F7FE
:100C6000922B95BB0CC048B390E0019621E030E098
:100C700002C0220F331F8A95E2F7422B48BB6BBBA1
:100C8000000008951F920F920FB60F9211242F9318
:100C90003F934F935F936F937F938F939F93AF9304
:100CA000BF93CF93DF93EF93FF9380919B0280914B
:100CB0009802882321F010929A021092980280E004
:100CC0000E941406C0E0D0E0E0919A02F0E0A3E0B8
:100CD000EE0FFF1FAA95E1F7EC0FFD1FE651FD4F48
:100CE00060818C2F0E9420062196C830D10561F7C3
:100CF00020919A0281E090E002C0880F991F2A9506
:100D0000E2F70E94140680919A02873030F48091B5
:100D10009A028F5F80939A0207C010929A02809184
:100D200099028F5F8093990210929B0280919C029E
:100D300090919D02A0919E02B0919F020196A11DEB
:100D4000B11D80939C0290939D02A0939E02B0934C
:100D50009F02FF91EF91DF91CF91BF91AF919F9152
:100D60008F917F916F915F914F913F912F910F9054
:100D70000FBE0F901F90189511B88CE080B90895A0
:100D800094EA96BF06B607FEFDCF91B1987F9830E2
:100D900011F0903179F483B984E886BF06B607FE76
:100DA000FDCF91B1987F983139F081E0903429F4EA
:100DB00080E0089581E0089580E0089544EA34E8F1
:100DC00024E946BF06B607FEFDCF91B1987F983063
:100DD00011F09031B1F783B936BF06B607FEFDCFEB
:100DE00091B1987F903211F0983529F426BF06B65C
:100DF00004FCFDCFE6CF08950E94C006089584E963
:100E000086BF06B604FCFDCF089583B984E886BF8B
:100E100006B607FEFDCF91B1987F81E0983209F4C4
:100E200080E0089584EC86BF06B607FEFDCF83B14F
:100E3000089584E886BF06B607FEFDCF83B1089506
:100E4000DF92EF92FF920F931F93DF93CF930F9256
:100E5000CDB7DEB77B018C0180E0E81680E0F806B4
:100E600081E0080780E0180718F490EAD92E02C044
:100E700082EAD82E8D2D0E94C006882381F40E941C
:100E800005078E2D0E9405078D2D81600E94FC06AE
:100E90000E94190789830E94FF06898101C080E0B2
:100EA0000F90CF91DF911F910F91FF90EF90DF9006
:100EB00008958F929F92AF92BF92CF92DF92EF925E
:100EC000FF920F931F93CF93DF934B015C0180E060
:100ED000881680E0980681E0A80680E0B80618F43D
:100EE00030EAE32E02C022EAE22E042F10E0C8010D
:100EF0000E941115EC016C01009759F18E2D0E9492
:100F0000C006882321F50E940507882D0E94050749
:100F10008E2D81600E94FC06BB2448010894810844
:100F2000910807C00E941207FE01EE0DFF1D80838D
:100F3000B394EB2CFF24E814F904A4F30E941907DE
:100F4000C00FD11F219788830E94FF0602C0CC24C6
:100F5000DD24C601DF91CF911F910F91FF90EF909B
:100F6000DF90CF90BF90AF909F908F900895EF92B9
:100F7000FF920F931F93CF937B018C01C42F80E0CE
:100F8000E81680E0F80681E0080780E0180710F412
:100F900080EA01C082EA0E94C006882351F40E94C0
:100FA00005078E2D0E9405078C2F0E9405070E94C1
:100FB000FF06CF911F910F91FF90EF900895CF9270
:100FC000DF92EF92FF920F931F93CF93DF937B01FA
:100FD0008C01D42EC52FC22E80E0E81680E0F806E2
:100FE00081E0080780E0180710F480EA01C082EA77
:100FF0000E94C006882391F40E9405078E2D0E944E
:1010000005078C2FCD2DD82F03C089910E9405078D
:101010008C2F8D198C15C8F30E94FF06DF91CF919C
:101020001F910F91FF90EF90DF90CF900895CF9395
:10103000DF9383E40E94C006882389F4CAE2D3E0E8
:101040000E941207899383E0C033D807C9F70E9432
:101050001907809330030E94FF06269702C0C0E064
:10106000D0E0CE01DF91CF91089583B78B6083BF2D
:101070008AEF8CBF89B7826089BF08951F920F9253
:101080000FB60F9211242F933F934F935F936F935B
:101090007F938F939F93AF93EF93FF934091A10220
:1010A0003091A2022091A3029091A4028091A50206
:1010B000F091A602E091A702A091A802642F6F5FB1
:1010C00051E0641708F050E0530F41E0531708F067
:1010D00040E0420F31E0421708F030E0390F21E0E4
:1010E000391708F020E0280F91E0281708F090E069
:1010F0009F0F81E09F1708F080E08E0F71E08E1740
:1011000008F070E07A0F6093A1025093A20240931E
:10111000A3023093A4022093A5029093A602809389
:10112000A7027093A802FF91EF91AF919F918F91C9
:101130007F916F915F914F913F912F910F900FBED3
:101140000F901F9018952091A1023091A20240911A
:10115000A3025091A4026091A5027091A602809111
:10116000A7029091A8020895BC0126E0660F771FA0
:101170002A95E1F7680F791F605E7F4F80E090E06D
:1011800041E40E9459070895AB01BC0136E0660FA7
:10119000771F3A95E1F7680F791F605E7F4F80E017
:1011A00090E021E40E94DF070895EF92FF920F93F1
:1011B0001F93EE24FF248701C801B70140E00E947D
:1011C000B7070894E11CF11C011D111D80E0E81611
:1011D00080E0F80682E0080780E0180769F71F91B1
:1011E0000F91FF90EF900895CF9360E070E0CB01F6
:1011F0000E942007C82F61E070E080E090E00E942C
:1012000020072C2F30E0582F40E0242B352B87E08F
:10121000213E380710F020EE37E0C901CF91089544
:10122000CF93482FC92F60E070E0CB010E94B70731
:1012300061E070E080E090E04C2F0E94B707CF9112
:101240000895462F8E3150F490E002969C01B9012A
:10125000882777FD8095982F0E94B70708958E31D3
:1012600058F4682F70E06E5F7F4F882777FD809578
:10127000982F0E942007089580E008958A3248F44C
:10128000E82FF0E0EE0FFF1FE55EFB4F2591349154
:1012900004C0EFE6F4E02591349181E393E0B901D5
:1012A0000E94441681E393E0089580E490E00E9458
:1012B00011159C01009709F4FFCFE82FF92FCF01FA
:1012C000805C9F4F1192E817F907E1F7C901089573
:1012D000A7E0B0E0FD01E41BF109AD01421B51099B
:1012E0009A0143E0220F331F4A95E1F7E20FF31F03
:1012F000E80FF91F81E090E002C0880F991F6A95FE
:10130000E2F72081282B20830895A7E0B0E0FD01BB
:10131000E41BF109AD01421B51099A0153E0220F70
:10132000331F5A95E1F7E20FF31FE80FF91F81E031
:1013300090E002C0880F991F6A95E2F7809590812E
:10134000982390830895282F392FF90180E4119272
:101350008150E9F708950E94AB15089583E0089540
:10136000633050F4E62FF0E0EE0FFF1FE859FD4F19
:101370000190F081E02D099508959F92AF92BF9260
:10138000CF92DF92EF92FF920F931F93CF93DF9351
:10139000E82E8B01D42ECE2DD92FFF243FE1C32E72
:1013A00089916C2D0E94F114982EBB24AC2EAE189E
:1013B00010C0FF2039F44B2D4695C80160E02D2D5B
:1013C0000E946809C8016A2D4B2D2D2D0E946809C5
:1013D000B394B91470F3F3948F2D873009F7DF912C
:1013E000CF911F910F91FF90EF90DF90CF90BF9022
:1013F000AF909F900895EF92FF920F931F93DF930A
:10140000CF930F92CDB7DEB78C010E9455097C01B6
:101410000E94A30920E0C801B701422F29830E943E
:10142000BD0929812F5F2830B1F7C7010E946E05E1
:10143000C7010E94AB090F90CF91DF911F910F91CF
:10144000FF90EF9008950F931F93CF93DF938C013C
:101450000E945509EC010E94A309C801BE0147E0A2
:101460000E94BD09CE010E946E05CE010E94AB090B
:10147000DF91CF911F910F910895F901A7E0B0E09E
:101480009D01261B3109BD01641B7109AB0163E09D
:10149000440F551F6A95E1F7240F351FE20FF31F24
:1014A00021E030E002C0220F331F8A95E2F78081ED
:1014B000822B80830895EF92FF920F931F93CF9317
:1014C000DF93E82EF62E042FE90110E007C08E2DE1
:1014D000612F4F2D9E010E943D0A1F5F1017B8F328
:1014E000DF91CF911F910F91FF90EF900895FF92A0
:1014F0000F931F93CF93DF938C010E945509EC014A
:101500000E94A309F80180817FE1F72E6F2D0E94D0
:10151000F114482F80E060E09E010E945B0AF80110
:1015200080816F2D0E94F114482F80E061E09E01C0
:101530000E945B0AF80180816F2D0E94F114482FF0
:1015400081E060E09E010E945B0AF80181816F2DBD
:101550000E94F114482F80E062E09E010E945B0A25
:10156000F80181816F2D0E94F114482F80E063E023
:101570009E010E945B0AF80181816F2D0E94F11487
:10158000482F81E061E09E010E945B0AF8018181A1
:101590006F2D0E94F114482F81E062E09E010E94AD
:1015A0005B0AF80181816F2D0E94F114482F82E0BF
:1015B00060E09E010E945B0AF80181816F2D0E940C
:1015C000F114482F82E061E09E010E945B0AF8015D
:1015D00082816F2D0E94F114482F80E064E09E010B
:1015E0000E945B0AF80182816F2D0E94F114482F3E
:1015F00080E065E09E010E945B0AF80182816F2D08
:101600000E94F114482F81E063E09E010E945B0A72
:10161000F80182816F2D0E94F114482F81E064E06F
:101620009E010E945B0AF80182816F2D0E94F114D5
:10163000482F82E062E09E010E945B0AF8018281ED
:101640006F2D0E94F114482F82E063E09E010E94FA
:101650005B0AF80182816F2D0E94F114482F83E00C
:1016600060E09E010E945B0AF80182816F2D0E945A
:10167000F114482F83E061E09E010E945B0AF801AB
:1016800082816F2D0E94F114482F83E062E09E0159
:101690000E945B0AF80182816F2D0E94F114482F8D
:1016A00084E060E09E010E945B0AF80182816F2D58
:1016B0000E94F114482F84E061E09E010E945B0AC1
:1016C000F80183816F2D0E94F114482F80E066E0BD
:1016D0009E010E945B0AF80183816F2D0E94F11424
:1016E000482F80E067E09E010E945B0AF801838139
:1016F0006F2D0E94F114482F81E065E09E010E9449
:101700005B0AF80183816F2D0E94F114482F81E05C
:1017100066E09E010E945B0AF80183816F2D0E94A2
:10172000F114482F82E064E09E010E945B0AF801F8
:1017300083816F2D0E94F114482F82E065E09E01A5
:101740000E945B0AF80183816F2D0E94F114482FDB
:1017500083E063E09E010E945B0AF80183816F2DA4
:101760000E94F114482F83E064E09E010E945B0A0E
:10177000F80183816F2D0E94F114482F84E062E00C
:101780009E010E945B0AF80183816F2D0E94F11473
:10179000482F84E063E09E010E945B0AF801838188
:1017A0006F2D0E94F114482F85E060E09E010E9499
:1017B0005B0AF80183816F2D0E94F114482F85E0A8
:1017C00061E09E010E945B0AF80183816F2D0E94F7
:1017D000F114482F85E062E09E010E945B0AF80147
:1017E00083816F2D0E94F114482F86E060E09E01F6
:1017F0000E945B0AF80183816F2D0E94F114482F2B
:1018000086E061E09E010E945B0AF80184816F2DF1
:101810000E94F114482F81E067E09E010E945B0A5C
:10182000F80184816F2D0E94F114482F82E066E058
:101830009E010E945B0AF80184816F2D0E94F114C1
:10184000482F82E067E09E010E945B0AF8018481D4
:101850006F2D0E94F114482F83E065E09E010E94E5
:101860005B0AF80184816F2D0E94F114482F83E0F8
:1018700066E09E010E945B0AF80184816F2D0E9440
:10188000F114482F84E064E09E010E945B0AF80195
:1018900084816F2D0E94F114482F84E065E09E0141
:1018A0000E945B0AF80184816F2D0E94F114482F79
:1018B00085E063E09E010E945B0AF80184816F2D40
:1018C0000E94F114482F85E064E09E010E945B0AAB
:1018D000F80184816F2D0E94F114482F86E062E0A8
:1018E0009E010E945B0AF80184816F2D0E94F11411
:1018F000482F86E063E09E010E945B0AF801848124
:101900006F2D0E94F114482F87E060E09E010E9435
:101910005B0AF80184816F2D0E94F114482F87E043
:1019200061E09E010E945B0AF80185816F2D0E9493
:10193000F114482F83E067E09E010E945B0AF801E2
:1019400085816F2D0E94F114482F84E066E09E018E
:101950000E945B0AF80185816F2D0E94F114482FC7
:1019600084E067E09E010E945B0AF80185816F2D8B
:101970000E94F114482F85E065E09E010E945B0AF9
:10198000F80185816F2D0E94F114482F85E066E0F3
:101990009E010E945B0AF80185816F2D0E94F1145F
:1019A000482F86E064E09E010E945B0AF801858171
:1019B0006F2D0E94F114482F86E065E09E010E9481
:1019C0005B0AF80185816F2D0E94F114482F87E092
:1019D00062E09E010E945B0AF80185816F2D0E94E2
:1019E000F114482F87E063E09E010E945B0AF80132
:1019F00085816F2D0E94F114482F87E064E09E01DD
:101A00000E945B0AF80186816F2D0E94F114482F15
:101A100085E067E09E010E945B0AF80186816F2DD8
:101A20000E94F114482F86E066E09E010E945B0A46
:101A3000F80186816F2D0E94F114482F86E067E03F
:101A40009E010E945B0AF80186816F2D0E94F114AD
:101A5000482F87E065E09E010E945B0AF8018681BD
:101A60006F2D0E94F114482F87E066E09E010E94CE
:101A70005B0AF80186816F2D0E94F114482F87E0E0
:101A800067E09E010E945B0ACE010E946E05CE01B6
:101A90000E94AB09DF91CF911F910F91FF900895A4
:101AA0000F931F93CF93DF930E945509EC0110E031
:101AB00012C0CE01612F402F20E00E946809CE01A4
:101AC000612F402F27E00E9468090F5F083089F7D7
:101AD0001F5F1830B1F000E0ECCFCE0160E0412F85
:101AE000202F0E946809CE0168E0412F202F0E941C
:101AF00068090F5F083089F71F5F183019F410E08C
:101B000015C010E000E0E9CFCE01612F40E0202FAA
:101B10000E946809CE01612F48E0202F0E946809C9
:101B20000F5F083089F71F5F183011F000E0ECCF2D
:101B3000CE010E946E0501C0A8950E94C7058230A3
:101B4000D8F3CE010E94A309CE010E94AB15DF910C
:101B5000CF911F910F9108950F931F93CF93DF9310
:101B60000E945509EC0111E012C0CE01612F402FF7
:101B700021E00E946809CE01612F402F26E00E94DB
:101B800068090F5F073089F71F5F1730B1F001E078
:101B9000ECCFCE0161E0412F202F0E946809CE01D9
:101BA00066E0412F202F0E9468090F5F073089F7F8
:101BB0001F5F173019F411E015C011E001E0E9CF03
:101BC000CE01612F41E0202F0E946809CE01612FD4
:101BD00046E0202F0E9468090F5F073089F71F5FDA
:101BE000173011F001E0ECCFCE010E946E0501C06C
:101BF000A8950E94C7058230D8F3CE010E94A309A0
:101C0000CE010E94AB15DF91CF911F910F910895E6
:101C10000F931F93CF93DF930E945509EC0112E0BD
:101C200012C0CE01612F402F22E00E946809CE0130
:101C3000612F402F25E00E9468090F5F063089F769
:101C40001F5F1630B1F002E0ECCFCE0162E0412F11
:101C5000202F0E946809CE0165E0412F202F0E94AD
:101C600068090F5F063089F71F5F163019F412E01C
:101C700015C012E002E0E9CFCE01612F42E0202F33
:101C80000E946809CE01612F45E0202F0E9468095B
:101C90000F5F063089F71F5F163011F002E0ECCFBE
:101CA000CE010E946E0501C0A8950E94C705823032
:101CB000D8F3CE010E94A309CE010E94AB15DF919B
:101CC000CF911F910F910895CF93DF930E945509F3
:101CD000EC0163E043E023E00E946809CE0164E088
:101CE00043E023E00E946809CE0164E044E023E081
:101CF0000E946809CE0164E044E024E00E94680983
:101D0000CE010E946E0501C0A8950E94C7058230D1
:101D1000D8F3CE010E94A309CE010E94AB15DF913A
:101D2000CF910895EF92FF920F931F93DF93CF937C
:101D30000F92CDB7DEB70E9455097C0117E01FC096
:101D4000C701602F432F212F39830E9468093981F1
:101D50003F5F3830A9F70F5F083011F030E0F0CF67
:101D6000C7010E946E0501C0A8950E94C705823078
:101D7000D8F3C7010E94A30911501F3F11F000E0E2
:101D8000EDCFC7010E94AB150F90CF91DF911F914E
:101D90000F91FF90EF900895EF92FF920F931F9392
:101DA000DF93CF930F92CDB7DEB70E9455097C0128
:101DB00010E01FC0C701632F402F212F39830E94DD
:101DC000680939813F5F3830A9F70F5F083011F09B
:101DD00030E0F0CFC7010E946E0501C0A8950E94B7
:101DE000C7058230D8F3C7010E94A3091F5F1830CE
:101DF00011F000E0EDCFC7010E94AB150F90CF911D
:101E0000DF911F910F91FF90EF900895EF92FF9255
:101E10000F931F93DF93CF930F92CDB7DEB70E943E
:101E200055097C0117E01FC0C701612F402F232FE8
:101E300039830E94680939813F5F3830A9F70F5F05
:101E4000083011F030E0F0CFC7010E946E0501C0EC
:101E5000A8950E94C7058230D8F3C7010E94A30944
:101E600011501F3F11F000E0EDCFC7010E94AB15EC
:101E70000F90CF91DF911F910F91FF90EF900895F8
:101E8000EF92FF920F931F93DF93CF930F92CDB7F3
:101E9000DEB70E9455097C0110E01FC0C701612F09
:101EA000402F232F39830E94680939813F5F3830E2
:101EB000A9F70F5F083011F030E0F0CFC7010E94A2
:101EC0006E0501C0A8950E94C7058230D8F3C701EE
:101ED0000E94A3091F5F183011F000E0EDCFC70189
:101EE0000E94AB150F90CF91DF911F910F91FF9042
:101EF000EF900895EF92FF920F931F93DF93CF938C
:101F00000F92CDB7DEB70E9455097C0117E01FC0C4
:101F1000C701602F412F232F39830E94680939811F
:101F20003F5F3830A9F70F5F083011F030E0F0CF95
:101F3000C7010E946E0501C0A8950E94C7058230A6
:101F4000D8F3C7010E94A30911501F3F11F000E010
:101F5000EDCFC7010E94AB150F90CF91DF911F917C
:101F60000F91FF90EF900895EF92FF920F931F93C0
:101F7000DF93CF930F92CDB7DEB70E9455097C0156
:101F800010E01FC0C701602F412F232F39830E940B
:101F9000680939813F5F3830A9F70F5F083011F0C9
:101FA00030E0F0CFC7010E946E0501C0A8950E94E5
:101FB000C7058230D8F3C7010E94A3091F5F1830FC
:101FC00011F000E0EDCFC7010E94AB150F90CF914B
:101FD000DF911F910F91FF90EF9008958AE008958F
:101FE0008A3050F4E82FF0E0EE0FFF1FE259FD4F6A
:101FF0000190F081E02D099508952F923F924F9224
:102000005F926F927F928F929F92AF92BF92CF9288
:10201000DF92EF92FF920F931F93DF93CF93CDB791
:10202000DEB72B970FB6F894DEBF0FBECDBF81E4AD
:1020300090E00E94111589839A832C010E94A308C5
:10204000B22EC32ED42E152F062FF72EE82EA92E32
:1020500082E40E94FB046CC00E94A308A22FAB196B
:10206000F1E02A1708F0F0E0232F2C19E1E03217F5
:1020700008F0E0E0322F3F1BF32F31E02F1708F07C
:1020800030E0E32B342F3D1921E0431708F020E026
:10209000432F4E1BE42F41E03E1708F040E0242B75
:1020A000452F411B31E0541708F030E0542F521BEC
:1020B00021E0451708F020E0322B462F401B21E09D
:1020C000641708F020E0642F631B31E0461708F026
:1020D00030E0232B472F4F1931E0741708F030E020
:1020E000742F721B21E0471708F020E0322B482F95
:1020F0004E1921E0841708F020E0842F831B31E083
:10210000481708F030E0232B9A19921789F4882396
:1021100079F4772369F4662359F4552349F4EE23BF
:1021200039F4FA3028F4F93011F4A53C08F4A895F4
:102130000E949704882309F48FCF0E94A5048B8303
:1021400082E40E94FB04882499243324C201805C29
:102150009F4F9F838E838EC10E94A308E22FEB19AD
:10216000F1E02E1708F0F0E0232F2C19A1E0321730
:1021700008F0A0E0322F3F1BF32F31E02F1708F0BB
:1021800030E0A32B342F3D1921E0431708F020E065
:10219000432F4A1BA1E0341708F0A0E02A2BA52FFB
:1021A000A11B31E05A1708F030E05A2F521B21E0F2
:1021B000A51708F020E0322BB62FB01B21E06B17DB
:1021C00008F020E0AB2FA31B31E0BA1708F030E095
:1021D000232B672F6F1931E0761708F030E0762F48
:1021E000721B21E0671708F020E0322B682F6E1970
:1021F00021E0861708F020E0862F831B31E0681766
:1022000008F030E0232B9A19921789F4882379F487
:10221000772369F4AA2359F4552349F4442339F464
:10222000FA3028F4F93011F4E53C08F4A8950E943E
:102230009704882309F490CF0E94A504282E82E4F5
:102240000E94FB0434010EC10E94A308E22FEB1987
:10225000F1E02E1708F0F0E0A32FAC1921E03A17B7
:1022600008F020E03A2F3F1BF1E0A31708F0F0E060
:102270002F2BA42FAD19F1E04A1708F0F0E04A2FF8
:10228000421B21E0A41708F020E0F22BA52FA11B90
:1022900021E05A1708F020E05A2F5F1BF1E0A51744
:1022A00008F0F0E02F2BA62FA01BF1E06A1708F032
:1022B000F0E06A2F621B21E0A61708F020E0F22B65
:1022C000272F2F19A1E0721708F0A0E0722F7F1BB3
:1022D000F1E0271708F0F0E0AF2BF82FFE1921E00E
:1022E0008F1708F020E08F2F8A1BA1E0F81708F065
:1022F000A0E02A2B9A19921789F4882379F477237E
:1023000069F4662359F4552349F4442339F43A30E7
:1023100028F4393011F4E53C08F4A8950E9497049C
:10232000882309F491CF0E94A504EE81FF81808368
:1023300082E40E94FB0499818A81292F382FC901E8
:10234000805C9F4F9D838C83398728876BC00E9458
:10235000A308E22FEB19F1E02E1708F0F0E0232F8D
:102360002C19A1E0321708F0A0E0322F3F1BF32F09
:1023700031E02F1708F030E0A32B342F3D1921E076
:10238000431708F020E0432F4A1BA1E0341708F060
:10239000A0E02A2BA52FA11B31E05A1708F030E04E
:1023A0005A2F521B21E0A51708F020E0322BB62F40
:1023B000B01B21E06B1708F020E0AB2FA31B31E02E
:1023C000BA1708F030E0232B672F6F1931E076172A
:1023D00008F030E0762F721B21E0671708F020E04C
:1023E000322B682F6E1921E0861708F020E0862F27
:1023F000831B31E0681708F030E0232B9A199217FD
:1024000089F4882379F4772369F4AA2359F45523AE
:1024100049F4442339F4FA3028F4F93011F4E53C56
:1024200008F4A8950E949704882309F490CF0E948D
:10243000A504E885F9858193F987E8872C813D819A
:10244000E217F30779F782E40E94FB0493012F5F00
:102450003F4FC301B2012A873B870E94C4082A85E7
:102460003B853901862D8819821508F457CF820CD7
:10247000911C33943B81331608F4D9CEC2010E94DB
:10248000AB156CC00E94A308A22FAB19F1E02A176C
:1024900008F0F0E0232F2C19E1E0321708F0E0E01B
:1024A000322F3F1BF32F31E02F1708F030E0E32BE2
:1024B000342F3D1921E0431708F020E0432F4E1B35
:1024C000E42F41E03E1708F040E0242B452F411B4C
:1024D00031E0541708F030E0542F521B21E045172B
:1024E00008F020E0322B462F401B21E0641708F053
:1024F00020E0642F631B31E0461708F030E0232B07
:10250000472F4F1931E0741708F030E0742F721B19
:1025100021E0471708F020E0322B482F4E1921E028
:10252000841708F020E0842F831B31E0481708F05F
:1025300030E0232B9A19921789F4882379F47723B2
:1025400069F4662359F4552349F4EE2339F4FA303B
:1025500028F4F93011F4A53C08F4A8950E949704DA
:10256000882309F48FCF0E94A5046CC00E94A308A1
:10257000A22FAB19F1E02A1708F0F0E0232F2C1955
:10258000E1E0321708F0E0E0322F3F1BF32F31E09B
:102590002F1708F030E0E32B342F3D1921E04317CB
:1025A00008F020E0432F4E1BE42F41E03E1708F0D7
:1025B00040E0242B452F411B31E0541708F030E058
:1025C000542F521B21E0451708F020E0322B462FF4
:1025D000401B21E0641708F020E0642F631B31E00A
:1025E000461708F030E0232B472F4F1931E07417BE
:1025F00008F030E0742F721B21E0471708F020E04C
:10260000322B482F4E1921E0841708F020E0842F48
:10261000831B31E0481708F030E0232B9A199217FA
:1026200089F4882379F4772369F4662359F45523D0
:1026300049F4EE2339F4FA3028F4F93011F4A53CCA
:1026400008F4A8950E949704882309F48FCF0E946C
:10265000A5046CC00E94A308A22FAB19F1E02A17B1
:1026600008F0F0E0232F2C19E1E0321708F0E0E049
:10267000322F3F1BF32F31E02F1708F030E0E32B10
:10268000342F3D1921E0431708F020E0432F4E1B63
:10269000E42F41E03E1708F040E0242B452F411B7A
:1026A00031E0541708F030E0542F521B21E0451759
:1026B00008F020E0322B462F401B21E0641708F081
:1026C00020E0642F631B31E0461708F030E0232B35
:1026D000472F4F1931E0741708F030E0742F721B48
:1026E00021E0471708F020E0322B482F4E1921E057
:1026F000841708F020E0842F831B31E0481708F08E
:1027000030E0232B9A19921789F4882379F47723E0
:1027100069F4662359F4552349F4EE2339F4FA3069
:1027200028F4F93011F4A53C08F4A8950E94970408
:10273000882309F48FCF0E94A5046CC00E94A308CF
:10274000A22FAB19F1E02A1708F0F0E0232F2C1983
:10275000E1E0321708F0E0E0322F3F1BF32F31E0C9
:102760002F1708F030E0E32B342F3D1921E04317F9
:1027700008F020E0432F4E1BE42F41E03E1708F005
:1027800040E0242B452F411B31E0541708F030E086
:10279000542F521B21E0451708F020E0322B462F22
:1027A000401B21E0641708F020E0642F631B31E038
:1027B000461708F030E0232B472F4F1931E07417EC
:1027C00008F030E0742F721B21E0471708F020E07A
:1027D000322B482F4E1921E0841708F020E0842F77
:1027E000831B31E0481708F030E0232B9A19921729
:1027F00089F4882379F4772369F4662359F45523FF
:1028000049F4EE2339F4FA3028F4F93011F4A53CF8
:1028100008F4A8950E949704882309F48FCF0E949A
:10282000A50482E40E94FB04C4010E94100981E017
:10283000809360002B960FB6F894DEBF0FBECDBF1D
:10284000CF91DF911F910F91FF90EF90DF90CF908C
:10285000BF90AF909F908F907F906F905F904F90C0
:102860003F902F9008956F927F928F929F92AF9298
:10287000BF92CF92DF92EF92FF920F931F93CF936D
:10288000DF930E94F4086C016FEF70E00E94FD146A
:10289000009711F4862E02C0862E839482E40E9453
:1028A000FB04882D0E94FB040E94A504823409F0D9
:1028B00058C000E010E041C08FEFC816D10409F005
:1028C00010F49C2C02C099249A94892D0E94FB0438
:1028D0000E94A504823409F044C0780126C0C701D3
:1028E0000E94B408EC01FC01E05CFF4F80810E9473
:1028F000FB040E94A504823489F45E0180E4682E02
:10290000F50181915F010E94FB046A94C9F70E945E
:10291000A5040894E11CF11C823421F0CE010E9430
:10292000AB151FC0CE010E94AB158E2D87198915DE
:10293000B0F2C918D10801501F4F702E802F819519
:10294000881508F4B9CF82E40E94FB0482E40E9457
:10295000FB0482E40E94FB0482E40E94FB040E94C8
:10296000A504DF91CF911F910F91FF90EF90DF9021
:10297000CF90BF90AF909F908F907F906F90089571
:102980001F93CF93DF930E941708EC01009731F457
:1029900085E10E943E090E943B051FC086E10E941E
:1029A0003E090E943B0510E3812F0E94FB0482E850
:1029B00092E00E943B05899190E061E373E04AE078
:1029C00050E00E944B1681E393E00E943B058AE0B1
:1029D0000E94FB041F5F173339F7DF91CF911F91DE
:1029E0000895991B79E004C0991F961708F0961B6B
:1029F000881F7A95C9F780950895AA1BBB1B51E1E2
:102A000007C0AA1FBB1FA617B70710F0A61BB70B5E
:102A1000881F991F5A95A9F780959095BC01CD0103
:102A20000895CF93DF938230910510F482E090E017
:102A3000E0916F03F091700340E050E020E030E05F
:102A400026C06081718168177907E0F068177907FF
:102A500081F4828193812115310531F0D9011396DA
:102A60009C938E9312972BC09093700380936F0367
:102A700026C04115510519F06417750718F4AB010C
:102A8000E901DF019F0172816381E72FF62F309703
:102A9000C1F64115510501F1481B590B4430510550
:102AA00080F412968D919C911397209719F09B8337
:102AB0008A8304C09093700380936F03FD01329664
:102AC00046C0FD01E40FF51F8193919342505040A1
:102AD00011965C934E933BC020916D0330916E0331
:102AE0002115310541F420918702309188023093FD
:102AF0006E0320936D032091890230918A02211583
:102B0000310541F42DB73EB74091850250918602C0
:102B1000241B350BE0916D03F0916E03E217F30770
:102B2000A0F42E1B3F0B2817390778F0AC014E5F3D
:102B30005F4F2417350748F04E0F5F1F50936E0309
:102B400040936D038193919302C0E0E0F0E0CF01E8
:102B5000DF91CF910895CF93DF93009709F491C04F
:102B6000FC0132971382128260916F03709170039F
:102B70006115710581F420813181280F391F809101
:102B80006D0390916E038217930799F5F0936E038E
:102B9000E0936D0376C0DB0180E090E002C0CD01E0
:102BA000D901AE17BF0748F412962D913C911397A7
:102BB00021153105A1F7CD0121C0B383A283EF0117
:102BC000499159919E01240F351FA217B30779F43B
:102BD0002D913C911197240F351F2E5F3F4F31836C
:102BE000208312962D913C91139733832283009773
:102BF00029F4F0937003E0936F0343C0DC01139654
:102C0000FC93EE9312974D915D91A40FB51FEA17B7
:102C1000FB0769F420813181240F351F2E5F3F4F60
:102C2000EC0139832883228133813B832A83E0E0CE
:102C3000F0E002C0FB01BC01DB0112968D919C917A
:102C400013970097B9F79B012E5F3F4F8D919C9191
:102C50001197820F931F40916D0350916E03481797
:102C6000590779F4309729F41092700310926F038A
:102C700002C0138212822250304030936E032093A0
:102C80006D03DF91CF910895FB01DC0105900D925A
:102C90000020E1F70895FB019F01E8944230C4F061
:102CA0004532B4F44A3029F497FB1EF4909581958F
:102CB0009F4F642F77270E94FD14805D8A330CF0AC
:102CC000895D8193CB010097A1F716F45DE25193E2
:102CD0001082C9010C946C16DC01FC01672F719104
:102CE0007723E1F7329704C07C916D9370836291F2
:0C2CF000AE17BF07C8F30895F894FFCF9B
:102CFC0001FFFFFFFFFFFFFFFFFF818181818181CA
:102D0C00FFFF818181818181FFFF818181818181AF
:102D1C00FFFF818181818181FFFF8181818181819F
:102D2C00FFFF818181818181FFFFFFFFFFFFFFFF9B
:102D3C00FFFF010101FF8080FFFF010101FF808087
:102D4C00FFFF010101FF8080FFFF010101FF808077
:102D5C00FFFF010101FF8080FFFF010101FF808067
:102D6C00FFFF010101FF8080FFFF010101FF808057
:102D7C00FF7E818181FF8181817E818181FF8181C3
:102D8C00817E818181FF8181817E818181FF818131
:102D9C00817E818181FF8181817E818181FF818121
:102DAC00817E818181FF8181817E818181FF818111
:102DBC00811E4242421E0202021E4242421E020278
:102DCC00021E4242421E0202021E4242421E0202E7
:102DDC00021E4242421E0202021E4242421E0202D7
:102DEC00021E4242421E0202021E4242421E0202C7
:102DFC0002A100E100210101004080C0105090D0E0
:102E0C002060A0E03070B0F0044484C4145494D416
:102E1C002464A4E43474B4F4084888C8185898D8C6
:102E2C002868A8E83878B8F80C4C8CCC1C5C9CDC76
:102E3C002C6CACEC3C7CBCFC014181C1115191D19E
:102E4C002161A1E13171B1F1054585C5155595D5C6
:102E5C002565A5E53575B5F5094989C9195999D976
:102E6C002969A9E93979B9F90D4D8DCD1D5D9DDD26
:102E7C002D6DADED3D7DBDFD024282C2125292D24E
:102E8C002262A2E23272B2F2064686C6165696D676
:102E9C002666A6E63676B6F60A4A8ACA1A5A9ADA26
:102EAC002A6AAAEA3A7ABAFA0E4E8ECE1E5E9EDED6
:102EBC002E6EAEEE3E7EBEFE034383C3135393D3FE
:102ECC002363A3E33373B3F3074787C7175797D726
:102EDC002767A7E73777B7F70B4B8BCB1B5B9BDBD6
:102EEC002B6BABEB3B7BBBFB0F4F8FCF1F5F9FDF86
:102EFC002F6FAFEF3F7FBFFF230AFB09770AB40F99
:102F0C007A0F400F060FCC0E920E640E080EAC0D0D
:0C2F1C00500D3A2000200071030000005E
:00000001FF
