:100000000C9432020C944F020C944F020C944F0249
:100010000C944F020C944F020C944F020C94FC066B
:100020000C944F020C944F020C94DC090C944F0278
:100030000C944F020C9492050C94C1050C944F0241
:100040000C944F020C944F020C944F020C944F02EC
:100050000C944F02F003F203FE03F6034F044F0427
:100060004F044F044F044F044F044F044F044F04F8
:100070004F045C034F04BD035A03C0038603ED0322
:100080004F0491035C0343044F044F044F0499034E
:1000900052044F044F04B203B7039403BA034F044E
:1000A00097034F04CC03E7034F044F044F044F045E
:1000B0004F044F044F04BD034F04C0038603ED03F8
:1000C0004F0491035C0343044F044F044F0499030E
:1000D00052044F044F04B203B7039403BA034F040E
:1000E00097034F04CC03E70376322E350A0053659D
:1000F0006C662D54657374204572726F723A2030AD
:100100006200496E697469616C697A65643A2000BD
:10011000203D3E204E6F20616E73776572206672BF
:100120006F6D20417564696F210A00203D3E204EAD
:100130006F20616E737765722066726F6D204D65FA
:100140006D6F7279210A00203D3E2043616E277455
:1001500020777269746520746F204D656D6F7279B8
:10016000210A00286429656C6574652C202867299C
:10017000657420616E696D732C2028732965742065
:10018000616E696D732C20287629657273696F6EB4
:100190000A00287429696D652C2028612975646915
:1001A0006F2C202863296F756E742C2028782943C2
:1001B0007573746F6D20636F756E740A00287929EA
:1001C00053657420666978656420616E696D617439
:1001D000696F6E20636F756E740A00532865296C11
:1001E0006620546573742C20286D296F64650A009D
:1001F000506C61792053286E29616B650A00416C4F
:100200006C204C454473204F66662F4F6E2028307B
:100210002F31290A002832293A205465737420416D
:100220006E696D2E20310A002833293A20416C6C0A
:100230002053757266616365204C454473206F6E70
:100240000A0053797374656D2054696D653A200016
:10025000204672616D65732073746F7265640A0065
:1002600053656E64206120627974652E2E2E200005
:10027000207772697474656E210A00416E696D6140
:1002800074696F6E20636F756E74206E6F7720389F
:10029000373035210A0053656C662D546573743A06
:1002A000203062004B696C6C656420416E696D6141
:1002B00074696F6E20436F756E746572210A004316
:1002C0006F756C64206E6F74206163636573732057
:1002D000646576696365210A00417564696F20442D
:1002E0006174613A0A00436F6E74726F6C733A20E6
:1002F00057204120532044205120452C2078207441
:100300006F20717569740A0052616E206F757420D8
:100310006F662048656170210A00416E696D6174E5
:10032000696F6E2061626F72746564210A002869CA
:10033000296E7465727275707420636F756E742C9B
:1003400020287229616E646F6D2C202871297265D6
:100350007365740A0020496E7465727275707473E7
:1003600020616674657220313030306D7365630AC8
:1003700000204672616D657320706572205365635D
:100380006F6E640A004D656D6F72792064656C65EF
:10039000746564210A00526573657420696E2035A6
:1003A00030306D732E20427965210A000000000074
:1003B00000005961792120416E6F74686572206D6B
:1003C000696E75746520706173736564203A290ADB
:1003D00000000043756265206D6F646520656E7472
:1003E00065726564210A00417564696F206D6F64F0
:1003F0006520656E7465726564210A00E800EE0090
:10040000020110012B01470163019201BD01DB01D3
:10041000F001FE0115022802420250026002700241
:100420007B029602A402BF02D902E60208031A0365
:100430002E035503710385039603AC03AD03AE038E
:10044000AF03B003B103B203D103D203D303E70375
:10045000537472696E67206E6F7420666F756E6478
:10046000210A000011241FBECFE5D8E0DEBFCDBFBA
:1004700012E0A0E6B0E0E2ECFCE402C005900D92D0
:10048000A63CB107D9F713E0A6ECB2E001C01D927B
:10049000AD3AB107E1F70E945B040C945F260C941F
:1004A00000008FEF8ABB8CEF81BB98E197BB84BBC8
:1004B00087B3866087BBB8980E940B0889E190E0FB
:1004C00068E040E021E00E9404060E9454080E9477
:1004D000D309789480E690E00E94AD070895B09922
:1004E00011C04091C802242F30E08091A00090E01C
:1004F00001972817390724F44F5F4093C80202C0C0
:100500001092C8028091C8020895CF93DF930E9491
:10051000B509C1E0009709F0C0E060E070E0CB01F0
:1005200041E00E94F108009711F4C26002C00E94ED
:10053000EB2480E063E20E94BF0A80E00E94CD0AC3
:10054000833211F0C46002C0CC2341F181E00E94EB
:10055000DC0A0E94DA06DC2F8C2F90E06DE673E057
:1005600042E050E00E94DF250E94DA068AE00E9405
:100570009A06C0FF05C083E00E94DC0A0E94DA06EA
:10058000D1FF05C084E00E94DC0A0E94DA06D2FF97
:1005900005C085E00E94DC0A0E94DA068C2FDF91FC
:1005A000CF910895AF92BF92CF92DF92EF92FF92D8
:1005B0000F931F93CF93DF9380E490E00E94512428
:1005C000C82FD92F209731F488E10E94DC0A0E94BD
:1005D000DA064EC0E82FF92FCF01805C9F4F1192B1
:1005E000E817F907E1F700E010E191E0C92ED12CFE
:1005F000A895CE010E94AD070E9407088823E1F369
:100600000E94C8255C010E94C8257C010E94C82563
:100610009C01C701B8010E94C623E62FF0E083E0E9
:10062000EE0FFF1F8A95E1F7C501B8010E94C623AE
:10063000E60FF11DEC0FFD1FC901B8010E94C62392
:10064000C60102C0880F991F6A95E2F7BC0180813C
:10065000862780830E943606882351F289E10E9412
:10066000DC0A0E94DA06CE010E94EB240E944406B6
:10067000DF91CF911F910F91FF90EF90DF90CF907E
:10068000BF90AF900895CF92DF92EF92FF920F93B9
:100690001F93CF93DF9390E0C0978A34910508F0C1
:1006A000FEC0865D9F4FFC01EE0FFF1F0590F49189
:1006B000E02D099482E4F4C086E00E94DC0A0E94E6
:1006C000DA0687E00E94DC0A0E94DA0688E00E94CF
:1006D000DC0A0E94DA0689E00E94DC0A0E94DA063F
:1006E0008AE00E94DC0A0E94DA068BE00E94DC0AA3
:1006F0000E94DA068CE00E94DC0A0E94DA068DE095
:100700000E94DC0A0E94DA068AE1B8C080E090E02C
:100710000E94AE0A82E40E949A0681E08093C7029A
:10072000C1C00E94DA15BEC00E946611BBC080E045
:10073000A5C04091C802242F30E08091A00090E035
:1007400001972817390724F44F5F4093C80202C06D
:100750001092C8028091C802882311F089E28EC0ED
:1007600088E28CC081E08093C6028EE187C00E943F
:10077000D20298C00E94981695C00E94671692C037
:100780000E94920A6DE673E04AE050E00E94DF2585
:100790000E94DA068FE072C080E10E94DC0A0E94AB
:1007A000DA060E9436068823E1F30E944406C82F29
:1007B00090E00E94AE0A8C2F90E06DE673E04AE074
:1007C00050E00E94DF250E94DA0681E157C081E0F7
:1007D00092E20E94AE0A82E151C00E94850262C08C
:1007E00080E001C08FEF0E94DF0704C080E690E048
:1007F0000E94AD0781E08093CB0254C080E00E944C
:10080000DF07DD2441E0E42EF12C29C0188200E04E
:1008100010E0C701002E02C0880F991F0A94E2F76A
:100820002881282B288380E690E00E94AD0705C030
:10083000A8950E9436068823F1F40E9407088823B1
:10084000B9F30F5F1F4F0830110519F7CA942196AD
:10085000CC20E1F6D394FD2DF83008F0DD24CD2D29
:10086000D0E033E0CC0FDD1F3A95E1F7C05ADF4FFF
:1008700028E0C22ECBCF0E94440689E10E94DC0A08
:100880000E94DA060FC00E949C074DE653E02AE062
:1008900030E00E9400260E94DA068AE001C083E26E
:1008A0000E949A06DF91CF911F910F91FF90EF90D8
:1008B000DF90CF9008955F926F927F928F929F9278
:1008C000AF92BF92CF92DF92EF92FF920F931F935E
:1008D000CF93DF9314BE88E10FB6F89481BD11BCAD
:1008E0000FBE0E9451022EE088E190E00FB6F8940E
:1008F000A89581BD0FBE21BD0E948502582E90E0B3
:1009000080FF03C021E02093C90286709070009799
:1009100019F081E08093CA0280E00E94DC0A0E9404
:10092000DA060E946F020E94410A722E8091CA026A
:10093000882321F40E94920A682E01C066240E9436
:10094000060FC82F8091C902882329F40E94510BF9
:100950008F5F8093A00010E000E0D0E021978091AD
:10096000C602882309F4A8958091C702882349F01C
:100970001092C7028091CA02882319F40E94920A39
:10098000682E0E943606882321F00E9444060E94A9
:1009900043030E94410A9924AA24BB24CC24DD24C9
:1009A0007601F22FF719A1E02F1708F0A0E0232F0E
:1009B0002919E1E0321708F0E0E0322F3A1BA32FAB
:1009C00031E02A1708F030E0E32B342F3A1921E008
:1009D000431708F020E0432F4E1BE42F41E03E1761
:1009E00008F040E0242B452F4B1931E0541708F054
:1009F00030E0542F521B21E0451708F020E0322B45
:100A0000462F4C1921E0641708F020E0642F631B87
:100A100031E0461708F030E0232B472F4D1931E025
:100A2000741708F030E0742F721B21E0471708F0AC
:100A300020E0322B482F4E1921E0841708F020E0E7
:100A4000842F831B31E0481708F030E0232B9F19D7
:100A5000921771F4882361F4772351F4662341F4EB
:100A6000552331F4EE2321F4AA2311F4F63928F0AA
:100A70000E946F020E94410A722E8091C802882350
:100A800099F58091CB02882309F069CF6620D1F0D7
:100A90008091CA028823B1F40E940708181708F051
:100AA0005ECF852D90E00E94520A4C01009789F19B
:100AB000FC01E05CFF4F10810E94AD07C4010E9461
:100AC000EB244DCF0E940708181708F048CF802F5D
:100AD00090E08C179D0714F40F5F01C000E0802F99
:100AE0000E944211182F3BCF8091C9028823B9F48C
:100AF0000E940708882309F432CF0E94B5090097A5
:100B000031F06091C80261500E94530B28CF1092BF
:100B1000C80280E690E00E94AD0718E120CF109255
:100B2000C8021DCF1F920F920FB60F9211248F9300
:100B30009F93EF93FF93E091CE02F091CF028CB19F
:100B4000EA51FD4F80838091CE029091CF028F3188
:100B5000910550F48091CE029091CF02019690932E
:100B6000CF028093CE0204C01092CF021092CE0228
:100B7000FF91EF919F918F910F900FBE0F901F905B
:100B800018951F920F920FB60F9211242F933F9337
:100B90008F939F93EF93FF932091D0023091D102D6
:100BA0008091D2029091D30228173907F1F0E09199
:100BB000D002F091D102EA5FFC4F80818CB9809124
:100BC000D0029091D1028F31910550F48091D002E2
:100BD0009091D10201969093D1028093D00209C0E6
:100BE0001092D1021092D00204C081E08093A10043
:100BF0005598FF91EF919F918F913F912F910F9079
:100C00000FBE0F901F901895433060F5362F35506A
:100C1000343040F5322F3150323030F5442341F03A
:100C200030B5306230BD423019F430B5306130BD7E
:100C3000223019F420B5286020BD653061F066309F
:100C400011F0683029F420B5226020BD663019F01B
:100C500020B5246020BD90BD89B98AB188698AB960
:100C600080E0089581E0089581E008954091CC02EC
:100C70005091CD022091CE023091CF0281E04217F7
:100C8000530709F480E008952091CC023091CD0201
:100C90008091CE029091CF022817390729F1E09177
:100CA000CC02F091CD02EA51FD4F8081E091CC025F
:100CB000F091CD02EA51FD4F10822091CC0230918B
:100CC000CD022F31310558F42091CC023091CD0264
:100CD0002F5F3F4F3093CD022093CC0208951092A6
:100CE000CD021092CC02089580E008958091D20246
:100CF0009091D3022091D0023091D10201968217B7
:100D0000930791F08091D0029091D102009779F4ED
:100D10002091D2023091D30281E090E02F31310551
:100D200041F080E090E0089581E090E0089580E057
:100D300090E008952091D2023091D3024091D002E8
:100D40005091D1022F5F3F4F2417350799F320911F
:100D5000D0023091D1022115310539F42091D2020F
:100D60003091D3022F31310529F3E091D202F09175
:100D7000D302EA5FFC4F80838091D2029091D3022C
:100D80008F31910550F48091D2029091D302019657
:100D90009093D3028093D20204C01092D302109297
:100DA000D2028091A100813021F41092A100559AC5
:100DB0005D9A0895CF93DF93C82FD92F02C00E9468
:100DC0009A0689918823D9F7DF91CF9108951AB8AF
:100DD00010BC10BC19B81092CD021092CC02109227
:100DE000D1021092D0021092CF021092CE02109235
:100DF000D3021092D20208951F920F920FB60F9253
:100E000011242F933F934F935F936F937F938F930F
:100E10009F93AF93BF93EF93FF938091D7028091FD
:100E2000D402882321F01092D6021092D40212BA72
:100E300088B3877E88BB80E090E021E030E0E091DD
:100E4000D602F0E043E0EE0FFF1F4A95E1F7E80F0E
:100E5000F91FEA5DFC4F708145B3437045BB48B351
:100E6000497F48BB823058F065B3A901082E02C003
:100E7000440F551F0A94E2F7642B65BB0CC068B39E
:100E8000AC014F5F5F4FF90102C0EE0FFF1F4A95A3
:100E9000E2F76E2B68BB7BBB0000019688309105A2
:100EA00071F62091D60281E090E002C0880F991F70
:100EB0002A95E2F7982F9C7F92BB98B3880F880FF2
:100EC000880F8871977E892B88BB8091D6028730E6
:100ED00030F48091D6028F5F8093D60207C01092C3
:100EE000D6028091D5028F5F8093D5021092D702EF
:100EF0008091D8029091D902A091DA02B091DB02E0
:100F00000196A11DB11D8093D8029093D902A093A0
:100F1000DA02B093DB02FF91EF91BF91AF919F9105
:100F20008F917F916F915F914F913F912F910F9092
:100F30000FBE0F901F9018952091D8023091D902C2
:100F40004091DA025091DB02B901CA010895E2EA48
:100F5000F0E0E80FF11D808108957FB7F89421E05B
:100F60002093D4021092D5021092D702482F592F05
:100F700087E090E01EC0ED91F0E0EE55FF4F6081FC
:100F80006095F901EE0FFF1FEE0FFF1FEE0FFF1F21
:100F9000E80FF91FEA5DFC4F60832F5F3F4F283059
:100FA000310549F7485F5F4F01972FEF8F3F920759
:100FB00021F0DA0120E030E0DECF7FBF08959FB757
:100FC000F89421E02093D4021092D5021092D70217
:100FD00020E030E0809510C0FB01E40FF51FEA5DD2
:100FE000FC4F80834F5F5F4F48305105A9F72F5F5B
:100FF0003F4F2830310549F040E050E0B901E3E0CF
:10100000660F771FEA95E1F7E7CF9FBF08958091BC
:10101000D502869508958EB589608EBD82EC92EAE0
:101020009BBD8ABD80E189BF80E00E94DF07789484
:1010300080E090E061E01DC07FB7F894FA01E20F14
:10104000F31FEA5DFC4FA08110826093D4021092DE
:10105000D5021092D7027FBF7091D5027723E1F3BA
:101060002F5F3F4F2830310539F7019688309105C1
:1010700049F020E030E0AC01F3E0440F551FFA9551
:10108000E1F7DACFF8941092D8021092D9021092B8
:10109000DA021092DB021092D5021092D702089564
:1010A00089B78F7E89BF089511B88CE080B9089503
:1010B00094EA96BF06B607FEFDCF91B1987F9830AF
:1010C00011F0903179F483B984E886BF06B607FE43
:1010D000FDCF91B1987F983139F081E0903429F4B7
:1010E00080E0089581E0089580E0089544EA34E8BE
:1010F00024E946BF06B607FEFDCF91B1987F983030
:1011000011F09031B1F783B936BF06B607FEFDCFB7
:1011100091B1987F903211F0983529F426BF06B628
:1011200004FCFDCFE6CF08950E945808089584E995
:1011300086BF06B604FCFDCF089583B984E886BF58
:1011400006B607FEFDCF91B1987F81E0983209F491
:1011500080E0089584EC86BF06B607FEFDCF83B11C
:10116000089584E886BF06B607FEFDCF83B10895D3
:10117000DF92EF92FF920F931F93DF93CF930F9223
:10118000CDB7DEB77B018C0180E0E81680E0F80681
:1011900081E0080780E0180718F490EAD92E02C011
:1011A00082EAD82E8D2D0E945808882381F40E944F
:1011B0009D088E2D0E949D088D2D81600E949408AF
:1011C0000E94B10889830E949708898101C080E04C
:1011D0000F90CF91DF911F910F91FF90EF90DF90D3
:1011E00008958F929F92AF92BF92CF92DF92EF922B
:1011F000FF920F931F93CF93DF934B015C0180E02D
:10120000881680E0980681E0A80680E0B80618F409
:1012100030EAE32E02C022EAE22E042F10E0C801D9
:101220000E945124EC016C01009731F488E10E9486
:10123000DC0A0E94DA062BC08E2D0E9458088823F3
:1012400021F50E949D08882D0E949D088E2D8160A9
:101250000E949408BB24480108948108910807C0A3
:101260000E94AA08FE01EE0DFF1D8083B394EB2CB3
:10127000FF24E814F904A4F30E94B108C00FD11FA1
:10128000219788830E94970802C0CC24DD24C601E0
:10129000DF91CF911F910F91FF90EF90DF90CF9052
:1012A000BF90AF909F908F900895EF92FF920F9311
:1012B0001F93CF937B018C01C42F80E0E81680E060
:1012C000F80681E0080780E0180710F480EA01C002
:1012D00082EA0E945808882351F40E949D088E2DAE
:1012E0000E949D088C2F0E949D080E949708CF9114
:1012F0001F910F91FF90EF900895CF92DF92EF92A0
:10130000FF920F931F93CF93DF937B018C01D42E19
:10131000C52FC22E80E0E81680E0F80681E00807BD
:1013200080E0180710F480EA01C082EA0E945808A1
:10133000882391F40E949D088E2D0E949D088C2F79
:10134000CD2DD82F03C089910E949D088C2F8D1917
:101350008C15C8F30E949708DF91CF911F910F91D0
:10136000FF90EF90DF90CF900895CF93DF9383E4C9
:101370000E945808882389F4C6E6D3E00E94AA0890
:10138000899383E0CC36D807C9F70E94B1088093CF
:101390006C030E949708269702C0C0E0D0E0CE01FF
:1013A000DF91CF91089583B78B6083BF8AEF8CBFA5
:1013B00089B7826089BF08951F920F920FB60F926E
:1013C00011242F933F934F935F936F937F938F934A
:1013D0009F93AF93EF93FF934091DD023091DE0234
:1013E0002091DF029091E0028091E102F091E2020F
:1013F000E091E302A091E402642F6F5F51E0641773
:1014000008F050E0530F41E0531708F040E0420F5E
:1014100031E0421708F030E0390F21E0391708F0C9
:1014200020E0280F91E0281708F090E09F0F81E05E
:101430009F1708F080E08E0F71E08E1708F070E0C3
:101440007A0F6093DD025093DE024093DF02309307
:10145000E0022093E1029093E2028093E302709312
:10146000E402FF91EF91AF919F918F917F916F91E6
:101470005F914F913F912F910F900FBE0F901F9052
:1014800018952091DD023091DE024091DF025091EB
:10149000E0026091E1027091E2028091E30290919A
:1014A000E4020895BC0126E0660F771F2A95E1F754
:1014B000680F791F605E7F4F80E090E041E40E94FA
:1014C000F1080895AB01BC0136E0660F771F3A952D
:1014D000E1F7680F791F605E7F4F80E090E021E4C4
:1014E0000E947D090895EF92FF920F931F93EE24BF
:1014F000FF248701C801B70140E00E945509089404
:10150000E11CF11C011D111D80E0E81680E0F806C9
:1015100082E0080780E0180769F71F910F91FF909C
:10152000EF900895CF9360E070E0CB010E94B8087F
:10153000C82F61E070E080E090E00E94B8082C2F96
:1015400030E0582F40E0242B352B87E0213E380730
:1015500010F020EE37E0C901CF910895CF93482FC6
:10156000C92F60E070E0CB010E94550961E070E096
:1015700080E090E04C2F0E945509CF910895462FAE
:101580008E3150F490E002969C01B901882777FDD6
:101590008095982F0E94550908958E3158F4682F30
:1015A00070E06E5F7F4F882777FD8095982F0E94AF
:1015B000B808089580E008958A3248F4E82FF0E0F2
:1015C000EE0FFF1FE450FC4F2591349104C0E0E57D
:1015D000F4E0259134918DE693E0B9010E94D8257D
:1015E0008DE693E0089580E490E00E9451249C01F0
:1015F000009731F488E10E94DC0A0E94DA06FFCFEE
:10160000E82FF92FCF01805C9F4F1192E817F9075F
:10161000E1F7C9010895A7E0B0E0FD01E41BF1097D
:10162000AD01421B51099A0143E0220F331F4A9535
:10163000E1F7E20FF31FE80FF91F81E090E002C02D
:10164000880F991F6A95E2F72081282B208308953F
:10165000A7E0B0E0FD01E41BF109AD01421B510917
:101660009A0153E0220F331F5A95E1F7E20FF31F5F
:10167000E80FF91F81E090E002C0880F991F6A957A
:10168000E2F780959081982390830895282F392F31
:10169000F90180E411928150E9F708950E94EB244A
:1016A000089583E00895633050F4E62FF0E0EE0FE4
:1016B000FF1FEE55FE4F0190F081E02D0995089532
:1016C0005F926F927F928F929F92AF92BF92CF92D2
:1016D000DF92EF92FF920F931F93CF93DF93D82E59
:1016E0005B01942E0D2D192FFF244FE1542E3FE066
:1016F000632E712CF80181918F01652D0E94A62324
:10170000882EC0E0D0E0EE24CE2ECD1814C0FF20ED
:1017100051F4CE01B3010E94C623462FC50160E0FB
:10172000292D0E940B0BC5016C2D4E2D292D0E94D9
:101730000B0BE3942A96E81450F3F394FF2DF73043
:10174000C9F6DF91CF911F910F91FF90EF90DF903D
:10175000CF90BF90AF909F908F907F906F905F9051
:101760000895EF92FF920F931F93DF93CF930F9201
:10177000CDB7DEB78C010E94F30A7C010E94460BB4
:1017800020E0C801B701422F29830E94600B298104
:101790002F5F2830B1F7C7010E94AD07C7010E9433
:1017A0004E0B0F90CF91DF911F910F91FF90EF9013
:1017B00008950F931F93CF93DF938C010E94F30A38
:1017C000EC010E94460BC801BE0147E00E94600B7D
:1017D000CE010E94AD07CE010E944E0BDF91CF914A
:1017E0001F910F910895F901A7E0B0E09D01261B1C
:1017F0003109BD01641B7109AB0163E0440F551F42
:101800006A95E1F7240F351FE20FF31F21E030E066
:1018100002C0220F331F8A95E2F78081822B8083DA
:101820000895EF92FF920F931F93CF93DF93E82ECB
:10183000F62E042FE90110E007C08E2D612F4F2DE9
:101840009E010E94F30B1F5F1017B8F3DF91CF9139
:101850001F910F91FF90EF900895FF920F931F93A8
:10186000CF93DF938C010E94F30AEC010E94460B98
:10187000F80180817FE1F72E6F2D0E94A623482F6B
:1018800080E060E09E010E94110CF80180816F2DC4
:101890000E94A623482F80E061E09E010E94110C67
:1018A000F80180816F2D0E94A623482F81E060E01F
:1018B0009E010E94110CF80181816F2D0E94A623C8
:1018C000482F80E062E09E010E94110CF8018181A6
:1018D0006F2D0E94A623482F80E063E09E010E94A6
:1018E000110CF80181816F2D0E94A623482F81E001
:1018F00061E09E010E94110CF80181816F2D0E9410
:10190000A623482F81E062E09E010E94110CF8019D
:1019100081816F2D0E94A623482F82E060E09E0106
:101920000E94110CF80181816F2D0E94A623482F7F
:1019300082E061E09E010E94110CF80182816F2D0E
:101940000E94A623482F80E064E09E010E94110CB3
:10195000F80182816F2D0E94A623482F80E065E068
:101960009E010E94110CF80182816F2D0E94A62316
:10197000482F81E063E09E010E94110CF8018281F2
:101980006F2D0E94A623482F81E064E09E010E94F3
:10199000110CF80182816F2D0E94A623482F82E04E
:1019A00062E09E010E94110CF80182816F2D0E945D
:1019B000A623482F82E063E09E010E94110CF801EB
:1019C00082816F2D0E94A623482F83E060E09E0154
:1019D0000E94110CF80182816F2D0E94A623482FCE
:1019E00083E061E09E010E94110CF80182816F2D5D
:1019F0000E94A623482F83E062E09E010E94110C02
:101A0000F80182816F2D0E94A623482F84E060E0B8
:101A10009E010E94110CF80182816F2D0E94A62365
:101A2000482F84E061E09E010E94110CF80183813F
:101A30006F2D0E94A623482F80E066E09E010E9441
:101A4000110CF80183816F2D0E94A623482F80E09E
:101A500067E09E010E94110CF80183816F2D0E94A6
:101A6000A623482F81E065E09E010E94110CF80139
:101A700083816F2D0E94A623482F81E066E09E019E
:101A80000E94110CF80183816F2D0E94A623482F1C
:101A900082E064E09E010E94110CF80183816F2DA9
:101AA0000E94A623482F82E065E09E010E94110C4F
:101AB000F80183816F2D0E94A623482F83E063E005
:101AC0009E010E94110CF80183816F2D0E94A623B4
:101AD000482F83E064E09E010E94110CF80183818D
:101AE0006F2D0E94A623482F84E062E09E010E9491
:101AF000110CF80183816F2D0E94A623482F84E0EA
:101B000063E09E010E94110CF80183816F2D0E94F9
:101B1000A623482F85E060E09E010E94110CF80189
:101B200083816F2D0E94A623482F85E061E09E01EE
:101B30000E94110CF80183816F2D0E94A623482F6B
:101B400085E062E09E010E94110CF80183816F2DF7
:101B50000E94A623482F86E060E09E010E94110C9F
:101B6000F80183816F2D0E94A623482F86E061E053
:101B70009E010E94110CF80184816F2D0E94A62302
:101B8000482F81E067E09E010E94110CF8018481DA
:101B90006F2D0E94A623482F82E066E09E010E94DE
:101BA000110CF80184816F2D0E94A623482F82E03A
:101BB00067E09E010E94110CF80184816F2D0E9444
:101BC000A623482F83E065E09E010E94110CF801D6
:101BD00084816F2D0E94A623482F83E066E09E013A
:101BE0000E94110CF80184816F2D0E94A623482FBA
:101BF00084E064E09E010E94110CF80184816F2D45
:101C00000E94A623482F84E065E09E010E94110CEB
:101C1000F80184816F2D0E94A623482F85E063E0A0
:101C20009E010E94110CF80184816F2D0E94A62351
:101C3000482F85E064E09E010E94110CF801848128
:101C40006F2D0E94A623482F86E062E09E010E942D
:101C5000110CF80184816F2D0E94A623482F86E085
:101C600063E09E010E94110CF80184816F2D0E9497
:101C7000A623482F87E060E09E010E94110CF80126
:101C800084816F2D0E94A623482F87E061E09E018A
:101C90000E94110CF80185816F2D0E94A623482F08
:101CA00083E067E09E010E94110CF80185816F2D91
:101CB0000E94A623482F84E066E09E010E94110C3A
:101CC000F80185816F2D0E94A623482F84E067E0EC
:101CD0009E010E94110CF80185816F2D0E94A623A0
:101CE000482F85E065E09E010E94110CF801858176
:101CF0006F2D0E94A623482F85E066E09E010E947A
:101D0000110CF80185816F2D0E94A623482F86E0D3
:101D100064E09E010E94110CF80185816F2D0E94E4
:101D2000A623482F86E065E09E010E94110CF80171
:101D300085816F2D0E94A623482F87E062E09E01D7
:101D40000E94110CF80185816F2D0E94A623482F57
:101D500087E063E09E010E94110CF80185816F2DE0
:101D60000E94A623482F87E064E09E010E94110C88
:101D7000F80186816F2D0E94A623482F85E067E039
:101D80009E010E94110CF80186816F2D0E94A623EE
:101D9000482F86E066E09E010E94110CF8018681C2
:101DA0006F2D0E94A623482F86E067E09E010E94C7
:101DB000110CF80186816F2D0E94A623482F87E021
:101DC00065E09E010E94110CF80186816F2D0E9432
:101DD000A623482F87E066E09E010E94110CF801BF
:101DE00086816F2D0E94A623482F87E067E09E0121
:101DF0000E94110CCE010E94AD07CE010E944E0B35
:101E0000DF91CF911F910F91FF90089588E1089580
:101E10008F929F92AF92BF92CF92DF92EF92FF92FA
:101E20000F931F93DF93CF9300D0CDB7DEB7882EEB
:101E30000E94F30A7C01B82CBB0C99240894811CE5
:101E4000911C880C991C00E010E0CB2CDD24C7FC11
:101E5000D09424C0C701632F4A2D252F3A8359837C
:101E60000E940B0B59815F5F3A81583099F73F5FB1
:101E7000383021F405C030E0AB2CA00E50E0EACFA2
:101E8000C7010E94AD0701C0A8950E9407088230D3
:101E9000D8F3C7010E94460B0F5F1F4FC8018C0D7E
:101EA0009D1D881599053CF3C7010E94EB240F90F6
:101EB0000F90CF91DF911F910F91FF90EF90DF90E6
:101EC000CF90BF90AF909F908F9008958F929F92E8
:101ED000BF92CF92DF92EF92FF920F931F93DF9307
:101EE000CF9300D0CDB7DEB7E82E0E94F30A8C0165
:101EF000BE2CB194BB0C23E0822E912C8E1891083D
:101F0000880C991C87E0B80EEE24FF24CB2CDD242E
:101F1000C7FCD09424C0C801632F4B2D252F3A83D2
:101F200059830E940B0B59815F5F3A81583099F7B2
:101F30003F5F383011F403C030E050E0ECCFC8010F
:101F40000E94AD0701C0A8950E9407088230D8F30F
:101F5000C8010E94460BBA940894E11CF11CC6010A
:101F60008E199F09881599053CF7C8010E94EB243A
:101F70000F900F90CF91DF911F910F91FF90EF90F5
:101F8000DF90CF90BF909F908F9008958F929F92F7
:101F9000AF92BF92CF92DF92EF92FF920F931F9377
:101FA000DF93CF9300D0CDB7DEB7882E0E94F30A1F
:101FB0007C01B82CBB0C99240894811C911C880CC2
:101FC000991C00E010E0CB2CDD24C7FCD09424C089
:101FD000C7016A2D432F252F3A8359830E940B0B8B
:101FE00059815F5F3A81583099F73F5F383021F46B
:101FF00005C030E0AB2CA00E50E0EACFC7010E9434
:10200000AD0701C0A8950E9407088230D8F3C70128
:102010000E94460B0F5F1F4FC8018C0D9D1D881538
:1020200099053CF3C7010E94EB240F900F90CF91CC
:10203000DF911F910F91FF90EF90DF90CF90BF90B5
:10204000AF909F908F9008958F929F92BF92CF9262
:10205000DF92EF92FF920F931F93DF93CF9300D005
:10206000CDB7DEB7E82E0E94F30A8C01BE2CB194E6
:10207000BB0C53E0852E912C8E189108880C991C6E
:1020800087E0B80EEE24FF24CB2CDD24C7FCD094CF
:1020900024C0C8016B2D432F252F3A8359830E94FA
:1020A0000B0B59815F5F3A81583099F73F5F3830A9
:1020B00011F403C030E050E0ECCFC8010E94AD073E
:1020C00001C0A8950E9407088230D8F3C8010E9479
:1020D000460BBA940894E11CF11CC6018E199F09A5
:1020E000881599053CF7C8010E94EB240F900F90CA
:1020F000CF91DF911F910F91FF90EF90DF90CF90E4
:10210000BF909F908F9008958F929F92AF92BF92B1
:10211000CF92DF92EF92FF920F931F93DF93CF93B3
:1021200000D0CDB7DEB7882E0E94F30A7C01B82C10
:10213000BB0C99240894811C911C880C991C00E00C
:1021400010E0CB2CDD24C7FCD09424C0C701652F40
:10215000432F2A2D3A8359830E940B0B59815F5FCD
:102160003A81583099F73F5F383021F405C030E0AC
:10217000AB2CA00E50E0EACFC7010E94AD0701C012
:10218000A8950E9407088230D8F3C7010E94460B29
:102190000F5F1F4FC8018C0D9D1D881599053CF3DD
:1021A000C7010E94EB240F900F90CF91DF911F91F8
:1021B0000F91FF90EF90DF90CF90BF90AF909F90E6
:1021C0008F9008958F929F92BF92CF92DF92EF925D
:1021D000FF920F931F93DF93CF9300D0CDB7DEB75D
:1021E000E82E0E94F30A8C01BE2CB194BB0CE3E0F4
:1021F0008E2E912C8E189108880C991C87E0B80EB1
:10220000EE24FF24CB2CDD24C7FCD09424C0C801CD
:10221000632F452F2B2D3A8359830E940B0B598135
:102220005F5F3A81583099F73F5F383011F403C04F
:1022300030E050E0ECCFC8010E94AD0701C0A89586
:102240000E9407088230D8F3C8010E94460BBA9456
:102250000894E11CF11CC6018E199F098815990587
:102260003CF7C8010E94EB240F900F90CF91DF91B3
:102270001F910F91FF90EF90DF90CF90BF909F90B4
:102280008F900895883100F5843018F40E94080F6B
:102290001BC0883020F484500E94660F15C08C301B
:1022A00020F488500E94C60F0FC0803120F48C505B
:1022B0000E94241009C0843120F480510E948410AF
:1022C00003C084510E94E21081E008952F923F9252
:1022D0004F925F926F927F928F929F92AF92BF9236
:1022E000CF92DF92EF92FF920F931F93DF93CF93E2
:1022F000CDB7DEB72B970FB6F894DEBF0FBECDBFBC
:1023000081E490E00E9451248983292E482E592E81
:102310000E94410AB22EC32ED42E152F062FF72E5F
:10232000E82EA92E82E40E949A0674C00E94410AF7
:10233000A22FAB19F1E02A1708F0F0E0232F2C1997
:10234000E1E0321708F0E0E0322F3F1BF32F31E0DD
:102350002F1708F030E0E32B342F3D1921E043170D
:1023600008F020E0432F4E1BE42F41E03E1708F019
:1023700040E0242B452F411B31E0541708F030E09A
:10238000542F521B21E0451708F020E0322B462F36
:10239000401B21E0641708F020E0642F631B31E04C
:1023A000461708F030E0232B472F4F1931E0741700
:1023B00008F030E0742F721B21E0471708F020E08E
:1023C000322B482F4E1921E0841708F020E0842F8B
:1023D000831B31E0481708F030E0232B9A1992173D
:1023E00009F0BAC3882309F0B7C3772309F0B4C34F
:1023F000662309F0B1C3552309F0AEC3EE2309F0FB
:10240000ABC3FA3008F0A8C3F93019F4A53C08F0C2
:10241000A3C3A8950E943606882309F487CF0E949B
:1024200044068A8382E40E949A0666247724332431
:10243000C201805C9F4F9F838E83A5C10E94410A89
:10244000E22FEB19F1E02E1708F0F0E0232F2C1902
:10245000A1E0321708F0A0E0322F3F1BF32F31E04C
:102460002F1708F030E0A32B342F3D1921E043173C
:1024700008F020E0432F4A1BA1E0341708F0A0E049
:102480002A2BA52FA11B31E05A1708F030E05A2F54
:10249000521B21E0A51708F020E0322BB62FB01B0D
:1024A00021E06B1708F020E0AB2FA31B31E0BA1737
:1024B00008F030E0232B672F6F1931E0761708F012
:1024C00030E0762F721B21E0671708F020E0322BF6
:1024D000682F6E1921E0861708F020E0862F831BF5
:1024E00031E0681708F030E0232B9A19921709F0B1
:1024F00033C3882309F030C3772309F02DC3AA23FF
:1025000009F02AC3552309F027C3442309F024C343
:10251000FA3008F021C3F93019F4E53C08F01CC387
:10252000A8950E943606882309F488CF0E944406A5
:102530008B8382E40E949A0643011DC10E94410AD6
:10254000E22FEB19F1E02E1708F0F0E0A32FAC1901
:1025500021E03A1708F020E03A2F3F1BF1E0A317E3
:1025600008F0F0E02F2BA42FAD19F1E04A1708F086
:10257000F0E04A2F421B21E0A41708F020E0F22BE4
:10258000A52FA11B21E05A1708F020E05A2F5F1B4E
:10259000F1E0A51708F0F0E02F2BA62FA01BF1E02B
:1025A0006A1708F0F0E06A2F621B21E0A61708F016
:1025B00020E0F22B272F2F19A1E0721708F0A0E0DE
:1025C000722F7F1BF1E0271708F0F0E0AF2BF82FF8
:1025D000FE1921E08F1708F020E08F2F8A1BA1E061
:1025E000F81708F0A0E02A2B9A19921709F0B4C244
:1025F000882309F0B1C2772309F0AEC2662309F03F
:10260000ABC2552309F0A8C2442309F0A5C23A3051
:1026100008F0A2C2393019F4E53C08F09DC2A89533
:102620000E943606882309F489CF0E944406EE8171
:10263000FF81808382E40E949A069981292F322D9E
:10264000C901805C9F4F9D838C833987288773C025
:102650000E94410AE22FEB19F1E02E1708F0F0E09A
:10266000232F2C19A1E0321708F0A0E0322F3F1BD6
:10267000F32F31E02F1708F030E0A32B342F3D1952
:1026800021E0431708F020E0432F4A1BA1E0341754
:1026900008F0A0E02A2BA52FA11B31E05A1708F063
:1026A00030E05A2F521B21E0A51708F020E0322B12
:1026B000B62FB01B21E06B1708F020E0AB2FA31B57
:1026C00031E0BA1708F030E0232B672F6F1931E0A3
:1026D000761708F030E0762F721B21E0671708F0BC
:1026E00020E0322B682F6E1921E0861708F020E0D9
:1026F000862F831B31E0681708F030E0232B9A19EE
:10270000921709F029C2882309F026C2772309F01D
:1027100023C2AA2309F020C2552309F01DC2442375
:1027200009F01AC2FA3008F017C2F93019F4E53C82
:1027300008F012C2A8950E943606882309F488CFB3
:102740000E944406E885F9858193F987E8872C8102
:102750003D81E217F30779F782E40E949A0694011B
:102760002F5F3F4FC401B2012A873B870E94620A54
:102770002A853B854901882D86193B81831708F4FA
:102780004FCF339434014A81341608F4CACEC201C3
:102790000E94EB2474C00E94410AA22FAB19F1E001
:1027A0002A1708F0F0E0232F2C19E1E0321708F087
:1027B000E0E0322F3F1BF32F31E02F1708F030E01D
:1027C000E32B342F3D1921E0431708F020E0432F7D
:1027D0004E1BE42F41E03E1708F040E0242B452F2C
:1027E000411B31E0541708F030E0542F521B21E018
:1027F000451708F020E0322B462F401B21E06417DC
:1028000008F020E0642F631B31E0461708F030E049
:10281000232B472F4F1931E0741708F030E0742F45
:10282000721B21E0471708F020E0322B482F4E1989
:1028300021E0841708F020E0842F831B31E0481743
:1028400008F030E0232B9A19921709F085C18823EC
:1028500009F082C1772309F07FC1662309F07CC1AA
:10286000552309F079C1EE2309F076C1FA3008F05A
:1028700073C1F93019F4A53C08F06EC1A8950E9407
:102880003606882309F487CF0E94440674C00E944C
:10289000410AA22FAB19F1E02A1708F0F0E0232F2C
:1028A0002C19E1E0321708F0E0E0322F3F1BF32F44
:1028B00031E02F1708F030E0E32B342F3D1921E0F1
:1028C000431708F020E0432F4E1BE42F41E03E1752
:1028D00008F040E0242B452F411B31E0541708F04D
:1028E00030E0542F521B21E0451708F020E0322B36
:1028F000462F401B21E0641708F020E0642F631B83
:1029000031E0461708F030E0232B472F4F1931E014
:10291000741708F030E0742F721B21E0471708F09D
:1029200020E0322B482F4E1921E0841708F020E0D8
:10293000842F831B31E0481708F030E0232B9A19CD
:10294000921709F009C1882309F006C1772309F01D
:1029500003C1662309F000C1552309F0FDC0EE2331
:1029600009F0FAC0FA3008F0F7C0F93019F4A53CC4
:1029700008F0F2C0A8950E943606882309F487CF94
:102980000E94440674C00E94410AA22FAB19F1E0D4
:102990002A1708F0F0E0232F2C19E1E0321708F095
:1029A000E0E0322F3F1BF32F31E02F1708F030E02B
:1029B000E32B342F3D1921E0431708F020E0432F8B
:1029C0004E1BE42F41E03E1708F040E0242B452F3A
:1029D000411B31E0541708F030E0542F521B21E026
:1029E000451708F020E0322B462F401B21E06417EA
:1029F00008F020E0642F631B31E0461708F030E058
:102A0000232B472F4F1931E0741708F030E0742F53
:102A1000721B21E0471708F020E0322B482F4E1997
:102A200021E0841708F020E0842F831B31E0481751
:102A300008F030E0232B9A19921709F08DC08823F3
:102A400009F08AC0772309F087C0662309F084C0A3
:102A5000552309F081C0EE2309F07EC0FA3008F05A
:102A60007BC0F93019F4A53C08F076C0A8950E9407
:102A70003606882309F487CF0E94440672C00E945C
:102A8000410AA22FAB19F1E02A1708F0F0E0232F3A
:102A90002C19E1E0321708F0E0E0322F3F1BF32F52
:102AA00031E02F1708F030E0E32B342F3D1921E0FF
:102AB000431708F020E0432F4E1BE42F41E03E1760
:102AC00008F040E0242B452F411B31E0541708F05B
:102AD00030E0542F521B21E0451708F020E0322B44
:102AE000462F401B21E0641708F020E0642F631B91
:102AF00031E0461708F030E0232B472F4F1931E023
:102B0000741708F030E0742F721B21E0471708F0AB
:102B100020E0322B482F4E1921E0841708F020E0E6
:102B2000842F831B31E0481708F030E0232B9A19DB
:102B3000921791F4882381F4772371F4662361F46A
:102B4000552351F4EE2341F4FA3030F4F93011F406
:102B5000A53C10F4A89505C080E090E00E94AE0A64
:102B600010C00E943606882309F489CF0E944406CB
:102B700082E40E949A06C3010E94AE0A81E080931B
:102B8000C7022B960FB6F894DEBF0FBECDBFCF9114
:102B9000DF911F910F91FF90EF90DF90CF90BF904A
:102BA000AF909F908F907F906F905F904F903F90ED
:102BB0002F9008956F927F928F929F92AF92BF92C3
:102BC000CF92DF92EF92FF920F931F93CF93DF93F9
:102BD0000E94920A6C016FEF70E00E94B22300978E
:102BE00011F4862E02C0862E839482E40E949A06F7
:102BF000882D0E949A060E944406823409F058C02B
:102C000000E010E041C08FEFC816D10409F010F4C5
:102C10009C2C02C099249A94892D0E949A060E94A5
:102C20004406823409F044C0780126C0C7010E94DE
:102C3000520AEC01FC01E05CFF4F80810E949A0681
:102C40000E944406823489F45E0180E4682EF50116
:102C500081915F010E949A066A94C9F70E94440616
:102C60000894E11CF11C823421F0CE010E94EB2477
:102C70001FC0CE010E94EB248E2D87198915B0F25A
:102C8000C918D10801501F4F702E802F81958815CB
:102C900008F4B9CF82E40E949A0682E40E949A0660
:102CA00082E40E949A0682E40E949A060E944406E8
:102CB000DF91CF911F910F91FF90EF90DF90CF9018
:102CC000BF90AF909F908F907F906F9008951F93CB
:102CD000CF93DF930E94B509EC01009731F485E1B1
:102CE0000E94DC0A0E94DA061FC086E10E94DC0A0C
:102CF0000E94DA0610E3812F0E949A0688EA91E08A
:102D00000E94DA06899190E06DE673E04AE050E0B7
:102D10000E94DF258DE693E00E94DA068AE00E9499
:102D20009A061F5F173339F7DF91CF911F910895EE
:102D3000AF92BF92CF92DF92EF92FF920F931F93C9
:102D40008EE00E94DC0A0E94DA060E94410AB90164
:102D5000CA014DE653E02AE030E00E9400260E94BE
:102D6000DA068BEA91E00E94DA060E94410A992372
:102D700081F4882371F4772361F4662351F4552399
:102D800041F4442331F43B3E20F43A3E09F5213628
:102D9000F8F08EEA91E00E94DA060E94410AB0E65D
:102DA000AB2EAAEEBA2ECC24DD24EE24FF2400E0C4
:102DB00010E00E945217C9016DE673E04AE050E04E
:102DC0000E94DF250E94DA0681EB91E00E94DA067C
:102DD0000E94410A992391F4882381F4772371F4A6
:102DE000662361F4552351F4442341F4343030F424
:102DF000333009F04BC0293E08F448C08EEA91E018
:102E00000E94DA060E94410AF8EEAF2EE3E0BE2EE1
:102E1000CC24DD24EE24FF2400E010E00E945217B1
:102E2000C9016DE673E04AE050E00E94DF250E9490
:102E3000DA060E94410A0E94861DC9016DE673E010
:102E40004AE050E00E94DF2580916D03882319F04D
:102E50008EE20E949A0680916F03882319F480E322
:102E60000E949A0680916E03882319F480E30E94E1
:102E70009A0680916D03882321F08DE693E00E94ED
:102E8000DA0687EB91E00E94DA0603C08AE00E942E
:102E90009A061F910F91FF90EF90DF90CF90BF9017
:102EA000AF900895A8E3B0E0E8E5F7E10C941A24A8
:102EB00029833A834B835C836D837E838F839887DA
:102EC000A986BA86CB86DC86ED86FE860F87188BB0
:102ED000E984FA840B851C852D853E854F855889AC
:102EE00029803A804B805C802DA23EA24FA258A63A
:102EF000AD80BE80CF80D8842115310541055105B4
:102F000009F0A6C3AE14BF04C006D10608F03FC145
:102F100020E0E21620E0F20621E0020720E012079E
:102F200058F43FEFE316F1040105110509F090F4A0
:102F300020E030E0A90117C040E0E41640E0F406CC
:102F400040E0040741E0140750F420E130E040E0A5
:102F500050E009C028E030E040E050E004C028E143
:102F600030E040E050E0D801C701022E04C0B69521
:102F7000A795979587950A94D2F785549E4FDC01C3
:102F80006C9180E290E0A0E0B0E0821B930BA40B78
:102F9000B50B861B9109A109B1090097A105B105DF
:102FA000A1F1082E04C0EE0CFF1C001F111F0A9493
:102FB000D2F7A6019501082E04C0220F331F441F2B
:102FC000551F0A94D2F760E270E0681B790BADA040
:102FD000BEA0CFA0D8A404C0D694C794B794A79499
:102FE0006A95D2F7A22AB32AC42AD52A2DA03EA0D8
:102FF0004FA058A404C0220C331C441C551C8A95B5
:10300000D2F72DA23EA24FA258A6380188249924B7
:10301000A801970140705070298F3A8F4B8F5C8FB9
:10302000C601B501A40193010E94F823222E532E5C
:10303000442E352E6D8F7E8F8F8F98A3C601B501DC
:10304000A40193010E94F823822D952DA42DB32D68
:103050001C012D01C201B101298D3A8D4B8D5C8D72
:103060000E94D9235B016C014D8D5E8D6F8D78A11F
:10307000DA01992788274DA15EA16FA178A59B0150
:1030800044275527822B932BA42BB52B8A159B0500
:10309000AC05BD05E0F40894210831084108510849
:1030A0008E0D9F1DA01FB11F8E159F05A007B10794
:1030B00070F08A159B05AC05BD0548F408942108FD
:1030C0003108410851088E0D9F1DA01FB11F9C01A2
:1030D000AD012A193B094C095D0959016A01CA0170
:1030E000B901A40193010E94F82329A739A349AB90
:1030F0005DA76D8F7E8F8F8F98A3C601B501A40148
:1031000093010E94F823A9A4B9A0C9A8DDA4C6010F
:10311000B501298D3A8D4B8D5C8D0E94D9233B01E1
:103120004C016D8D7E8D8F8D98A1AB0133272227A9
:103130008DA19EA1AFA1B8A5A070B070282B392B8E
:103140004A2B5B2B2615370548055905C0F4089412
:10315000A108B108C108D1082E0D3F1D401F511F05
:103160002E153F054007510750F026153705480535
:10317000590528F40894A108B108C108D1088101B3
:10318000FF24EE24EA28FB280C291D29A1C4E11400
:10319000F1040105110559F461E070E080E090E070
:1031A000A80197010E94F82379018A0110C070E0FC
:1031B000E71670E0F70671E0070770E0170758F4AC
:1031C0008FEFE816F1040105110509F090F420E0F5
:1031D00030E0A90117C090E0E91690E0F90690E010
:1031E000090791E0190750F420E130E040E050E099
:1031F00009C028E030E040E050E004C028E130E0C1
:1032000040E050E0D801C701022E04C0B695A79552
:10321000979587950A94D2F785549E4FDC018C913F
:10322000280F311D411D511D80E290E0A0E0B0E06B
:10323000821B930BA40BB50B61F4150126012E180C
:103240003F08400A510A81E0A82EB12CC12CD12C94
:1032500023C1082E04C0EE0CFF1C001F111F0A948E
:10326000D2F715012601022E04C0569447943794D4
:1032700027940A94D2F735014601082E04C0660C43
:10328000771C881C991C0A94D2F76D8E7E8E8F8EC7
:1032900098A28DA09EA0AFA0B8A404C0B694A79495
:1032A000979487942A95D2F7A5019401AD8CBE8C92
:1032B000CF8CD8A0A22AB32AC42AD52AAD8EBE8E1E
:1032C000CF8ED8A22DA13EA14FA158A504C0220F98
:1032D000331F441F551F8A95D2F72DA33EA34FA33A
:1032E00058A7380188249924B801A701607070702C
:1032F00049A75AA76BA77CA7C201B101A4019301FA
:103300000E94F823298F39AB4DA75DAB69A37AA33F
:103310008BA39CA3C201B101A40193010E94F823D5
:10332000A98CB9A8CDA4DDA8A98EBA8ECB8EDC8ECF
:10333000C601B50129A53AA54BA55CA50E94D923D4
:103340005B016C0129A03AA04BA05CA0D101992798
:1033500088272D8C3E8C4F8C58A0920144275527EE
:10336000822B932BA42BB52B8A159B05AC05BD0591
:1033700030F5298D3A8D4B8D5C8D21503040404089
:103380005040298F3A8F4B8F5C8F8E0D9F1DA01F51
:10339000B11F8E159F05A007B10788F08A159B0500
:1033A000AC05BD0560F42150304040405040298FAD
:1033B0003A8F4B8F5C8F8E0D9F1DA01FB11FAC01EC
:1033C000BD014A195B096C097D095A016B01CB01EA
:1033D000BA01A40193010E94F823522E432E342EE9
:1033E000252E69A37AA38BA39CA3C601B501A401D2
:1033F00093010E94F823652C742C832C922CC40119
:10340000B30129A53AA54BA55CA50E94D9239B0130
:10341000AC0169A17AA18BA19CA16B01BB24AA2458
:103420008D8D9E8DAF8DB8A1A070B070A82AB92ADD
:10343000CA2ADB2AA216B306C406D506E0F408940D
:103440006108710881089108AE0CBF1CC01ED11E16
:10345000AE14BF04C006D10670F0A216B306C406AF
:10346000D50648F408946108710881089108AE0CEB
:10347000BF1CC01ED11E15012601221A330A440AA0
:10348000550A898D9A8DAB8DBC8D6C01BB24AA2405
:10349000A628B728C828D9283801882499246D8EF1
:1034A0007E8E8F8E98A2A80197014070507029A738
:1034B0003AA74BA75CA7C201B101A40193010E94E6
:1034C000F823922E832E742E652E69A37AA38BA3E4
:1034D0009CA3C201B1012D8D3E8D4F8D58A10E943C
:1034E000F823892D982DA72DB62D898F9A8FAB8F14
:1034F000BC8FBC01CD0129A53AA54BA55CA50E94B6
:10350000D9233B014C0149A15AA16BA17CA1DA014D
:10351000992788272DA03EA04FA058A492014427A8
:103520005527822B932BA42BB52B86159705A80521
:10353000B90530F5298D3A8D4B8D5C8D2150304089
:1035400040405040298F3A8F4B8F5C8F8E0D9F1DCE
:10355000A01FB11F8E159F05A007B10788F0861523
:103560009705A805B90560F421503040404050400F
:10357000298F3A8F4B8F5C8F8E0D9F1DA01FB11F1F
:10358000AC01BD0146195709680979093A014B0197
:10359000CB01BA012D8D3E8D4F8D58A10E94F8238D
:1035A000522E432E342E252E69A37AA38BA39CA3DF
:1035B000C401B3012D8D3E8D4F8D58A10E94F8237B
:1035C000652C742C832C922CC401B30129A53AA537
:1035D0004BA55CA50E94D9231B012C0169A17AA1EE
:1035E0008BA19CA1AB01332722278DA19EA1AFA166
:1035F000B8A5A070B070282B392B4A2B5B2B221555
:10360000330544055505C0F4089461087108810824
:1036100091082E0D3F1D401F511F2E153F054007DD
:10362000510750F0221533054405550528F4089438
:103630006108710881089108898D9A8DAB8DBC8DC8
:103640008C01FF24EE24E628F7280829192943C213
:10365000A216B306C406D50608F42AC2203090E0AC
:10366000390791E0490790E0590750F42F3F3105A1
:103670004105510509F090F466247724430119C0EF
:103680002030A0E03A07A0E04A07A1E05A0760F422
:1036900090E1692E712C812C912C0BC088E0682E52
:1036A000712C812C912C05C0B8E16B2E712C812CD2
:1036B000912CDA01C901062C04C0B695A7959795FF
:1036C00087950A94D2F785549E4FFC018081680E3D
:1036D000711C811C911C80E290E0A0E0B0E0861992
:1036E0009709A809B90989F42A153B054C055D0518
:1036F00008F4E5C12DA03EA04FA058A42E143F040D
:103700004006510608F0DBC1D3C189A719012A017F
:1037100004C0220C331C441C551C8A95D2F7D801D6
:10372000C701062C04C0B695A795979587950A946E
:10373000D2F7282A392A4A2A5B2AA801970109A424
:1037400004C0220F331F441F551F0A94D2F729A328
:103750003AA34BA35CA386017501062C04C0169501
:103760000795F794E7940A94D2F7B601A50109A446
:1037700004C0440F551F661F771F0A94D2F74D8F60
:103780005E8F6F8F78A36DA17EA18FA198A504C0D5
:1037900096958795779567956A94D2F73B014C018A
:1037A0008D8D9E8DAF8DB8A186299729A829B9291D
:1037B0008D8F9E8FAF8FB8A35201CC24DD24A20140
:1037C00091014070507029AB3AAB4BAB5CABC80178
:1037D000B701A60195010E94F823622E932E842E34
:1037E000752E6DA77EA78FA798ABC801B701A6015C
:1037F00095010E94F823E62CF92C082D172DE98E4F
:10380000FA8E0B8F1C8FC801B70129A93AA94BA9C1
:103810005CA90E94D9236DA47EA48FA498A88301DB
:10382000FF24EE246D8C7E8C8F8C98A0940144270D
:103830005527E22AF32A042B152BE616F70608076C
:10384000190730F5298D3A8D4B8D5C8D2150304014
:1038500040405040298F3A8F4B8F5C8FE20CF31C15
:10386000041D151DE214F3040405150588F0E61681
:10387000F7060807190760F42150304040405040D7
:10388000298F3A8F4B8F5C8FE20CF31C041D151DA2
:10389000E61AF70A080B190BC801B701A601950132
:1038A0000E94F8232DAB3EAB4FAB58AF6DA77EA760
:1038B0008FA798ABC801B701A60195010E94F82314
:1038C0006DA87EA88FA898ACC401B30129A93AA914
:1038D0004BA95CA90E94D9239B01AC01ADA4BEA455
:1038E000CFA4D8A8D50199278827AD8CBE8CCF8CC2
:1038F000D8A06FEFE62E6FEFF62E012D112DAE2022
:10390000BF20C022D1228A299B29AC29BD29821738
:103910009307A407B507E0F40894610871088108CB
:103920009108820D931DA41DB51D82159305A40554
:10393000B50570F082179307A407B50748F40894FB
:103940006108710881089108820D931DA41DB51DA1
:103950001C012D01221A330A440A550A2D8E3E8E6F
:103960004F8E58A2A98CBA8CCB8CDC8C8501FF249D
:10397000EE24E628F72808291929AFEFAA2EAFEF81
:10398000BA2EC12CD12CAE20BF20C022D1221801CA
:103990004424552469A07AA08BA09CA02FEF3FEF70
:1039A00040E050E0622273228422952269A17AA12C
:1039B0008BA19CA1AC0166277727498F5A8F6B8F0B
:1039C0007C8FC601B501A40193010E94D92369A38C
:1039D0007AA38BA39CA3C601B501298D3A8D4B8D8B
:1039E0005C8D0E94D9235B016C01C201B101A4016D
:1039F00093010E94D9233B014C01C201B101298DE1
:103A00003A8D4B8D5C8D0E94D9239B01AC01A60C95
:103A1000B71CC81CD91C29A03AA04BA05CA0C201AD
:103A2000AA27BB27A80EB91ECA1EDB1EA614B70400
:103A3000C804D90420F4205030404F4F5F4FC601D6
:103A4000AA27BB27820F931FA41FB51F4D8C5E8C26
:103A50006F8C78A0481659066A067B0618F1841503
:103A60009505A605B705A1F56501BB24AA2489A182
:103A70009AA1ABA1BCA1A070B070A80EB91ECA1EBD
:103A8000DB1E8DA19EA1AFA1B8A509A404C0880F1B
:103A9000991FAA1FBB1F0A94D2F78A159B05AC0574
:103AA000BD05B0F40894E108F1080109110910C03E
:103AB000AA24BB246501EE24FF2487010CC0AA249C
:103AC000BB24650181E0E82EF12C012D112D03C0EE
:103AD000AA24BB246501FE01719688E0DF011D92D6
:103AE0008A95E9F7E98AFA8A0B8B1C8BAD8ABE8A24
:103AF000CF8AD88E2E2D3A894B895C896A2D7E8992
:103B00008F89988DE896E2E10C943624ACE3B0E01E
:103B1000ECE8FDE10C941A24F82FE92FA986BA8667
:103B2000CB86DC86ED86FE860F87188BE984FA84C7
:103B30000B851C858D859E85AF85B889298F3A8F29
:103B40004B8F5C8F298C3A8C4B8C5C8C2DA23EA2C7
:103B50004FA258A63B018F2E9E2E130124010097E1
:103B6000A105B10509F00DC36E147F04800691060E
:103B700008F0F7C020E0E21620E0F20621E002079C
:103B800020E0120758F43FEFE316F1040105110598
:103B900009F090F480E090E0DC0117C040E0E4160A
:103BA00040E0F40640E0040741E0140750F480E1EF
:103BB00090E0A0E0B0E009C088E090E0A0E0B0E0D4
:103BC00004C088E190E0A0E0B0E0A8019701082ED1
:103BD00004C056954795379527950A94D2F72554F2
:103BE0003E4FF9012081F0E2AF2EB12CC12CD12C37
:103BF000A81AB90ACA0ADB0AA21AB108C108D10870
:103C0000AD8EBE8ECF8ED8A2A114B104C104D10452
:103C100099F12D8D022E04C0EE0CFF1C001F111F08
:103C20000A94D2F7022E04C0660C771C881C991CDB
:103C30000A94D2F760E270E06A197B09298C3A8C09
:103C40004B8C5C8C04C056944794379427946A95A7
:103C5000D2F72628372848285928498D5A8D6B8D48
:103C60007C8D04C0440F551F661F771F2A95D2F71D
:103C70004DA35EA36FA378A7380188249924C801B7
:103C8000B70180709070698F7A8F8B8F9C8FC20183
:103C9000B101A40193010E94F823D22EA32EC42EB9
:103CA000B52E69A37AA38BA39CA3C201B101A40181
:103CB00093010E94F8236D2D7A2D8C2D9B2D298D3B
:103CC0003A8D4B8D5C8D0E94D9235B016C0129A03C
:103CD0003AA04BA05CA0D101992788272DA03EA037
:103CE0004FA058A4920144275527822B932BA42B35
:103CF000B52B8A159B05AC05BD0590F48E0D9F1D57
:103D0000A01FB11F8E159F05A007B10748F08A15A7
:103D10009B05AC05BD0520F48E0D9F1DA01FB11F96
:103D20009C01AD012A193B094C095D0959016A0141
:103D3000CA01B901A40193010E94F823522E232E37
:103D4000442E352E69A37AA38BA39CA3C601B5018B
:103D5000A40193010E94F823652D722D842D932DCB
:103D6000C5C1E114F1040105110559F461E070E0E9
:103D700080E090E0A80197010E94F82379018A0170
:103D800010C050E0E51650E0F50651E0050750E0A0
:103D9000150758F46FEFE616F1040105110509F057
:103DA00090F480E090E0DC0117C070E0E71670E06E
:103DB000F70670E0070771E0170750F480E190E024
:103DC000A0E0B0E009C088E090E0A0E0B0E004C06E
:103DD00088E190E0A0E0B0E0A8019701082E04C0BF
:103DE00056954795379527950A94D2F725543E4F17
:103DF000F9012081820F911DA11DB11D50E2252ED8
:103E0000312C412C512C281A390A4A0A5B0A2D8E72
:103E10003E8E4F8E58A2211431044104510439F4CE
:103E200064015301AE18BF08C00AD10AEBC02D8D42
:103E3000022E04C0EE0CFF1C001F111F0A94D2F7C3
:103E400013012401082E04C05694479437942794F4
:103E50000A94D2F764015301022E04C0AA0CBB1CC1
:103E6000CC1CDD1C0A94D2F7498D5A8D6B8D7C8D4C
:103E700004C076956795579547958A95D2F7A42AF9
:103E8000B52AC62AD72AA9A2BAA2CBA2DCA2698DDA
:103E90007A8D8B8D9C8D04C0660F771F881F991FAC
:103EA0002A95D2F76DA37EA38FA398A73801882403
:103EB0009924D801C701A070B070898F9A8FAB8FF9
:103EC000BC8FC201B101A40193010E94F823D22E3C
:103ED000A32EC42EB52E69A77AA78BA79CA7C201D3
:103EE000B101A40193010E94F8236D2D7A2D8C2D30
:103EF0009B2D298D3A8D4B8D5C8D0E94D9235B01C2
:103F00006C0129A43AA44BA45CA4D1019927882769
:103F100029A03AA04BA05CA0920144275527822BF0
:103F2000932BA42BB52B8A159B05AC05BD0590F4EE
:103F30008E0D9F1DA01FB11F8E159F05A007B107F5
:103F400048F08A159B05AC05BD0520F48E0D9F1D1C
:103F5000A01FB11F9C01AD012A193B094C095D0945
:103F600059016A01CA01B901A40193010E94F82311
:103F7000522E232E442E352E69A77AA78BA79CA7F5
:103F8000C601B501A40193010E94F823652D722D8D
:103F9000842D932D298D3A8D4B8D5C8D0E94D923D4
:103FA0005B016C0149A55AA56BA57CA5DA0199278F
:103FB000882729A13AA14BA15CA140705070822BA7
:103FC000932BA42BB52B8A159B05AC05BD0590F44E
:103FD0008E0D9F1DA01FB11F8E159F05A007B10755
:103FE00048F08A159B05AC05BD0520F48E0D9F1D7C
:103FF000A01FB11F1C012D012A183B084C085D08A9
:1040000062015101180144245524A8019701407010
:104010005070298F3A8F4B8F5C8FC601B501A2017A
:1040200091010E94F823622E932E842E752E69A38F
:104030007AA38BA39CA3C601B501A20191010E94A2
:10404000F823662D792D882D972D298D3A8D4B8D4E
:104050005C8D0E94D9235B016C0149A15AA16BA11F
:104060007CA1DA01992788276DA07EA08FA098A453
:10407000940144275527822B932BA42BB52B8A150B
:104080009B05AC05BD0590F48E0D9F1DA01FB11FB3
:104090008E159F05A007B10748F08A159B05AC0552
:1040A000BD0520F48E0D9F1DA01FB11F9C01AD0109
:1040B0002A193B094C095D0959016A01CA01B90174
:1040C000A20191010E94F823622E932E842E752E58
:1040D00069A37AA38BA39CA3C601B501A201910198
:1040E0000E94F823662D792D882D972D298D3A8DE4
:1040F0004B8D5C8D0E94D9235B016C0149A15AA1B3
:104100006BA17CA1DA01992788272DA13EA14FA19F
:1041100058A540705070822B932BA42BB52B8A1579
:104120009B05AC05BD0590F48E0D9F1DA01FB11F12
:104130008E159F05A007B10748F08A159B05AC05B1
:10414000BD0520F48E0D9F1DA01FB11F8A199B096C
:10415000AC09BD099C01AD010D8C04C05695479575
:10416000379527950A94D2F7298B3A8B4B8B5C8B2A
:104170001D8A1E8A1F8A188E3A894B895C8960E0E5
:10418000DEC2681679068A069B0618F48F2F9E2FCA
:10419000D9C2803050E0950751E0A50750E0B5073F
:1041A00050F48F3F9105A105B10509F090F4AA24C0
:1041B000BB24650119C0803060E0960760E0A60767
:1041C00061E0B60760F440E1A42EB12CC12CD12CE3
:1041D0000BC038E0A32EB12CC12CD12C05C028E196
:1041E000A22EB12CC12CD12C9C01AD010A2C04C0F3
:1041F00056954795379527950A94D2F725543E4F03
:10420000F9012081A20EB11CC11CD11C20E230E0BA
:1042100040E050E02A193B094C095D0909F047C00C
:1042200086159705A805B90548F0A98CBA8CCB8CE2
:10423000DC8CAE14BF04C006D10638F1298D3A8D4E
:104240004B8D5C8D2E193F09400B510B681A790A72
:104250008A0A9B0AA1E0EA2EF12C012D112D698D0D
:104260007A8D8B8D9C8D621773078407950718F0E4
:10427000EE24FF248701130124012E183F08400A71
:10428000510A2DA33EA34FA358A78DA19EA1AFA174
:10429000B8A5898B9A8BAB8BBC8B2D8A3E8A4F8AB3
:1042A000588E2DA13A894B895C89622D48C22DA375
:1042B0001C012D01022E04C0220C331C441C551C71
:1042C0000A94D2F7A9A6D801C70104C0B695A7954C
:1042D00097958795AA94D2F7282A392A4A2A5B2AE1
:1042E0002D8E3E8E4F8E58A257016801022E04C0BB
:1042F000AA0CBB1CCC1CDD1C0A94D2F7ADA6BEA632
:10430000CFA6D8AA1301240109A404C05694479447
:10431000379427940A94D2F774016301022E04C0E3
:10432000CC0CDD1CEE1CFF1C0A94D2F7898D9A8DF3
:10433000AB8DBC8D09A404C0B695A79597958795BC
:104340000A94D2F7C82AD92AEA2AFB2AC9A2DAA2F1
:10435000EBA2FCA2E98CFA8C0B8D1C8D04C0EE0C38
:10436000FF1C001F111F2A95D2F7E9AAFAAA0BAB6E
:104370001CAB0D8D1E8D2F8D38A1390188249924F9
:104380002070307009AF1AAF2BAF3CAFC201B10142
:10439000A40193010E94F823A22ED32EE42E052F10
:1043A0006DAB7EAB8FAB98AFC201B101A40193019D
:1043B0000E94F8238A2D9D2DAE2DB02F898F9A8FC4
:1043C000AB8FBC8FBC01CD0129AD3AAD4BAD5CAD1F
:1043D0000E94D9232DA93EA94FA958AD8901FF24D8
:1043E000EE2429A03AA04BA05CA0920144275527B7
:1043F000E22AF32A042B152BE616F70608071907FD
:1044000050F5298D3A8D4B8D5C8D215030404040C8
:104410005040298F3A8F4B8F5C8F2D8C3E8C4F8C68
:1044200058A0E20CF31C041D151DE214F30404054E
:10443000150588F0E616F7060807190760F42150FD
:10444000304040405040298F3A8F4B8F5C8FE20CB8
:10445000F31C041D151DE61AF70A080B190BC801F9
:10446000B701A40193010E94F823D22EC32EB42ECB
:10447000552E6DAB7EAB8FAB98AFC801B701A401D1
:1044800093010E94F8238D2D9C2DAB2DB52D5C0141
:104490006D01C601B50129AD3AAD4BAD5CAD0E94D1
:1044A000D9238B019C014DA85EA86FA878ACB201FE
:1044B0005527442789A19AA1ABA1BCA1A070B070D7
:1044C000482B592B6A2B7B2B401751076207730728
:1044D00000F50894A108B108C108D1086D8C7E8C44
:1044E0008F8C98A0460D571D681D791D46155705E0
:1044F0006805790570F0401751076207730748F4A3
:104500000894A108B108C108D108460D571D681DBF
:10451000791DDB01CA01801B910BA20BB30B89A390
:104520009AA3ABA3BCA3298C3A8C4B8C5C8CD10195
:10453000992788278A299B29AC29BD292FEFE22EAC
:104540002FEFF22E012D112DE822F9220A231B2331
:104550003D0188249924ADA4BEA4CFA4D8A82FEFF0
:104560003FEF40E050E0A222B322C422D5224DA565
:104570005EA56FA578A91B0144245524C801B70185
:10458000A60195010E94D923698F7A8F8B8F9C8F0A
:10459000C801B701A20191010E94D9237B018C01BE
:1045A000C401B301A60195010E94D9235B016C01EE
:1045B000C401B301A20191010E94D9239B01AC0166
:1045C000EA0CFB1C0C1D1D1D298C3A8C4B8C5C8C41
:1045D000C201AA27BB27E80EF91E0A1F1B1FEA14F7
:1045E000FB040C051D0520F4205030404F4F5F4F59
:1045F000C801AA27BB27820F931FA41FB51F8701DD
:10460000FF24EE24298D3A8D4B8D5C8D40705070C7
:10461000E20EF31E041F151F49A05AA06BA07CA038
:10462000481659066A067B0670F084159505A6059E
:10463000B70599F569A87AA88BA89CA86E147F0481
:104640008006910650F5A80197018DA49EA4AFA401
:10465000B8A8281939094A095B095C016D012D8C3C
:104660003E8C4F8C58A0A218B308C408D50881E02E
:1046700090E0A0E0B0E0E216F3060407150718F09A
:1046800080E090E0DC0125013601481A590A6A0AE7
:104690007B0AD301C20179018A0169A87AA88BA893
:1046A0009CA86E187F08800A910A9401830149A191
:1046B0005AA16BA17CA1481B590B6A0B7B0B81E0B3
:1046C00090E0A0E0B0E089A89AA8ABA8BCA88016AA
:1046D0009106A206B30618F080E090E0DC01481BCA
:1046E000590B6A0B7B0B5A016B0109A404C0AA0C7D
:1046F000BB1CCC1CDD1C0A94D2F70DA004C036955F
:104700002795179507950A94D2F7A02AB12AC22AAD
:10471000D32AA98ABA8ACB8ADC8ACB01BA010DA036
:1047200004C096958795779567950A94D2F76D8B17
:104730007E8B8F8B988F2A2D3A894B895C897E8955
:104740008F89988DEC96E2E10C943624991B79E0E0
:1047500004C0991F961708F0961B881F7A95C9F711
:1047600080950895AA1BBB1B51E107C0AA1FBB1F60
:10477000A617B70710F0A61BB70B881F991F5A95ED
:10478000A9F780959095BC01CD01089597FB092E5E
:1047900007260AD077FD04D0E5DF06D000201AF402
:1047A000709561957F4F0895F6F7909581959F4F8D
:1047B0000895629FD001739FF001829FE00DF11D6B
:1047C000649FE00DF11D929FF00D839FF00D749F8B
:1047D000F00D659FF00D9927729FB00DE11DF91F37
:1047E000639FB00DE11DF91FBD01CF011124089594
:1047F000A1E21A2EAA1BBB1BFD010DC0AA1FBB1FE5
:10480000EE1FFF1FA217B307E407F50720F0A21B56
:10481000B30BE40BF50B661F771F881F991F1A94C3
:1048200069F760957095809590959B01AC01BD01ED
:10483000CF0108952F923F924F925F926F927F9295
:104840008F929F92AF92BF92CF92DF92EF92FF92A0
:104850000F931F93CF93DF93CDB7DEB7CA1BDB0B4C
:104860000FB6F894DEBF0FBECDBF09942A883988F1
:1048700048885F846E847D848C849B84AA84B984F8
:10488000C884DF80EE80FD800C811B81AA81B98104
:10489000CE0FD11D0FB6F894DEBF0FBECDBFED0118
:1048A0000895CF93DF938230910510F482E090E079
:1048B000E091AB03F091AC0340E050E020E030E049
:1048C00026C06081718168177907E0F06817790761
:1048D00081F4828193812115310531F0D90113963C
:1048E0009C938E9312972BC09093AC038093AB0351
:1048F00026C04115510519F06417750718F4AB016E
:10490000E901DF019F0172816381E72FF62F309764
:10491000C1F64115510501F1481B590B44305105B1
:1049200080F412968D919C911397209719F09B8398
:104930008A8304C09093AC038093AB03FD0132964D
:1049400046C0FD01E40FF51F819391934250504002
:1049500011965C934E933BC02091A9033091AA031A
:104960002115310541F42091BD023091BE023093F2
:10497000AA032093A9032091BF023091C002211500
:10498000310541F42DB73EB74091BB025091BC02B6
:10499000241B350BE091A903F091AA03E217F3075A
:1049A000A0F42E1B3F0B2817390778F0AC014E5F9F
:1049B0005F4F2417350748F04E0F5F1F5093AA032F
:1049C0004093A9038193919302C0E0E0F0E0CF010E
:1049D000DF91CF910895CF93DF93009709F491C0B1
:1049E000FC013297138212826091AB037091AC0389
:1049F0006115710581F420813181280F391F809163
:104A0000A9039091AA038217930799F5F093AA033B
:104A1000E093A90376C0DB0180E090E002C0CD0105
:104A2000D901AE17BF0748F412962D913C91139708
:104A300021153105A1F7CD0121C0B383A283EF0178
:104A4000499159919E01240F351FA217B30779F49C
:104A50002D913C911197240F351F2E5F3F4F3183CD
:104A6000208312962D913C911397338322830097D4
:104A700029F4F093AC03E093AB0343C0DC0113963D
:104A8000FC93EE9312974D915D91A40FB51FEA1719
:104A9000FB0769F420813181240F351F2E5F3F4FC2
:104AA000EC0139832883228133813B832A83E0E030
:104AB000F0E002C0FB01BC01DB0112968D919C91DC
:104AC00013970097B9F79B012E5F3F4F8D919C91F3
:104AD0001197820F931F4091A9035091AA03481781
:104AE000590779F4309729F41092AC031092AB0374
:104AF00002C013821282225030403093AA032093C6
:104B0000A903DF91CF910895A0E0B0E0EAE8F5E2D3
:104B10000C942224EC01688179818A819B81611542
:104B200071058105910521F464E279ED8BE597E04B
:104B30002DE133EF41E050E00E94442679018A01E3
:104B400027EA31E440E050E00E94D9235B016C0188
:104B5000C801B7012CEE34EF4FEF5FEF0E94D9236D
:104B60006A0D7B1D8C1D9D1D97FF04C06150704018
:104B700080409048688379838A839B837F77CB01C9
:104B8000CDB7DEB7EAE00C943E240E948425089558
:104B900081EC92E00E9484250895A0E0B0E080932B
:104BA000C1029093C202A093C302B093C4020895BD
:104BB000FB01DC0105900D920020E1F70895FB0157
:104BC0009F01E8944230C4F04532B4F44A3029F4ED
:104BD00097FB1EF4909581959F4F642F77270E9435
:104BE000B223805D8A330CF0895D8193CB010097FD
:104BF000A1F716F45DE251931082C9010C9434269A
:104C0000FA01CF93FF93EF93223044F1253234F52C
:104C1000C22FE894CA3049F497FB3EF490958095F2
:104C2000709561957F4F8F4F9F4F2C2F33274427CF
:104C30005527FF93EF930E94F823EF91FF91605D5A
:104C40006A330CF0695D6193B901CA01605070402C
:104C50008040904051F716F4CDE2C19310828F91BD
:104C60009F91CF910C943426DC01FC01672F719148
:104C70007723E1F7329704C07C916D937083629142
:104C8000AE17BF07C8F3089597FB092E05260ED06F
:104C900057FD04D0ADDD0AD0001C38F45095409586
:104CA000309521953F4F4F4F5F4F0895F6F7909500
:104CB0008095709561957F4F8F4F9F4F0895F89421
:024CC000FFCF24
:104CC20081422418182442810000000000000000E4
:104CD20000000000000000008142241818244281D4
:104CE20081422418182442810000000000000000C4
:104CF20000000000000000008142241818244281B4
:104D02000101004080C0105090D02060A0E03070BF
:104D1200B0F0044484C4145494D42464A4E43474D9
:104D2200B4F4084888C8185898D82868A8E8387889
:104D3200B8F80C4C8CCC1C5C9CDC2C6CACEC3C7C39
:104D4200BCFC014181C1115191D12161A1E13171BB
:104D5200B1F1054585C5155595D52565A5E5357589
:104D6200B5F5094989C9195999D92969A9E9397939
:104D7200B9F90D4D8DCD1D5D9DDD2D6DADED3D7DE9
:104D8200BDFD024282C2125292D22262A2E232726B
:104D9200B2F2064686C6165696D62666A6E6367639
:104DA200B6F60A4A8ACA1A5A9ADA2A6AAAEA3A7AE9
:104DB200BAFA0E4E8ECE1E5E9EDE2E6EAEEE3E7E99
:104DC200BEFE034383C3135393D32363A3E333731B
:104DD200B3F3074787C7175797D72767A7E73777E9
:104DE200B7F70B4B8BCB1B5B9BDB2B6BABEB3B7B99
:104DF200BBFB0F4F8FCF1F5F9FDF2F6FAFEF3F7F49
:104E0200BFFFD90BB10B2D0C3A20006D7300202887
:104E120000206D696E290073290A00000102020355
:104E2200030303040404040404040405050505053E
:104E3200050505050505050505050506060606061B
:104E42000606060606060606060606060606060600
:104E520006060606060606060606060707070707EB
:104E620007070707070707070707070707070707D0
:104E720007070707070707070707070707070707C0
:104E820007070707070707070707070707070707B0
:104E9200070707070707070707070708080808089B
:104EA2000808080808080808080808080808080880
:104EB2000808080808080808080808080808080870
:104EC2000808080808080808080808080808080860
:104ED2000808080808080808080808080808080850
:104EE2000808080808080808080808080808080840
:104EF2000808080808080808080808080808080830
:104F0200080808080808080808080808080808081F
:104F120008080808080808080808082000AD030067
:064F220000010000000088
:00000001FF
