:100000000C9441020C945E020C945E020C945E020D
:100010000C945E020C945E020C945E020C942A0610
:100020000C945E020C945E020C9426080C945E0202
:100030000C945E020C94E5030C9414040C945E0280
:100040000C945E020C945E020C945E020C945E02B0
:100050000C945E0276322E332052656C65617365B6
:100060000A00496E697469616C697A65643A2000B6
:1000700053656C662D54657374204572726F723AC5
:1000800020306200203D3E204E6F20616E73776508
:10009000722066726F6D20417564696F210A0020BD
:1000A0003D3E204E6F20616E737765722066726FE1
:1000B0006D204D656D6F7279210A00203D3E204311
:1000C000616E277420777269746520746F204D65A6
:1000D0006D6F7279210A00286429656C6574652C3E
:1000E00020286729657420616E696D732C20287340
:1000F00029657420616E696D732C202876296572DC
:1001000073696F6E0A00287429696D652C20286157
:10011000297564696F2C202863296F756E742C20F3
:10012000287829437573746F6D20636F756E740A38
:100130000028792953657420666978656420616EAA
:10014000696D6174696F6E20636F756E740A005318
:100150002865296C6620546573742C20286D296FDE
:1001600064650A00506C61792053286E29616B65C3
:100170000A00416C6C204C454473204F66662F4F3B
:100180006E2028302F31290A002832293A20546560
:10019000737420416E696D2E20310A002833293A8C
:1001A00020416C6C2053757266616365204C454438
:1001B00073206F6E0A0053797374656D2054696DF6
:1001C000653A2000204672616D65732073746F720A
:1001D00065640A0053656E64206120627974652E3F
:1001E0002E2E2000207772697474656E210A0041FA
:1001F0006E696D6174696F6E20636F756E74206EC9
:100200006F772038373035210A0053656C662D54DE
:100210006573743A203062004B696C6C65642041F0
:100220006E696D6174696F6E20436F756E7465726F
:10023000210A00436F756C64206E6F7420616363E4
:1002400065737320646576696365210A004175648E
:10025000696F20446174613A0A00436F6E74726F73
:100260006C733A2057204120532044205120452CC4
:10027000207820746F20717569740A0052616E20B5
:100280006F7574206F662048656170210A00416EA9
:10029000696D6174696F6E2061626F72746564214B
:1002A0000A002869296E7465727275707420636F14
:1002B000756E742C20287229616E646F6D2C202855
:1002C000712972657365740A0020496E74657272D3
:1002D0007570747320616674657220313030306DD2
:1002E0007365630A00204672616D657320706572E4
:1002F000205365636F6E640A004D656D6F727920DF
:1003000064656C65746564210A00526573657420C8
:10031000696E203530306D732E20427965210A00D8
:100320005761746368646F672052657365742064F5
:10033000657465637465642E0A0042726F776E2D72
:100340004F757420526573657420646574656374B9
:1003500065642E0A004E6F205265736574207265C5
:1003600061736F6E2064657465637465642E0A0042
:1003700045787465726E616C205265736574206493
:10038000657465637465642E0A004A5441472052BF
:10039000657365742064657465637465642E0A0012
:1003A000506F7765722D4F6E2052657365742064AF
:1003B000657465637465642E0A0059617921204172
:1003C0006E6F74686572206D696E757465207061FA
:1003D00073736564203A290A00417564696F204D82
:1003E0006F6465210A0043756265204D6F64652165
:1003F0000A0043756265206D6F646520656E7465E3
:10040000726564210A00417564696F206D6F6465CF
:1004100020656E7465726564210A00540070006284
:100420000084009F00BB00D700060131014F01642A
:1004300001720189019C01B601C401D401E401EFFC
:10044000010A02180233024D025A027C028E02A2F5
:1004500002C902E502F9020A0320033A03550370B8
:10046000038A03A003BA03D903E603F20306045385
:100470007472696E67206E6F7420666F756E64218A
:100480000A0011241FBECFE5D8E0DEBFCDBF11E0CA
:10049000A0E6B0E0E4E9F3E202C005900D92AE37C9
:1004A000B107D9F712E0AEE7B1E001C01D92A23664
:1004B000B107E1F70E94A7020C94C8110C94000048
:1004C000863561F1873580F4873411F1883438F44A
:1004D0008234E1F08434C1F08F3331F513C08834B5
:1004E00089F0833509F517C0883661F0893628F41C
:1004F000843651F08736C1F40BC0833761F08637FC
:1005000099F40CC086E00BC00E94BD0882E40DC0C7
:100510000E947F0F08950E94490B089580E00E9479
:1005200026090E942D05089583E20E94ED04089596
:10053000B0990AC080917F01882321F481E08093E3
:100540007F0102C010927F0180917F0108954F9238
:100550005F926F927F928F929F92AF92BF92CF9253
:10056000DF92EF92FF920F931F93CF93DF9384B7A5
:1005700080939A0114BE98E10FB6F89491BD11BC16
:100580000FBE8FEF8ABB8CEF81BB97BB84BB87B359
:10059000866087BBB8980E94B30589E190E068E067
:1005A00040E021E00E9457040E94A4060E941D081A
:1005B00078942EE088E190E00FB6F894A89581BD7C
:1005C0000FBE21BD81E690E00E945A050E9498026C
:1005D000D82E0E948B08C22EB32EA42E952E862EC6
:1005E000772E582E492E0E94DC08EC01FF24662449
:1005F000EE2480917E01882309F4A895DD2069F01E
:100600000E94AF05882309F460C00E94FF0700978D
:1006100009F45BC00E94960958C08091600088234D
:1006200031F00E94DC08EC0110926000EE2420976B
:10063000F1F00E94AF05681608F047C02E2D30E09B
:10064000CE0101972817390710F4E39401C0EE2476
:100650008E2D90E00E949C088C01FC01E05CFF4F15
:1006600060800E945A05C8010E94F7102EC0809138
:10067000800182FD2AC081FF0FC00E943A0BF8164C
:1006800038F40F2D0F5F8F2D0E943C0BF02E1DC0F4
:10069000809180018D7F16C00E94AF058033A8F045
:1006A000EF2DF0E0EE0FFF1FEF59FE4F808191819B
:1006B0000E945A053F2D333010F4F39406C0809108
:1006C0008001826080938001FF240E948904882336
:1006D00021F00E9497040E9460020E948B08F22F72
:1006E000FC19A1E02F1708F0A0E0232F2B19E1E05F
:1006F000321708F0E0E0322F3A1BA32F31E02A171F
:1007000008F030E0E32B342F3A1921E0431708F0CA
:1007100020E0432F4E1BE42F41E03E1708F040E05D
:10072000242B452F491931E0541708F030E0542F9D
:10073000521B21E0451708F020E0322B462F4819C4
:1007400021E0641708F020E0642F631B31E04617B6
:1007500008F030E0232B472F471931E0741708F0D9
:1007600030E0742F721B21E0471708F020E0322B95
:10077000482F451921E0841708F020E0842F831BBF
:1007800031E0481708F030E0232B9419921779F4E0
:10079000882369F4772359F4662349F4552339F4FF
:1007A000EE2329F4AA2319F4F73908F422CF0E9482
:1007B0009802D82E0E948B08C22EB32EA42E952EFE
:1007C000862E772E582E492E14CF1F920F920FB6D9
:1007D0000F9211248F939F93EF93FF93E0918301E6
:1007E000F09184018CB1E556FE4F808380918301A6
:1007F000909184018F31910550F480918301909103
:1008000084010196909384018093830104C0109227
:10081000840110928301FF91EF919F918F910F902E
:100820000FBE0F901F9018951F920F920FB60F9248
:1008300011242F933F938F939F93EF93FF932091D6
:100840008501309186018091870190918801281758
:100850003907F1F0E0918501F0918601E554FE4FF2
:1008600080818CB980918501909186018F319105AD
:1008700050F48091850190918601019690938601B4
:100880008093850109C0109286011092850104C0F1
:1008900081E0809367015598FF91EF919F918F912F
:1008A0003F912F910F900FBE0F901F9018954330DE
:1008B00060F5362F3550343040F5322F315032301C
:1008C00030F5442341F030B5306230BD423019F488
:1008D00030B5306130BD223019F420B5286020BD1C
:1008E000653061F0663011F0683029F420B522607F
:1008F00020BD663019F020B5246020BD90BD89B9B7
:100900008AB188698AB980E0089581E0089581E01C
:10091000089540918101509182012091830130918D
:10092000840181E04217530709F480E00895209183
:100930008101309182018091830190918401281777
:10094000390729F1E0918101F0918201E556FE4FCE
:100950008081E0918101F0918201E556FE4F108285
:1009600020918101309182012F31310558F420917D
:100970008101309182012F5F3F4F3093820120939C
:10098000810108951092820110928101089580E002
:10099000089580918701909188012091850130917F
:1009A000860101968217930791F0809185019091BD
:1009B0008601009779F4209187013091880181E0C8
:1009C00090E02F31310541F080E090E0089581E022
:1009D00090E0089580E090E00895209187013091A3
:1009E000880140918501509186012F5F3F4F241768
:1009F000350799F320918501309186012115310544
:100A000039F420918701309188012F31310529F384
:100A1000E0918701F0918801E554FE4F8083809139
:100A20008701909188018F31910550F48091870161
:100A3000909188010196909388018093870104C06A
:100A4000109288011092870180916701813021F412
:100A500010926701559A5D9A0895CF93DF93C82F3E
:100A6000D92F02C00E94ED0489918823D9F7DF9124
:100A7000CF9108951AB810BC10BC19B81092820119
:100A800010928101109286011092850110928401CA
:100A9000109283011092880110928701089520918D
:100AA0008D0130918E0140918F0150919001B901DB
:100AB000CA0108957FB7F89421E02093890110922C
:100AC0008A0110928C01482F592F80E090E019C0C4
:100AD0006D916095F901EE0FFF1FEE0FFF1FEE0FF6
:100AE000FF1FE80FF91FE552FE4F60832F5F3F4F56
:100AF0002830310569F70196485F5F4F88309105CE
:100B000021F0DA0120E030E0E3CF7FBF08959FB706
:100B1000F89421E02093890110928A0110928C01AF
:100B200020E030E0809510C0FB01E40FF51FE55296
:100B3000FE4F80834F5F5F4F48305105A9F72F5F0D
:100B40003F4F2830310549F040E050E0B901E3E083
:100B5000660F771FEA95E1F7E7CF9FBF0895809171
:100B60008A01869508958EB589608EBD82EC92EAE1
:100B70009BBD8ABD80E189BF80E00E948705789493
:100B800080E090E061E01DC07FB7F894FA01E20FC9
:100B9000F31FE552FE4FA0811082609389011092ED
:100BA0008A0110928C017FBF70918A017723E1F353
:100BB0002F5F3F4F2830310539F701968830910576
:100BC00049F020E030E0AC01F3E0440F551FFA9506
:100BD000E1F7DACFF89410928D0110928E01109205
:100BE0008F011092900110928A0110928C01089549
:100BF00089B78F7E89BF0895982F9C7F92BB98B349
:100C0000880F880F880F8871977E892B88BB08957D
:100C100095B3937095BB98B3997F98BB823058F089
:100C200095B321E030E002C0220F331F8A95E2F72E
:100C3000922B95BB0CC048B390E0019621E030E0C8
:100C400002C0220F331F8A95E2F7422B48BB6BBBD1
:100C5000000008951F920F920FB60F9211242F9348
:100C60003F934F935F936F937F938F939F93AF9334
:100C7000BF93CF93DF93EF93FF9380918C0180918B
:100C80008901882321F010928B011092890180E064
:100C90000E94FC05C0E0D0E0E0918B01F0E0A3E011
:100CA000EE0FFF1FAA95E1F7EC0FFD1FE552FE4F77
:100CB00060818C2F0E9408062196C830D10561F70B
:100CC00020918B0181E090E002C0880F991F2A9546
:100CD000E2F70E94FC0580918B01873030F480910F
:100CE0008B018F5F80938B0107C010928B018091E5
:100CF0008A018F5F80938A0110928C0180918D010F
:100D000090918E01A0918F01B09190010196A11D4B
:100D1000B11D80938D0190938E01A0938F01B093AC
:100D20009001FF91EF91DF91CF91BF91AF919F9192
:100D30008F917F916F915F914F913F912F910F9084
:100D40000FBE0F901F90189511B88CE080B90895D0
:100D500094EA96BF06B607FEFDCF91B1987F983012
:100D600011F0903179F483B984E886BF06B607FEA6
:100D7000FDCF91B1987F983139F081E0903429F41A
:100D800080E0089581E0089580E0089544EA34E821
:100D900024E946BF06B607FEFDCF91B1987F983093
:100DA00011F09031B1F783B936BF06B607FEFDCF1B
:100DB00091B1987F903211F0983529F426BF06B68C
:100DC00004FCFDCFE6CF08950E94A806089584E9AB
:100DD00086BF06B604FCFDCF089583B984E886BFBC
:100DE00006B607FEFDCF91B1987F81E0983209F4F5
:100DF00080E0089584EC86BF06B607FEFDCF83B180
:100E0000089584E886BF06B607FEFDCF83B1089536
:100E1000DF92EF92FF920F931F93DF93CF930F9286
:100E2000CDB7DEB77B018C0180E0E81680E0F806E4
:100E300081E0080780E0180718F490EAD92E02C074
:100E400082EAD82E8D2D0E94A806882381F40E9464
:100E5000ED068E2D0E94ED068D2D81600E94E40628
:100E60000E94010789830E94E706898101C080E012
:100E70000F90CF91DF911F910F91FF90EF90DF9036
:100E800008958F929F92AF92BF92CF92DF92EF928E
:100E9000FF920F931F93CF93DF934B015C0180E090
:100EA000881680E0980681E0A80680E0B80618F46D
:100EB00030EAE32E02C022EAE22E042F10E0C8013D
:100EC0000E945D10EC016C01009759F18E2D0E947B
:100ED000A806882321F50E94ED06882D0E94ED06C4
:100EE0008E2D81600E94E406BB244801089481088D
:100EF000910807C00E94FA06FE01EE0DFF1D8083D7
:100F0000B394EB2CFF24E814F904A4F30E94010726
:100F1000C00FD11F219788830E94E70602C0CC240E
:100F2000DD24C601DF91CF911F910F91FF90EF90CB
:100F3000DF90CF90BF90AF909F908F900895EF92E9
:100F4000FF920F931F93CF937B018C01C42F80E0FE
:100F5000E81680E0F80681E0080780E0180710F442
:100F600080EA01C082EA0E94A806882351F40E9408
:100F7000ED068E2D0E94ED068C2F0E94ED060E943C
:100F8000E706CF911F910F91FF90EF900895CF92B8
:100F9000DF92EF92FF920F931F93CF93DF937B012A
:100FA0008C01D42EC52FC22E80E0E81680E0F80612
:100FB00081E0080780E0180710F480EA01C082EAA7
:100FC0000E94A806882391F40E94ED068E2D0E94AF
:100FD000ED068C2FCD2DD82F03C089910E94ED06F0
:100FE0008C2F8D198C15C8F30E94E706DF91CF91E5
:100FF0001F910F91FF90EF90DF90CF900895CF93C6
:10100000DF9383E40E94A806882389F4CBE1D2E031
:101010000E94FA06899382E0C132D807C9F70E947C
:101020000107809321020E94E706269702C0C0E0D4
:10103000D0E0CE01DF91CF91089583B78B6083BF5D
:101040008AEF8CBF89B7826089BF08951F920F9283
:101050000FB60F9211242F933F934F935F936F938B
:101060007F938F939F93AF93EF93FF934091920160
:101070003091930120919401909195018091960176
:10108000F0919701E0919801A0919901642F6F5F11
:1010900051E0641708F050E0530F41E0531708F097
:1010A00040E0420F31E0421708F030E0390F21E014
:1010B000391708F020E0280F91E0281708F090E099
:1010C0009F0F81E09F1708F080E08E0F71E08E1770
:1010D00008F070E07A0F609392015093930140936F
:1010E00094013093950120939601909397018093FA
:1010F000980170939901FF91EF91AF919F918F911A
:101100007F916F915F914F913F912F910F900FBE03
:101110000F901F901895209192013091930140916A
:101120009401509195016091960170919701809181
:101130009801909199010895BC0126E0660F771FF0
:101140002A95E1F7680F791F605E7F4F80E090E09D
:1011500041E40E9441070895AB01BC0136E0660FEF
:10116000771F3A95E1F7680F791F605E7F4F80E047
:1011700090E021E40E94C7070895EF92FF920F9339
:101180001F93EE24FF248701C801B70140E00E94AD
:101190009F070894E11CF11C011D111D80E0E81659
:1011A00080E0F80682E0080780E0180769F71F91E1
:1011B0000F91FF90EF900895CF9360E070E0CB0126
:1011C0000E940807C82F61E070E080E090E00E9474
:1011D00008072C2F30E0582F40E0242B352B87E0D8
:1011E000213E380710F020EE37E0C901CF91089575
:1011F000CF93482FC92F60E070E0CB010E949F077A
:1012000061E070E080E090E04C2F0E949F07CF915A
:101210000895462F8E3150F490E002969C01B9015A
:10122000882777FD8095982F0E949F0708958E311B
:1012300058F4682F70E06E5F7F4F882777FD8095A8
:10124000982F0E940807089580E008958A3248F494
:10125000E82FF0E0EE0FFF1FE55EFB4F2591349184
:1012600004C0EFE6F4E02591349182E292E0B90106
:101270000E94901182E292E0089580E490E00E9442
:101280005D109C01009709F4FFCFE82FF92FCF01E3
:10129000805C9F4F1192E817F907E1F7C9010895A3
:1012A000A7E0B0E0FD01E41BF109AD01421B5109CB
:1012B0009A0143E0220F331F4A95E1F7E20FF31F33
:1012C000E80FF91F81E090E002C0880F991F6A952E
:1012D000E2F72081282B20830895A7E0B0E0FD01EC
:1012E000E41BF109AD01421B51099A0153E0220FA1
:1012F000331F5A95E1F7E20FF31FE80FF91F81E062
:1013000090E002C0880F991F6A95E2F7809590815E
:10131000982390830895282F392FF90180E41192A2
:101320008150E9F708950E94F7100895AF92BF9297
:10133000DF92EF92FF920F931F93DF93CF9300D032
:10134000CDB7DEB7F82E092F0E943D095C01802F32
:101350000F2D182F30E08FE1F82EF80181918F01C9
:101360006F2D0E943D10D82E50E010C0C501632F94
:101370004E2D252F3A8359830E945009E3945981B9
:101380003A81ED149CF35F5F583011F0EE24F9CFF1
:101390003F5F373011F7C5010E945A05C5010E9411
:1013A00093090F900F90CF91DF911F910F91FF90B4
:1013B000EF90DF90BF90AF9008950895EF92FF9265
:1013C0000F931F93DF93CF930F92CDB7DEB70E9499
:1013D0003D097C0117E01FC0C701602F432F212F5B
:1013E00039830E94500939813F5F3830A9F70F5F78
:1013F000083011F030E0F0CFC7010E945A0501C05B
:10140000A8950E94AF058230D8F3C7010E948B09CE
:1014100011501F3F11F000E0EDCFC7010E94F710FF
:101420000F90CF91DF911F910F91FF90EF90089552
:10143000EF92FF920F931F93DF93CF930F92CDB74D
:10144000DEB70E943D097C0110E01FC0C701632F79
:10145000402F212F39830E94500939813F5F383056
:10146000A9F70F5F083011F030E0F0CFC7010E94FC
:101470005A0501C0A8950E94AF058230D8F3C70174
:101480000E948B091F5F183011F000E0EDCFC701FB
:101490000E94F7100F90CF91DF911F910F91FF9055
:1014A000EF900895EF92FF920F931F93DF93CF93E6
:1014B0000F92CDB7DEB70E943D097C0117E01FC037
:1014C000C701612F402F232F39830E945009398192
:1014D0003F5F3830A9F70F5F083011F030E0F0CFF0
:1014E000C7010E945A0501C0A8950E94AF0582302D
:1014F000D8F3C7010E948B0911501F3F11F000E083
:10150000EDCFC7010E94F7100F90CF91DF911F918F
:101510000F91FF90EF900895EF92FF920F931F931A
:10152000DF93CF930F92CDB7DEB70E943D097C01C8
:1015300010E01FC0C701612F402F232F39830E9465
:10154000500939813F5F3830A9F70F5F083011F03B
:1015500030E0F0CFC7010E945A0501C0A8950E9453
:10156000AF058230D8F3C7010E948B091F5F183086
:1015700011F000E0EDCFC7010E94F7100F90CF915E
:10158000DF911F910F91FF90EF900895EF92FF92DE
:101590000F931F93DF93CF930F92CDB7DEB70E94C7
:1015A0003D097C0117E01FC0C701602F412F232F89
:1015B00039830E94500939813F5F3830A9F70F5FA6
:1015C000083011F030E0F0CFC7010E945A0501C089
:1015D000A8950E94AF058230D8F3C7010E948B09FD
:1015E00011501F3F11F000E0EDCFC7010E94F7102E
:1015F0000F90CF91DF911F910F91FF90EF90089581
:10160000EF92FF920F931F93DF93CF930F92CDB77B
:10161000DEB70E943D097C0110E01FC0C701602FAA
:10162000412F232F39830E94500939813F5F383081
:10163000A9F70F5F083011F030E0F0CFC7010E942A
:101640005A0501C0A8950E94AF058230D8F3C701A2
:101650000E948B091F5F183011F000E0EDCFC70129
:101660000E94F7100F90CF91DF911F910F91FF9083
:10167000EF90089586E00895863050F4E82FF0E06A
:10168000EE0FFF1FE859FE4F0190F081E02D099504
:1016900008952F923F924F925F926F927F928F9216
:1016A0009F92AF92BF92CF92DF92EF92FF920F93F1
:1016B0001F93DF93CF93CDB7DEB72B970FB6F89478
:1016C000DEBF0FBECDBF81E490E00E945D10898334
:1016D0009A832C010E948B08B22EC32ED42E152F74
:1016E000062FF72EE82EA92E82E40E94ED046CC08E
:1016F0000E948B08A22FAB19F1E02A1708F0F0E046
:10170000232F2C19E1E0321708F0E0E0322F3F1BC5
:10171000F32F31E02F1708F030E0E32B342F3D1981
:1017200021E0431708F020E0432F4E1BE42F41E057
:101730003E1708F040E0242B452F411B31E05417A1
:1017400008F030E0542F521B21E0451708F020E04C
:10175000322B462F401B21E0641708F020E0642F55
:10176000631B31E0461708F030E0232B472F4F1959
:1017700031E0741708F030E0742F721B21E0471736
:1017800008F020E0322B482F4E1921E0841708F092
:1017900020E0842F831B31E0481708F030E0232B32
:1017A0009A19921789F4882379F4772369F46623C8
:1017B00059F4552349F4EE2339F4F63028F4F53082
:1017C00011F4AD3D08F4A8950E948904882309F41A
:1017D0008FCF0E9497048B8382E40E94ED048824BB
:1017E00099243324C201805C9F4F9F838E838EC1D6
:1017F0000E948B08E22FEB19F1E02E1708F0F0E0C1
:10180000232F2C19A1E0321708F0A0E0322F3F1B44
:10181000F32F31E02F1708F030E0A32B342F3D19C0
:1018200021E0431708F020E0432F4A1BA1E03417C2
:1018300008F0A0E02A2BA52FA11B31E05A1708F0D1
:1018400030E05A2F521B21E0A51708F020E0322B80
:10185000B62FB01B21E06B1708F020E0AB2FA31BC5
:1018600031E0BA1708F030E0232B672F6F1931E011
:10187000761708F030E0762F721B21E0671708F02A
:1018800020E0322B682F6E1921E0861708F020E047
:10189000862F831B31E0681708F030E0232B9A195C
:1018A000921789F4882379F4772369F4AA2359F4E9
:1018B000552349F4442339F4F63028F4F53011F473
:1018C000ED3D08F4A8950E948904882309F490CF7F
:1018D0000E949704282E82E40E94ED0434010EC178
:1018E0000E948B08E22FEB19F1E02E1708F0F0E0D0
:1018F000A32FAC1921E03A1708F020E03A2F3F1B44
:10190000F1E0A31708F0F0E02F2BA42FAD19F1E0C0
:101910004A1708F0F0E04A2F421B21E0A41708F014
:1019200020E0F22BA52FA11B21E05A1708F020E0A0
:101930005A2F5F1BF1E0A51708F0F0E02F2BA62F20
:10194000A01BF1E06A1708F0F0E06A2F621B21E0AB
:10195000A61708F020E0F22B272F2F19A1E072170D
:1019600008F0A0E0722F7F1BF1E0271708F0F0E0ED
:10197000AF2BF82FFE1921E08F1708F020E08F2FF2
:101980008A1BA1E0F81708F0A0E02A2B9A199217F9
:1019900089F4882379F4772369F4662359F455236D
:1019A00049F4442339F4363028F4353011F4ED3D50
:1019B00008F4A8950E948904882309F491CF0E9415
:1019C0009704EE81FF81808382E40E94ED04998177
:1019D0008A81292F382FC901805C9F4F9D838C837A
:1019E000398728876BC00E948B08E22FEB19F1E042
:1019F0002E1708F0F0E0232F2C19A1E0321708F081
:101A0000A0E0322F3F1BF32F31E02F1708F030E01A
:101A1000A32B342F3D1921E0431708F020E0432F7A
:101A20004A1BA1E0341708F0A0E02A2BA52FA11B28
:101A300031E05A1708F030E05A2F521B21E0A51769
:101A400008F020E0322BB62FB01B21E06B1708F016
:101A500020E0AB2FA31B31E0BA1708F030E0232BB6
:101A6000672F6F1931E0761708F030E0762F721B80
:101A700021E0671708F020E0322B682F6E1921E073
:101A8000861708F020E0862F831B31E0681708F0E6
:101A900030E0232B9A19921789F4882379F477235D
:101AA00069F4AA2359F4552349F4442339F4F63050
:101AB00028F4F53011F4ED3D08F4A8950E9489044E
:101AC000882309F490CF0E949704E885F9858193D3
:101AD000F987E8872C813D81E217F30779F782E4E3
:101AE0000E94ED0493012F5F3F4FC301B2012A878B
:101AF0003B870E94AC082A853B853901862D8819D1
:101B0000821508F457CF820C911C33943B81331615
:101B100008F4D9CEC2010E94F7106CC00E948B0855
:101B2000A22FAB19F1E02A1708F0F0E0232F2C19AF
:101B3000E1E0321708F0E0E0322F3F1BF32F31E0F5
:101B40002F1708F030E0E32B342F3D1921E0431725
:101B500008F020E0432F4E1BE42F41E03E1708F031
:101B600040E0242B452F411B31E0541708F030E0B2
:101B7000542F521B21E0451708F020E0322B462F4E
:101B8000401B21E0641708F020E0642F631B31E064
:101B9000461708F030E0232B472F4F1931E0741718
:101BA00008F030E0742F721B21E0471708F020E0A6
:101BB000322B482F4E1921E0841708F020E0842FA3
:101BC000831B31E0481708F030E0232B9A19921755
:101BD00089F4882379F4772369F4662359F455232B
:101BE00049F4EE2339F4F63028F4F53011F4AD3D24
:101BF00008F4A8950E948904882309F48FCF0E94D5
:101C000097046CC00E948B08A22FAB19F1E02A1731
:101C100008F0F0E0232F2C19E1E0321708F0E0E0A3
:101C2000322F3F1BF32F31E02F1708F030E0E32B6A
:101C3000342F3D1921E0431708F020E0432F4E1BBD
:101C4000E42F41E03E1708F040E0242B452F411BD4
:101C500031E0541708F030E0542F521B21E04517B3
:101C600008F020E0322B462F401B21E0641708F0DB
:101C700020E0642F631B31E0461708F030E0232B8F
:101C8000472F4F1931E0741708F030E0742F721BA2
:101C900021E0471708F020E0322B482F4E1921E0B1
:101CA000841708F020E0842F831B31E0481708F0E8
:101CB00030E0232B9A19921789F4882379F477233B
:101CC00069F4662359F4552349F4EE2339F4F630C8
:101CD00028F4F53011F4AD3D08F4A8950E9489046C
:101CE000882309F48FCF0E9497046CC00E948B0850
:101CF000A22FAB19F1E02A1708F0F0E0232F2C19DE
:101D0000E1E0321708F0E0E0322F3F1BF32F31E023
:101D10002F1708F030E0E32B342F3D1921E0431753
:101D200008F020E0432F4E1BE42F41E03E1708F05F
:101D300040E0242B452F411B31E0541708F030E0E0
:101D4000542F521B21E0451708F020E0322B462F7C
:101D5000401B21E0641708F020E0642F631B31E092
:101D6000461708F030E0232B472F4F1931E0741746
:101D700008F030E0742F721B21E0471708F020E0D4
:101D8000322B482F4E1921E0841708F020E0842FD1
:101D9000831B31E0481708F030E0232B9A19921783
:101DA00089F4882379F4772369F4662359F4552359
:101DB00049F4EE2339F4F63028F4F53011F4AD3D52
:101DC00008F4A8950E948904882309F48FCF0E9403
:101DD00097046CC00E948B08A22FAB19F1E02A1760
:101DE00008F0F0E0232F2C19E1E0321708F0E0E0D2
:101DF000322F3F1BF32F31E02F1708F030E0E32B99
:101E0000342F3D1921E0431708F020E0432F4E1BEB
:101E1000E42F41E03E1708F040E0242B452F411B02
:101E200031E0541708F030E0542F521B21E04517E1
:101E300008F020E0322B462F401B21E0641708F009
:101E400020E0642F631B31E0461708F030E0232BBD
:101E5000472F4F1931E0741708F030E0742F721BD0
:101E600021E0471708F020E0322B482F4E1921E0DF
:101E7000841708F020E0842F831B31E0481708F016
:101E800030E0232B9A19921789F4882379F4772369
:101E900069F4662359F4552349F4EE2339F4F630F6
:101EA00028F4F53011F4AD3D08F4A8950E9489049A
:101EB000882309F48FCF0E94970482E40E94ED04E6
:101EC000C4010E94F80881E0809360002B960FB651
:101ED000F894DEBF0FBECDBFCF91DF911F910F9160
:101EE000FF90EF90DF90CF90BF90AF909F908F903A
:101EF0007F906F905F904F903F902F9008956F92DA
:101F00007F928F929F92AF92BF92CF92DF92EF9289
:101F1000FF920F931F93CF93DF930E94DC086C0115
:101F20006FEF70E00E944910009711F4862E02C0F6
:101F3000862E839482E40E94ED04882D0E94ED0495
:101F40000E949704823409F058C000E010E041C0BC
:101F50008FEFC816D10409F010F49C2C02C099240C
:101F60009A94892D0E94ED040E949704823409F00E
:101F700044C0780126C0C7010E949C08EC01FC0106
:101F8000E05CFF4F80810E94ED040E949704823440
:101F900089F45E0180E4682EF50181915F010E9461
:101FA000ED046A94C9F70E9497040894E11CF11C9F
:101FB000823421F0CE010E94F7101FC0CE010E9492
:101FC000F7108E2D87198915B0F2C918D108015064
:101FD0001F4F702E802F8195881508F4B9CF82E4A9
:101FE0000E94ED0482E40E94ED0482E40E94ED046C
:101FF00082E40E94ED040E949704DF91CF911F912B
:102000000F91FF90EF90DF90CF90BF90AF909F9097
:102010008F907F906F9008951F93CF93DF930E94CE
:10202000FF07EC01009731F485E10E9426090E9428
:102030002D051FC086E10E9426090E942D0510E390
:10204000812F0E94ED0484E791E00E942D05899183
:1020500090E062E272E04AE050E00E94971182E272
:1020600092E00E942D058AE00E94ED041F5F173365
:1020700039F7DF91CF911F910895991B79E004C042
:10208000991F961708F0961B881F7A95C9F78095B7
:102090000895AA1BBB1B51E107C0AA1FBB1FA617AF
:1020A000B70710F0A61BB70B881F991F5A95A9F701
:1020B00080959095BC01CD010895CF93DF93823038
:1020C000910510F482E090E0E0916002F0916102ED
:1020D00040E050E020E030E026C060817181681768
:1020E0007907E0F06817790781F4828193812115DF
:1020F000310531F0D90113969C938E9312972BC022
:10210000909361028093600226C04115510519F039
:102110006417750718F4AB01E901DF019F017281B3
:102120006381E72FF62F3097C1F64115510501F174
:10213000481B590B4430510580F412968D919C91A7
:102140001397209719F09B838A8304C090936102B0
:1021500080936002FD01329646C0FD01E40FF51F39
:10216000819391934250504011965C934E933BC0A3
:1021700020915E0230915F022115310541F42091DA
:10218000790130917A0130935F0220935E022091B1
:102190007B0130917C012115310541F42DB73EB70B
:1021A0004091770150917801241B350BE0915E023C
:1021B000F0915F02E217F307A0F42E1B3F0B2817E4
:1021C000390778F0AC014E5F5F4F2417350748F0B0
:1021D0004E0F5F1F50935F0240935E028193919375
:1021E00002C0E0E0F0E0CF01DF91CF910895CF93FE
:1021F000DF93009709F491C0FC0132971382128299
:1022000060916002709161026115710581F4208115
:102210003181280F391F80915E0290915F028217F1
:10222000930799F5F0935F02E0935E0276C0DB01BD
:1022300080E090E002C0CD01D901AE17BF0748F49D
:1022400012962D913C91139721153105A1F7CD01DF
:1022500021C0B383A283EF01499159919E01240FBC
:10226000351FA217B30779F42D913C911197240FD4
:10227000351F2E5F3F4F3183208312962D913C9165
:10228000139733832283009729F4F0936102E0933C
:10229000600243C0DC011396FC93EE9312974D91BC
:1022A0005D91A40FB51FEA17FB0769F42081318106
:1022B000240F351F2E5F3F4FEC0139832883228185
:1022C00033813B832A83E0E0F0E002C0FB01BC01E4
:1022D000DB0112968D919C9113970097B9F79B01A2
:1022E0002E5F3F4F8D919C911197820F931F4091CC
:1022F0005E0250915F024817590779F4309729F42C
:10230000109261021092600202C013821282225067
:10231000304030935F0220935E02DF91CF910895A9
:10232000FB01DC0105900D920020E1F70895FB010F
:102330009F01E8944230C4F04532B4F44A3029F4A5
:1023400097FB1EF4909581959F4F642F77270E94ED
:102350004910805D8A330CF0895D8193CB01009731
:10236000A1F716F45DE251931082C9010C94B811E3
:10237000DC01FC01672F71917723E1F7329704C0EC
:102380007C916D9370836291AE17BF07C8F3089577
:04239000F894FFCFEF
:1023940001FFFFFFFFFFFFFFFFFF8181818181813B
:1023A400FFFF818181818181FFFF81818181818121
:1023B400FFFF818181818181FFFF81818181818111
:1023C400FFFF818181818181FFFFFFFFFFFFFFFF0D
:1023D400FFFF010101FF8080FFFF010101FF8080F9
:1023E400FFFF010101FF8080FFFF010101FF8080E9
:1023F400FFFF010101FF8080FFFF010101FF8080D9
:10240400FFFF010101FF8080FFFF010101FF8080C8
:10241400FF7E818181FF8181817E818181FF818134
:10242400817E818181FF8181817E818181FF8181A2
:10243400817E818181FF8181817E818181FF818192
:10244400817E818181FF8181817E818181FF818182
:10245400811E2222221E0202021E2222221E0202A9
:10246400021E2222221E0202021E2222221E020218
:10247400021E2222221E0202021E2222221E020208
:10248400021E2222221E0202021E2222221E0202F8
:1024940002A100E100210101000BC60A8C0A520AC4
:0E24A400180ADE093A20002000620200000043
:00000001FF
