:100000000C94E2020C94FF020C94FF020C94FF0289
:100010000C94FF020C94FF020C94FF020C94B207A4
:100020000C94FF020C94FF020C94980A0C94FF02AB
:100030000C94FF020C9448060C9477060C94FF0273
:100040000C94FF020C94FF020C94FF020C94FF022C
:100050000C94FF02EA04EC04F804F0044905490595
:100060004905490549054905490549054905490520
:100070004905F60349056C04F4036F042A04E704F8
:1000800032044204F6033D054905490549054A0481
:100090004C059D04CF0461046604450469048E0484
:1000A00048044905C304D2044905490549054905E1
:1000B0004905490549056C0449056F042A04E7040C
:1000C00032044204F6033D054905490549054A0441
:1000D0004C059D04CF0461046604450469048E0444
:1000E00048044905C304D204004080C0105090D099
:1000F0002060A0E03070B0F0044484C4145494D460
:100100002464A4E43474B4F4084888C8185898D80F
:100110002868A8E83878B8F80C4C8CCC1C5C9CDCBF
:100120002C6CACEC3C7CBCFC014181C1115191D1E7
:100130002161A1E13171B1F1054585C5155595D50F
:100140002565A5E53575B5F5094989C9195999D9BF
:100150002969A9E93979B9F90D4D8DCD1D5D9DDD6F
:100160002D6DADED3D7DBDFD024282C2125292D297
:100170002262A2E23272B2F2064686C6165696D6BF
:100180002666A6E63676B6F60A4A8ACA1A5A9ADA6F
:100190002A6AAAEA3A7ABAFA0E4E8ECE1E5E9EDE1F
:1001A0002E6EAEEE3E7EBEFE034383C3135393D347
:1001B0002363A3E33373B3F3074787C7175797D76F
:1001C0002767A7E73777B7F70B4B8BCB1B5B9BDB1F
:1001D0002B6BABEB3B7BBBFB0F4F8FCF1F5F9FDFCF
:1001E0002F6FAFEF3F7FBFFF76322E350A0053658A
:1001F0006C662D54657374204572726F723A2030AC
:100200006200496E697469616C697A65643A2000BC
:10021000203D3E204E6F20616E73776572206672BE
:100220006F6D20417564696F210A00203D3E204EAC
:100230006F20616E737765722066726F6D204D65F9
:100240006D6F7279210A00203D3E2043616E277454
:1002500020777269746520746F204D656D6F7279B7
:10026000210A00286429656C6574652C202867299B
:10027000657420616E696D732C2028732965742064
:10028000616E696D732C20287629657273696F6EB3
:100290000A00287429696D652C2028612975646914
:1002A0006F2C202863296F756E742C2028782943C1
:1002B0007573746F6D20636F756E740A00287929E9
:1002C0005365742061206672616D652C2073696DC1
:1002D0002870296C6520616E696D0A007428652993
:1002E00073742C20286D296F64652C20642875296F
:1002F0006D700A00506C61792053286E29616B651E
:100300000A00416C6C204C454473204F66662F4FA9
:100310006E2028302F31290A002832293A205465CE
:10032000737420416E696D2E20310A002833293AFA
:1003300020416C6C2053757266616365204C4544A6
:1003400073206F6E0A0053797374656D2054696D64
:10035000653A2000204672616D65732073746F7278
:1003600065640A004E657720616E696D6174696F1E
:100370006E20636F756E743A2000647572617469E3
:10038000286F296E004672616D6520746F20636866
:10039000616E67653A200053656C662D5465737411
:1003A0003A203062004B696C6C656420416E696D67
:1003B0006174696F6E20436F756E746572210A00F7
:1003C000436F756C64206E6F742061636365737333
:1003D00020646576696365210A00417564696F2050
:1003E000446174613A0A00436F6E74726F6C733AC1
:1003F0002057204120532044205120452C20782094
:10040000746F20717569740A0052616E206F757483
:10041000206F662048656170210A00416E696D6138
:1004200074696F6E2061626F72746564210A0028BE
:1004300069296E7465727275707420636F756E745D
:100440002C20287229616E646F6D2C20287129720E
:10045000657365740A0020496E74657272757074F4
:100460007320616674657220313030306D7365635E
:100470000A00204672616D657320706572205365B5
:10048000636F6E640A004D656D6F72792064656CF0
:1004900065746564210A00526573657420696E2075
:1004A0003530306D732E20427965210A00456E7417
:1004B0006572206672616D6520746F2064756D7061
:1004C0003A2000466F726D617474696E67206D65C5
:1004D0006D6F72792E2E2E2000446F6E65210A00FA
:1004E0002866296F726D6174206D656D6F72790A6F
:1004F000004475726174696F6E3A200053746172C2
:10050000743A200038204C617965726279746573A1
:100510002E2E2E0A0053746F72696E6720696E204A
:1005200038206672616D65732E2E2E0A00456E644A
:10053000653A200043756265206D6F646520656EC5
:100540007465726564210A00417564696F206D6F7E
:10055000646520656E7465726564210A00E801EEC9
:1005600001020210022B02470263029202BD02DC6A
:1005700002F402020319032C034603540364037AB2
:100580000385039703A503C003DA03E70309041BEC
:10059000042F045604720486049704AD04C304D9DE
:1005A00004E004F104FC04040515052D0534054898
:1005B00005537472696E67206E6F7420666F756E76
:1005C00064210A0011241FBECFE5D8E0DEBFCDBFF5
:1005D00011E0A0E6B0E0E4E7F4E502C005900D927A
:1005E000AA3DB107D9F712E0AAEDB1E001C01D9212
:1005F000A43CB107E1F70E9455050C94382A0C94ED
:1006000000008FEF8ABB8CEF81BB98E197BB84BB66
:1006100087B3866087BBB8980E94C30889E190E0E1
:1006200068E040E021E00E94BA060E940C090E94A6
:100630008F0A789485E690E00E9462080895CF932F
:10064000DF930E94710AC1E0009709F0C0E060E00A
:1006500070E0CB0141E00E94AA09009711F4C2604A
:1006600002C00E94AB2780E063E20E948D0B80E015
:100670000E949B0B833211F0C46002C0CC2341F175
:1006800081E00E94AA0B0E949007DC2F8C2F90E043
:1006900062E872E042E050E00E94B5290E949007B3
:1006A0008AE00E945007C0FF05C083E00E94AA0BA9
:1006B0000E949007D1FF05C084E00E94AA0B0E940F
:1006C0009007D2FF05C085E00E94AA0B0E94900708
:1006D0008C2FDF91CF910895AF92BF92CF92DF928E
:1006E000EF92FF920F931F93CF93DF9380E490E0FC
:1006F0000E941127C82FD92F209731F488E10E943A
:10070000AA0B0E9490074EC0E82FF92FCF01805C02
:100710009F4F1192E817F907E1F700E010E191E02F
:10072000C92ED12CA895CE010E9462080E94BF0854
:100730008823E1F30E9488285C010E9488287C01BC
:100740000E9488289C01C701B8010E948626E62FD6
:10075000F0E083E0EE0FFF1F8A95E1F7C501B801D5
:100760000E948626E60FF11DEC0FFD1FC901B8019E
:100770000E948626C60102C0880F991F6A95E2F77B
:10078000BC018081862780830E94EC06882351F279
:1007900089E10E94AA0B0E949007CE010E94AB271C
:1007A0000E94FA06DF91CF911F910F91FF90EF9079
:1007B000DF90CF90BF90AF900895CF92DF92EF92ED
:1007C000FF920F931F93CF93DF9390E0C0978A34EB
:1007D000910508F05EC1865D9F4FFC01EE0FFF1F83
:1007E0000590F491E02D099482E454C186E00E94C2
:1007F000AA0B0E94900787E00E94AA0B0E94900714
:1008000088E00E94AA0B0E94900789E00E94AA0B30
:100810000E9490078AE00E94AA0B0E9490078AE13A
:100820000E94AA0B0E94900782E20E94AA0B0E94DB
:10083000900781E10E94AA0B0E9490078BE00E9422
:10084000AA0B0E9490078CE00E94AA0B0E949007BE
:100850008DE00EC180E090E00E947C0B82E40E945B
:1008600050070CC080E20E94AA0B0E9490070E94D1
:10087000400B81E20E94AA0B0E94900781E08093C6
:10088000DB010AC10E94991707C10E944A12F6CFE4
:1008900080E0EEC08091DC01882311F48091A500F6
:1008A00081508093DC018091DC01882341F06AE073
:1008B0000E94281980E20E94500789E2D9C088E28C
:1008C000D7C081E08093DA018EE1D2C00E946C0330
:1008D000E3C00E94CE17E0C00E949D17DDC00E94B9
:1008E000600B62E872E04AE050E00E94B5290E9485
:1008F000900780E690E00E9490078091DB0190E0F5
:1009000062E872E04AE050E00E94B5290E94900738
:1009100083E690E00E9490078FE0AAC08FE10E94DA
:10092000AA0B0E9490078AE00E94151990E00E948D
:100930000E0BEC010E94881846C084E20E94AA0BAC
:100940000E9490078AE00E941519C82F87E20E9432
:10095000AA0B0E9490078AE00E941519E82E83E2F4
:100960000E94AA0B0E9490078AE00E941519082F86
:1009700006C08C2F90E0602F0E942F0BCF5FEC16EB
:10098000C0F781E275C080E10E94AA0B0E94900727
:100990008AE00E94151990E00E947C0B6FCF0E94A4
:1009A0007A197AC082E10E94AA0B0E9490078AE01D
:1009B0000E941519082F0E943819EC01802F90E031
:1009C000BE010E941E0BCE010E94AB2765C00E9493
:1009D0001F0362C080E001C08FEF0E94970804C02F
:1009E00085E690E00E94620881E08093DF0154C0B8
:1009F00080E00E949708DD2441E0E42EF12C29C01C
:100A0000188200E010E0C701002E02C0880F991F75
:100A10000A94E2F72881282B288385E690E00E943B
:100A2000620805C0A8950E94EC068823F1F40E9494
:100A3000BF088823B9F30F5F1F4F0830110519F75E
:100A4000CA942196CC20E1F6D394FD2DF83008F01D
:100A5000DD24CD2DD0E033E0CC0FDD1F3A95E1F75A
:100A6000CB59DF4F28E0C22ECBCF0E94FA0689E196
:100A70000E94AA0B0E9490070FC00E94570842E8EC
:100A800052E02AE030E00E94D6290E9490078AE0D6
:100A900001C083E20E945007DF91CF911F910F9117
:100AA000FF90EF90DF90CF900895BF92CF92DF92AA
:100AB000EF92FF920F931F93CF93DF9314BE88E1C1
:100AC0000FB6F89481BD11BC0FBE0E9401032EE049
:100AD00088E190E00FB6F894A89581BD0FBE21BDC6
:100AE0000E941F0390E080FF03C021E02093DD01FE
:100AF00086709070009719F081E08093DE0180E0AD
:100B00000E94AA0B0E9490078091DE01882321F4A5
:100B10000E94600BD82E01C0DD240E94B410C82FA3
:100B20008091DD01882329F40E941F0C8F5F809340
:100B3000A50081E08093DC01BB24EE24FF24CC24BB
:100B4000C394D0E021978091DA01882309F4A89515
:100B50008091DB01882349F01092DB018091DE0156
:100B6000882319F40E94600BD82E0E94EC0688237B
:100B700021F00E94FA060E94DD038091E0018823A3
:100B800071F080E0B09B21C0E7E8F1E03197F1F728
:100B900000C000008150B1F71092E00116C080E063
:100BA000B09913C0E7E8F1E03197F1F700C0000019
:100BB0008150B1F7C092E0018091DC01882311F4EB
:100BC0008091A50081508093DC018091DC01882315
:100BD00009F03FC08091DF01882309F0B4CFDD2008
:100BE00031F18091DE01882311F50E94BF08B8160B
:100BF00008F0A9CF8F2D90E02D2D30E0215030400E
:100C00008217930714F4F39401C0FF248F2D90E012
:100C10000E940E0B8C01009789F1FC01E05CFF4FF4
:100C2000B0800E946208C8010E94AB278CCF0E944E
:100C3000BF08B81608F087CF2E2D30E02C173D07DF
:100C400014F4E39401C0EE248E2D0E943212B82ECB
:100C50007ACF8091DD018823C1F40E94BF088823E8
:100C600009F471CF0E94710A009731F06091DC01A4
:100C700061500E94700C67CF1092DC0185E690E015
:100C80000E94620858E1B52E5ECF1092DC015BCF66
:100C90001F920F920FB60F9211248F939F93EF9391
:100CA000FF93E091E301F091E4018CB1E550FE4F38
:100CB00080838091E3019091E4018F31910550F49C
:100CC0008091E3019091E40101969093E401809377
:100CD000E30104C01092E4011092E301FF91EF914F
:100CE0009F918F910F900FBE0F901F9018951F929C
:100CF0000F920FB60F9211242F933F938F939F93D0
:100D0000EF93FF932091E5013091E6018091E70197
:100D10009091E80128173907F1F0E091E501F09191
:100D2000E601E55EFD4F80818CB98091E5019091EF
:100D3000E6018F31910550F48091E5019091E60133
:100D400001969093E6018093E50109C01092E601B7
:100D50001092E50104C081E08093A6005598FF91B0
:100D6000EF919F918F913F912F910F900FBE0F9018
:100D70001F901895433060F5362F3550343040F5CC
:100D8000322F3150323030F5442341F030B53062EB
:100D900030BD423019F430B5306130BD223019F425
:100DA00020B5286020BD653061F0663011F06830F4
:100DB00029F420B5226020BD663019F020B52460EA
:100DC00020BD90BD89B98AB188698AB980E008954B
:100DD00081E0089581E008954091E1015091E201A0
:100DE0002091E3013091E40181E04217530709F4B7
:100DF00080E008952091E1013091E2018091E301CA
:100E00009091E4012817390729F1E091E101F0916F
:100E1000E201E550FE4F8081E091E101F091E201B5
:100E2000E550FE4F10822091E1013091E2012F3117
:100E3000310558F42091E1013091E2012F5F3F4FDD
:100E40003093E2012093E10108951092E2011092A3
:100E5000E101089580E008958091E7019091E80113
:100E60002091E5013091E60101968217930791F0F8
:100E70008091E5019091E601009779F42091E701D6
:100E80003091E80181E090E02F31310541F080E0C0
:100E900090E0089581E090E0089580E090E008956A
:100EA0002091E7013091E8014091E5015091E60180
:100EB0002F5F3F4F2417350799F32091E5013091BB
:100EC000E6012115310539F42091E7013091E8015F
:100ED0002F31310529F3E091E701F091E801E55E5A
:100EE000FD4F80838091E7019091E8018F3191055A
:100EF00050F48091E7019091E80101969093E80108
:100F00008093E70104C01092E8011092E7018091FC
:100F1000A600813021F41092A600559A5D9A08959A
:100F2000CF93DF93C82FD92F02C00E945007899119
:100F30008823D9F7DF91CF9108951AB810BC10BC5F
:100F400019B81092E2011092E1011092E60110929C
:100F5000E5011092E4011092E3011092E801109271
:100F6000E70108951F920F920FB60F9211242F934D
:100F70003F934F935F936F938F939F93AF93BF93E1
:100F8000EF93FF938091EC018091E901882321F098
:100F90001092EB011092E90112BA88B3877E88BBE8
:100FA00080E090E021E030E045B3437045BB48B3BA
:100FB000497F48BBE091EB01F0E043E0EE0FFF1FFB
:100FC0004A95E1F7E80FF91FE55CFD4F40814BBB07
:100FD000823058F065B3A901082E02C0440F551F96
:100FE0000A94E2F7642B65BB0CC068B3AC014F5F99
:100FF0005F4FF90102C0EE0FFF1F4A95E2F76E2B1B
:1010000068BB01968830910579F62091EB0181E06B
:1010100090E0AC0102C0440F551F2A95E2F742BB95
:1010200028B33091EB0102C0880F991F3A95E2F77F
:1010300033E0880F991F3A95E1F78871277E822B5C
:1010400088BB8091EB01873030F48091EB018F5F9A
:101050008093EB0107C01092EB018091EA018F5F52
:101060008093EA011092EC018091ED019091EE01E4
:10107000A091EF01B091F0010196A11DB11D8093E7
:10108000ED019093EE01A093EF01B093F001FF9179
:10109000EF91BF91AF919F918F916F915F914F9120
:1010A0003F912F910F900FBE0F901F901895209198
:1010B000ED013091EE014091EF015091F001B90145
:1010C000CA010895CF93DF936FB7F89421E020937E
:1010D000E9011092EA011092EC01482F592F87E0A4
:1010E00090E01DC0ED91F0E0E851FF4FE491E095F4
:1010F000E90173E0CC0FDD1F7A95E1F7C80FD91F26
:10110000C55CDD4FE8832F5F3F4F2830310551F735
:10111000485F5F4F01972FEF8F3F920721F0DA0171
:1011200020E030E0DFCF6FBFDF91CF9108959FB710
:10113000F89421E02093E9011092EA011092EC0169
:1011400020E030E0809510C0FB01E40FF51FE55C66
:10115000FD4F80834F5F5F4F48305105A9F72F5FE8
:101160003F4F2830310549F040E050E0B901E3E05D
:10117000660F771FEA95E1F7E7CF9FBF089580914B
:10118000EA01869508958EB589608EBD82EC92EA5B
:101190009BBD8ABD80E189BF80E00E94970878945A
:1011A00080E090E061E01DC07FB7F894FA01E20FA3
:1011B000F31FE55CFD4FA08110826093E90110925E
:1011C000EA011092EC017FBF7091EA017723E1F30D
:1011D0002F5F3F4F2830310539F701968830910550
:1011E00049F020E030E0AC01F3E0440F551FFA95E0
:1011F000E1F7DACFF8941092ED011092EE0110921F
:10120000EF011092F0011092EA011092EC010895A2
:1012100089B78F7E89BF089511B88CE080B9089591
:1012200094EA96BF06B607FEFDCF91B1987F98303D
:1012300011F0903179F483B984E886BF06B607FED1
:10124000FDCF91B1987F983139F081E0903429F445
:1012500080E0089581E0089580E0089544EA34E84C
:1012600024E946BF06B607FEFDCF91B1987F9830BE
:1012700011F09031B1F783B936BF06B607FEFDCF46
:1012800091B1987F903211F0983529F426BF06B6B7
:1012900004FCFDCFE6CF08950E941009089584E96B
:1012A00086BF06B604FCFDCF089583B984E886BFE7
:1012B00006B607FEFDCF91B1987F81E0983209F420
:1012C00080E0089584EC86BF06B607FEFDCF83B1AB
:1012D000089584E886BF06B607FEFDCF83B1089562
:1012E000DF92EF92FF920F931F93DF93CF930F92B2
:1012F000CDB7DEB77B018C0180E0E81680E0F80610
:1013000081E0080780E0180718F490EAD92E02C09F
:1013100082EAD82E8D2D0E941009882389F48F2D02
:101320000E9455098E2D0E9455098D2D81600E94C5
:101330004C090E94690989830E944F09898101C073
:1013400080E00F90CF91DF911F910F91FF90EF9070
:10135000DF9008958F929F92AF92BF92CF92DF92CB
:10136000EF92FF920F931F93CF93DF934B015C019A
:1013700080E0881680E0980681E0A80680E0B80644
:1013800018F430EAE32E02C022EAE22E042F10E025
:10139000C8010E941127EC016C01009731F488E12B
:1013A0000E94AA0B0E9490072CC08E2D0E9410094B
:1013B000882329F5892D0E945509882D0E945509F9
:1013C0008E2D81600E944C09BB244801089481083D
:1013D000910807C00E946209FE01EE0DFF1D808387
:1013E000B394EB2CFF24E814F904A4F30E946909D8
:1013F000C00FD11F219788830E944F0902C0CC24BF
:10140000DD24C601DF91CF911F910F91FF90EF90E6
:10141000DF90CF90BF90AF909F908F900895EF9204
:10142000FF920F931F93CF937B018C01C42F80E019
:10143000E81680E0F80681E0080780E0180710F45D
:1014400080EA01C082EA0E941009882359F48F2D96
:101450000E9455098E2D0E9455098C2F0E94550916
:101460000E944F09CF911F910F91FF90EF90089527
:10147000CF92DF92EF92FF920F931F93CF93DF9360
:101480007B018C01D42EC52FC22E80E0E81680E0AF
:10149000F80681E0080780E0180710F480EA01C030
:1014A00082EA0E941009882399F48F2D0E94550921
:1014B0008E2D0E9455098C2FCD2DD82F03C08991D8
:1014C0000E9455098C2F8D198C15C8F30E944F0965
:1014D000DF91CF911F910F91FF90EF90DF90CF9010
:1014E0000895CF93DF9383E40E941009882389F441
:1014F000CBE7D2E00E946209899382E0C138D80725
:10150000C9F70E946909809381020E944F092697BA
:1015100002C0C0E0D0E0CE01DF91CF91089583B743
:101520008B6083BF8AEF8CBF89B7826089BF0895C3
:101530001F920F920FB60F9211242F933F934F9348
:101540005F936F937F938F939F93AF93EF93FF93EB
:101550004091F2013091F3012091F4019091F50155
:101560008091F601F091F701E091F801A091F90165
:10157000642F6F5F51E0641708F050E0530F41E0B3
:10158000531708F040E0420F31E0421708F030E016
:10159000390F21E0391708F020E0280F91E02817D3
:1015A00008F090E09F0F81E09F1708F080E08E0F19
:1015B00071E08E1708F070E07A0F6093F20150939B
:1015C000F3014093F4013093F5012093F6019093D9
:1015D000F7018093F8017093F901FF91EF91AF91BA
:1015E0009F918F917F916F915F914F913F912F913B
:1015F0000F900FBE0F901F9018952091F20130911F
:10160000F3014091F4015091F5016091F601709160
:10161000F7018091F8019091F9010895BC0126E04D
:10162000660F771F2A95E1F7680F791F605E7F4F7D
:1016300080E090E041E40E94AA090895AB01BC015A
:1016400036E0660F771F3A95E1F7680F791F605E05
:101650007F4F80E090E021E40E94380A0895462FF1
:101660009C0156E0220F331F5A95E1F7280F391FCE
:10167000205A3F4FB90180E090E00E940F0A089580
:10168000EF92FF920F931F93EE24FF248701C8016E
:10169000B70140E00E940F0AA8950894E11CF11CD4
:1016A000011D111D80E0E81680E0F80682E00807C1
:1016B00080E0180761F71F910F91FF90EF90089558
:1016C000CF9360E070E0CB010E947009C82F61E009
:1016D00070E080E090E00E9470092C2F30E0582FDD
:1016E00040E0242B352B87E0213E380710F020EE18
:1016F00037E0C901CF910895CF93482FC92F60E0FB
:1017000070E0CB010E940F0A61E070E080E090E0A1
:101710004C2F0E940F0ACF910895462F8E3150F41E
:1017200090E002969C01B901882777FD8095982F5B
:101730000E940F0A08958E3158F4682F70E06E5F92
:101740007F4F882777FD8095982F0E947009089514
:1017500080E008958A3248F4E82FF0E0EE0FFF1F92
:10176000E35AFA4F2591349104C0E1EBF5E025915D
:10177000349182E892E0B9010E94AE2982E892E0B9
:10178000089580E490E00E9411279C01009731F4B5
:1017900088E10E94AA0B0E949007FFCFE82FF92F43
:1017A000CF01805C9F4F1192E817F907E1F7C9015B
:1017B0000895A7E0B0E0FD01E41BF109AD01421B73
:1017C00051099A0143E0220F331F4A95E1F7E20FD6
:1017D000F31FE80FF91F81E090E002C0880F991F06
:1017E0006A95E2F72081282B20830895A7E0B0E0D6
:1017F000FD01E41BF109AD01421B51099A0153E0BF
:10180000220F331F5A95E1F7E20FF31FE80FF91F7C
:1018100081E090E002C0880F991F6A95E2F78095F9
:101820009081982390830895282F392FF90180E41F
:1018300011928150E9F708950E94AB27089587E03F
:101840000895282F392FF90197E080E02191821720
:1018500008F4822F9150D1F70895982F662359F0FC
:10186000E5EBF0E080E003C08F5F883039F0219134
:101870002917D0F308956FE10E9466260895282F56
:10188000392FF90127E080E090E03191830F911D1D
:101890002150D9F767E070E00E947226862F0895E4
:1018A0001F93CF93DF93D82FC92F662321F00E9477
:1018B0003F0C823110F412E101C019E08D2F9C2FF2
:1018C0000E943F0C811740F49E01832F922FFC0150
:1018D00087E011928150E9F7DF91CF911F91089530
:1018E0001F93CF93DF93EC01162F6730C0F466236C
:1018F00021F0862F8450823018F4CE0161E002C0BE
:10190000CE0160E00E94500CE12FF0E0EE0FFF1FCF
:10191000E955FF4F0190F081E02DCE010995DF914F
:10192000CF911F9108956F927F928F929F92AF9265
:10193000BF92CF92DF92EF92FF920F931F93CF93BC
:10194000DF937B01142F622EC02EA82EB92E01E04A
:101950009FE0892E912CF50181915F01662D0E94F7
:101960002D0C782EC0E0D0E0DD2429C00130C1F478
:10197000CC2059F0CE01B4010E948626262FC70143
:1019800060E0412F0E94D90B0DC0CE01B4010E942E
:101990008626462FC70160E0212F0E94D90B07C081
:1019A000CC2029F0C701602F412F2D2D04C0C70185
:1019B000602F4D2D212F0E94D90BD3942A96D71436
:1019C000A8F20F5F083039F6DF91CF911F910F9188
:1019D000FF90EF90DF90CF90BF90AF909F908F904F
:1019E0007F906F900895EF92FF920F931F93CF9384
:1019F000DF937C010E94C10BEC010E94140C10E0EB
:101A0000C701BE01412F20E000E00E94930C1F5F40
:101A10001830B1F7CE010E946208CE010E941C0C62
:101A2000DF91CF911F910F91FF90EF900895EF926A
:101A3000FF920F931F93CF93DF937C010E94C10B02
:101A4000EC010E94140C10E0C701BE01412F21E0FF
:101A500000E00E94930C1F5F1830B1F7CE010E9486
:101A60006208CE010E941C0CDF91CF911F910F9153
:101A7000FF90EF900895EF92FF920F93CF93DF9333
:101A80007C010E94C10BEC010E94140CC701BE0135
:101A900042E021E000E00E94930CC70160E00E9458
:101AA000500CC701BE0145E020E00E94930CCE011E
:101AB0000E946208CE010E941C0CDF91CF910F9111
:101AC000FF90EF900895EF92FF920F931F93CF93A3
:101AD000DF937C010E94C10BEC010E94140C12E008
:101AE000C701BE01412F20E001E00E94930C1F5F5F
:101AF0001630B1F7CE010E946208CE010E941C0C84
:101B0000DF91CF911F910F91FF90EF9008950F9368
:101B10001F93CF93DF938C010E94C10BEC010E94B5
:101B2000140CC801BE0147E020E000E00E94930CC5
:101B3000CE010E946208CE010E941C0CDF91CF9161
:101B40001F910F9108950F931F93CF93DF938C01F3
:101B50000E94C10BEC010E94140CC801BE0147E0B9
:101B600021E000E00E94930CCE010E946208CE01A9
:101B70000E941C0CDF91CF911F910F910895EF925D
:101B8000FF920F931F93CF93DF93F82E062F142FFE
:101B9000E901EE2407C0CE016F2D4E2D202F0E94AB
:101BA000D90BE394E116B8F3DF91CF911F910F9118
:101BB000FF90EF900895FF920F931F93CF93DF93C1
:101BC0008C010E94C10BEC010E94140CF801808171
:101BD0002FE1F22E6F2D0E946626482F80E060E0F4
:101BE0009E010E94BF0DF80180816F2D0E94662624
:101BF000482F80E061E09E010E94BF0DF8018081C6
:101C00006F2D0E946626482F81E060E09E010E94B1
:101C1000BF0DF80181816F2D0E946626482F80E05C
:101C200062E09E010E94BF0DF80181816F2D0E942C
:101C30006626482F80E063E09E010E94BF0DF801F8
:101C400081816F2D0E946626482F81E061E09E0110
:101C50000E94BF0DF80181816F2D0E946626482FDA
:101C600081E062E09E010E94BF0DF80181816F2D2D
:101C70000E946626482F82E060E09E010E94BF0D10
:101C8000F80181816F2D0E946626482F82E061E075
:101C90009E010E94BF0DF80182816F2D0E94662671
:101CA000482F80E064E09E010E94BF0DF801828110
:101CB0006F2D0E946626482F80E065E09E010E94FD
:101CC000BF0DF80182816F2D0E946626482F81E0AA
:101CD00063E09E010E94BF0DF80182816F2D0E947A
:101CE0006626482F81E064E09E010E94BF0DF80146
:101CF00082816F2D0E946626482F82E062E09E015D
:101D00000E94BF0DF80182816F2D0E946626482F28
:101D100082E063E09E010E94BF0DF80182816F2D79
:101D20000E946626482F83E060E09E010E94BF0D5E
:101D3000F80182816F2D0E946626482F83E061E0C2
:101D40009E010E94BF0DF80182816F2D0E946626C0
:101D5000482F83E062E09E010E94BF0DF80182815E
:101D60006F2D0E946626482F84E060E09E010E944D
:101D7000BF0DF80182816F2D0E946626482F84E0F6
:101D800061E09E010E94BF0DF80183816F2D0E94CA
:101D90006626482F80E066E09E010E94BF0DF80194
:101DA00083816F2D0E946626482F80E067E09E01A8
:101DB0000E94BF0DF80183816F2D0E946626482F77
:101DC00081E065E09E010E94BF0DF80183816F2DC7
:101DD0000E946626482F81E066E09E010E94BF0DAA
:101DE000F80183816F2D0E946626482F82E064E00F
:101DF0009E010E94BF0DF80183816F2D0E9466260F
:101E0000482F82E065E09E010E94BF0DF8018381AA
:101E10006F2D0E946626482F83E063E09E010E949A
:101E2000BF0DF80183816F2D0E946626482F83E045
:101E300064E09E010E94BF0DF80183816F2D0E9416
:101E40006626482F84E062E09E010E94BF0DF801E3
:101E500083816F2D0E946626482F84E063E09E01F7
:101E60000E94BF0DF80183816F2D0E946626482FC6
:101E700085E060E09E010E94BF0DF80183816F2D17
:101E80000E946626482F85E061E09E010E94BF0DFA
:101E9000F80183816F2D0E946626482F85E062E05D
:101EA0009E010E94BF0DF80183816F2D0E9466265E
:101EB000482F86E060E09E010E94BF0DF8018381FB
:101EC0006F2D0E946626482F86E061E09E010E94E9
:101ED000BF0DF80184816F2D0E946626482F81E096
:101EE00067E09E010E94BF0DF80184816F2D0E9462
:101EF0006626482F82E066E09E010E94BF0DF80131
:101F000084816F2D0E946626482F82E067E09E0143
:101F10000E94BF0DF80184816F2D0E946626482F14
:101F200083E065E09E010E94BF0DF80184816F2D62
:101F30000E946626482F83E066E09E010E94BF0D46
:101F4000F80184816F2D0E946626482F84E064E0AA
:101F50009E010E94BF0DF80184816F2D0E946626AC
:101F6000482F84E065E09E010E94BF0DF801848146
:101F70006F2D0E946626482F85E063E09E010E9437
:101F8000BF0DF80184816F2D0E946626482F85E0E1
:101F900064E09E010E94BF0DF80184816F2D0E94B4
:101FA0006626482F86E062E09E010E94BF0DF80180
:101FB00084816F2D0E946626482F86E063E09E0193
:101FC0000E94BF0DF80184816F2D0E946626482F64
:101FD00087E060E09E010E94BF0DF80184816F2DB3
:101FE0000E946626482F87E061E09E010E94BF0D97
:101FF000F80185816F2D0E946626482F83E067E0F7
:102000009E010E94BF0DF80185816F2D0E946626FA
:10201000482F84E066E09E010E94BF0DF801858193
:102020006F2D0E946626482F84E067E09E010E9483
:10203000BF0DF80185816F2D0E946626482F85E02F
:1020400065E09E010E94BF0DF80185816F2D0E9401
:102050006626482F85E066E09E010E94BF0DF801CC
:1020600085816F2D0E946626482F86E064E09E01E0
:102070000E94BF0DF80185816F2D0E946626482FB2
:1020800086E065E09E010E94BF0DF80185816F2DFD
:102090000E946626482F87E062E09E010E94BF0DE5
:1020A000F80185816F2D0E946626482F87E063E046
:1020B0009E010E94BF0DF80185816F2D0E9466264A
:1020C000482F87E064E09E010E94BF0DF8018681E1
:1020D0006F2D0E946626482F85E067E09E010E94D2
:1020E000BF0DF80186816F2D0E946626482F86E07D
:1020F00066E09E010E94BF0DF80186816F2D0E944F
:102100006626482F86E067E09E010E94BF0DF80119
:1021100086816F2D0E946626482F87E065E09E012C
:102120000E94BF0DF80186816F2D0E946626482F00
:1021300087E066E09E010E94BF0DF80186816F2D49
:102140000E946626482F87E067E09E010E94BF0D2F
:10215000CE010E946208CE010E941C0CDF91CF913B
:102160001F910F91FF90089580E108958F929F92A3
:10217000AF92BF92CF92DF92EF92FF920F931F9395
:10218000DF93CF9300D0CDB7DEB7882E0E94C10B6E
:102190007C01B82CBB0C99240894811C911C880CE0
:1021A000991C00E010E0CB2CDD24C7FCD09424C0A7
:1021B000C701632F4A2D252F3A8359830E94D90BDB
:1021C00059815F5F3A81583099F73F5F383021F489
:1021D00005C030E0AB2CA00E50E0EACFC7010E9452
:1021E000620801C0A8950E94BF088823D9F3C701DF
:1021F0000E94140C0F5F1F4FC8018C0D9D1D881588
:1022000099053CF3C7010E94AB270F900F90CF9127
:10221000DF911F910F91FF90EF90DF90CF90BF90D3
:10222000AF909F908F9008958F929F92BF92CF9280
:10223000DF92EF92FF920F931F93DF93CF9300D023
:10224000CDB7DEB7E82E0E94C10B8C01BE2CB19435
:10225000BB0C23E0822E912C8E189108880C991CBF
:1022600087E0B80EEE24FF24CB2CDD24C7FCD094ED
:1022700024C0C801632F4B2D252F3A8359830E9418
:10228000D90B59815F5F3A81583099F73F5F3830F9
:1022900011F403C030E050E0ECCFC8010E946208A6
:1022A00001C0A8950E94BF088823D9F3C8010E94E5
:1022B000140CBA940894E11CF11CC6018E199F09F4
:1022C000881599053CF7C8010E94AB270F900F9025
:1022D000CF91DF911F910F91FF90EF90DF90CF9002
:1022E000BF909F908F9008958F929F92AF92BF92D0
:1022F000CF92DF92EF92FF920F931F93DF93CF93D2
:1023000000D0CDB7DEB7882E0E94C10B7C01B82C5F
:10231000BB0C99240894811C911C880C991C00E02A
:1023200010E0CB2CDD24C7FCD09424C0C701652F5E
:10233000432F2A2D3A8359830E94D90B59815F5F1D
:102340003A81583099F73F5F383021F405C030E0CA
:10235000AB2CA00E50E0EACFC7010E94620801C07A
:10236000A8950E94BF088823D9F3C7010E94140CC6
:102370000F5F1F4FC8018C0D9D1D881599053CF3FB
:10238000C7010E94AB270F900F90CF91DF911F9153
:102390000F91FF90EF90DF90CF90BF90AF909F9004
:1023A0008F9008958F929F92BF92CF92DF92EF927B
:1023B000FF920F931F93DF93CF9300D0CDB7DEB77B
:1023C000E82E0E94C10B8C01BE2CB194BB0C53E0D3
:1023D000852E912C8E189108880C991C87E0B80ED8
:1023E000EE24FF24CB2CDD24C7FCD09424C0C801EC
:1023F000632F452F2B2D3A8359830E94D90B598186
:102400005F5F3A81583099F73F5F383011F403C06D
:1024100030E050E0ECCFC8010E94620801C0A895EE
:102420000E94BF088823D9F3C8010E94140CBA94F3
:102430000894E11CF11CC6018E199F0988159905A5
:102440003CF7C8010E94AB270F900F90CF91DF910E
:102450001F910F91FF90EF90DF90CF90BF909F90D2
:102460008F9008958031A0F4843018F40E94741184
:102470000FC0883020F484500E94D21109C08C30E3
:1024800020F488500E94B61003C08C500E94141192
:1024900081E008952F923F924F925F926F927F92C8
:1024A0008F929F92AF92BF92CF92DF92EF92FF9264
:1024B0000F931F93DF93CF93CDB7DEB76C970FB613
:1024C000F894DEBF0FBECDBF81E490E00E941127DB
:1024D000888B998B8B839C830E94FD0AB22EC32E1E
:1024E000D42E152F062FF72EE82E392E82E40E94C7
:1024F000500774C00E94FD0AA22FAB19F1E02A1701
:1025000008F0F0E0232F2C19E1E0321708F0E0E0AA
:10251000322F3F1BF32F31E02F1708F030E0E32B71
:10252000342F3D1921E0431708F020E0432F4E1BC4
:10253000E42F41E03E1708F040E0242B452F411BDB
:1025400031E0541708F030E0542F521B21E04517BA
:1025500008F020E0322B462F401B21E0641708F0E2
:1025600020E0642F631B31E0461708F030E0232B96
:10257000472F4F1931E0741708F030E0742F721BA9
:1025800021E0471708F020E0322B482F4E1921E0B8
:10259000841708F020E0842F831B31E0481708F0EF
:1025A00030E0232B9319921709F099C4882309F07E
:1025B00096C4772309F093C4662309F090C4552389
:1025C00009F08DC4EE2309F08AC4F23008F087C404
:1025D000F13019F4A53F08F082C4A8950E94EC06DA
:1025E000882309F487CF0E94FA068A8B82E40E942E
:1025F000500784EF282EAA24A39455246624772418
:102600008824992444241F821E821E868B819C81EB
:10261000805C9F4F9F8B8E8B2D82BB86CC86DD8608
:10262000212EB02ECF2CDE2C37C20E94FD0A122F95
:10263000AB851A1BF1E0211708F0F0E0E32FBC8511
:10264000EB1B21E03E1708F020E03E2F3F1BF1E09E
:10265000E31708F0F0E02F2BA42FED85AE1BF1E07F
:102660004A1708F0F0E04A2F421B21E0A41708F0B7
:1026700020E0F22BA52FA21921E05A1708F020E044
:102680005A2F5F1BF1E0A51708F0F0E02F2BA62FC3
:10269000AB19F1E06A1708F0F0E06A2F621B21E045
:1026A000A61708F020E0F22B272F2C19A1E07217B3
:1026B00008F0A0E0722F7F1BF1E0271708F0F0E090
:1026C000AF2BF82FFD1921E08F1708F020E08F2F96
:1026D0008A1BA1E0F81708F0A0E02A2B9319921B9F
:1026E000491608F4FCC3941511F5981608F4F7C3BD
:1026F0008915E9F4871608F4F2C37815C1F4761643
:1027000008F4EDC3671599F4651608F4E8C3561587
:1027100071F4541608F4E3C3451549F4A31608F4FC
:10272000DEC33A1521F4FD81F11708F4D8C3A8954A
:102730000E94EC06882309F478CF0E94FA068B8B5E
:1027400082E40E9450072E813F813A8329834F867D
:102750004B2CBC2CCD2C8EC13D813C503A8751E096
:102760004D81341708F050E08A2D8F5F91E08A1573
:1027700008F090E0580F41E0581708F040E0492B6E
:10278000450D11E0451508F010E0160D01E0161595
:1027900008F000E0070D81E0071508F080E0F82E52
:1027A000F80C81E0F81408F080E0E82EE90C81E0F4
:1027B000E91408F080E0DF84D80E8A858D83A52E89
:1027C000542E612E702E8F2C9E2CDF86588F4C8BB2
:1027D00087C00E94FD0AA22FBB85AB1BA887F1E032
:1027E0002A1708F0F0E0E32F2C85E21B21E03E17CA
:1027F00008F020E03E2F3F1BF1E0E31708F0F0E087
:102800002F2BA42FBD85AB1BF1E04A1708F0F0E099
:102810004A2F421B21E0A41708F020E0F22BA52F3D
:10282000A21921E05A1708F020E05A2F5F1BF1E0AF
:10283000A51708F0F0E02F2BA62FA419F1E06A17D6
:1028400008F0F0E06A2F621B21E0A61708F020E0F4
:10285000F22B272F2B19A1E0721708F0A0E0722F9E
:102860007F1BF1E0271708F0F0E0AF2BF82FFC19E1
:1028700021E08F1708F020E08F2F8A1BA1E0F817C6
:1028800008F0A0E02A2B9319921BD91608F427C34D
:102890009D1529F5E81608F422C38E1501F5F716E3
:1028A00008F41DC37F15D9F4061708F418C3601780
:1028B000B1F4151708F413C3511789F4EC89E41720
:1028C00008F40DC34E1759F4F88DF31708F407C335
:1028D0003F1729F428853A85321708F400C3A895D4
:1028E0000E94EC06882309F474CF588D4C894C8FD4
:1028F0005A8F0E94FA06AE89BF898C9382E40E94A7
:10290000500738892989832F922F99878887805C7F
:102910009F4F9D8B8C8B5A8D5B8F4C8D498F8AC0BE
:102920000E94FD0AE22FBB85EB1BF1E02E1708F099
:10293000F0E0232FAC852A1BB1E0B88F321708F0E6
:10294000188E322F3F1BF32F31E02F1708F030E0A5
:10295000A88DA32BA88F342FBD853B1B21E04317E7
:1029600008F020E0432FA88D4A1BA1E0341708F09F
:10297000A0E02A2BA52FA21931E05A1708F030E069
:102980005A2F521B21E0A51708F020E0322BA62F6A
:10299000A41921E06A1708F020E06A2F631B31E0D8
:1029A000A61708F030E0232BA72FAB1931E07A17D8
:1029B00008F030E07A2F721B21E0A71708F020E022
:1029C000322BA82FAC1921E08A1708F020E08A2FBB
:1029D000831B31E0A81708F030E0232B9319921BDA
:1029E000D91608F47CC29D1521F5E81608F477C2C3
:1029F0008E15F9F4F71608F472C27F15D1F4061794
:102A000008F46DC26017A9F4151708F468C25117CD
:102A100081F4B98DB41708F462C24B1751F42B8DB1
:102A20002F1708F45CC2F21721F43A853E1708F418
:102A300056C2A8950E94EC06882309F471CF0E9423
:102A4000FA06A885B9858D93B987A887EC89FD8991
:102A5000AE17BF0779F782E40E94500709811A81F7
:102A60000F5F1F4F89819A816B817C810E941E0BB1
:102A70001A8309838981FE818F1B2B89821708F4B1
:102A80006BCEDC2CCB2CB42C4F843E853F5F3E8735
:102A900089819A819F838E839E85AA899A1708F4DB
:102AA00047CE122D2D800B2DBB84FC2CCC84ED2C1D
:102AB000DD848B819C810E94AB2780C00E94FD0A2F
:102AC000E22FEB19F1E02E1708F0F0E0232F2C197C
:102AD000A1E0321708F0A0E0B22FBF1BFB2F31E0BE
:102AE0002B1708F030E0A32B342F3D1921E04317BA
:102AF00008F020E0432F4A1BA1E0341708F0A0E0C3
:102B00002A2BA52FA11B31E05A1708F030E05A2FCD
:102B1000521B21E0A51708F020E0322BA62FA01BA6
:102B200021E06A1708F020E06A2F631B31E0A61746
:102B300008F030E0232BA72FAF1931E07A1708F007
:102B400030E07A2F721B21E0A71708F020E0322B2B
:102B5000A82FAE1921E08A1708F020E08A2F831BE6
:102B600031E0A81708F030E0232B9319921B491687
:102B700008F4B5C1941509F5981608F4B0C1891583
:102B8000E1F4871608F4ABC17815B9F4761608F4A9
:102B9000A6C1671591F4651608F4A1C1561569F42C
:102BA000541608F49CC1451541F4AF1608F497C1BA
:102BB000FA1519F42E1608F492C1A8950E94EC0695
:102BC000882309F47BCF0E94FA0680C00E94FD0A88
:102BD000E22FEB19F1E02E1708F0F0E0232F2C196B
:102BE000A1E0321708F0A0E0322F3F1BF32F31E0B5
:102BF0002F1708F030E0A32B342F3D1921E04317A5
:102C000008F020E0432F4A1BA1E0341708F0A0E0B1
:102C10002A2BA52FA11B31E05A1708F030E05A2FBC
:102C2000521B21E0A51708F020E0322BA62FA01B95
:102C300021E06A1708F020E06A2F631B31E0A61735
:102C400008F030E0232BA72FAF1931E07A1708F0F6
:102C500030E07A2F721B21E0A71708F020E0322B1A
:102C6000A82FAE1921E08A1708F020E08A2F831BD5
:102C700031E0A81708F030E0232B9319921B491676
:102C800008F42DC1941509F5981608F428C1891582
:102C9000E1F4871608F423C17815B9F4761608F420
:102CA0001EC1671591F4651608F419C1561569F42B
:102CB000541608F414C1451541F4AF1608F40FC1B9
:102CC000FA1519F42E1608F40AC1A8950E94EC060C
:102CD000882309F47BCF0E94FA0680C00E94FD0A77
:102CE000E22FEB19F1E02E1708F0F0E0232F2C195A
:102CF000A1E0321708F0A0E0B22FBF1BFB2F31E09C
:102D00002B1708F030E0A32B342F3D1921E0431797
:102D100008F020E0432F4A1BA1E0341708F0A0E0A0
:102D20002A2BA52FA11B31E05A1708F030E05A2FAB
:102D3000521B21E0A51708F020E0322BA62FA01B84
:102D400021E06A1708F020E06A2F631B31E0A61724
:102D500008F030E0232BA72FAF1931E07A1708F0E5
:102D600030E07A2F721B21E0A71708F020E0322B09
:102D7000A82FAE1921E08A1708F020E08A2F831BC4
:102D800031E0A81708F030E0232B9319921B491665
:102D900008F4A5C0941509F5981608F4A0C0891583
:102DA000E1F4871608F49BC07815B9F4761608F498
:102DB00096C0671591F4651608F491C0561569F42C
:102DC000541608F48CC0451541F4AF1608F487C0BA
:102DD000FA1519F42E1608F482C0A8950E94EC0684
:102DE000882309F47BCF0E94FA067CC00E94FD0A6A
:102DF000E22FEB19F1E02E1708F0F0E0232F2C1949
:102E0000A1E0321708F0A0E0322F3F1BF32F31E092
:102E10002F1708F030E0A32B342F3D1921E0431782
:102E200008F020E0432F4A1BA1E0341708F0A0E08F
:102E30002A2BA52FA11B31E05A1708F030E05A2F9A
:102E4000521B21E0A51708F020E0322BA62FA01B73
:102E500021E06A1708F020E06A2F631B31E0A61713
:102E600008F030E0232BA72FAF1931E07A1708F0D4
:102E700030E07A2F721B21E0A71708F020E0322BF8
:102E8000A82FAE1921E08A1708F020E08A2F831BB3
:102E900031E0A81708F030E0232B9319921B491654
:102EA000F0F09415D1F49816D0F08915B1F4871686
:102EB000B0F0781591F4761690F0671571F46516F8
:102EC00070F0561551F4541650F0451531F4AF1604
:102ED00030F0FA1511F42E1610F0A89503C080E01A
:102EE00090E00CC00E94EC06882309F47FCF0E947A
:102EF000FA0682E40E9450078E819F810E947C0B1B
:102F00006C960FB6F894DEBF0FBECDBFCF91DF91A8
:102F10001F910F91FF90EF90DF90CF90BF90AF90F7
:102F20009F908F907F906F905F904F903F902F90E9
:102F3000089583E20E94500708951F93CF93DF9373
:102F40000E94710AEC01009731F485E10E94AA0BFE
:102F50000E9490071FC086E10E94AA0B0E94900762
:102F600010E3812F0E9450078DEB90E00E949007A4
:102F7000899190E062E872E04AE050E00E94B52951
:102F800082E892E00E9490078AE00E9450071F5F4B
:102F9000173339F7DF91CF911F910895AF92BF9208
:102FA000CF92DF92EF92FF920F931F938EE00E94D9
:102FB000AA0B0E9490070E94FD0AB901CA0142E8CB
:102FC00052E02AE030E00E94D6290E94900780EC6F
:102FD00090E00E9490070E94FD0A992381F48823C3
:102FE00071F4772361F4662351F4552341F44423AB
:102FF00031F43B3E20F43A3E09F52136F8F083ECFB
:1030000090E00E9490070E94FD0AB0E6AB2EAAEE67
:10301000BA2ECC24DD24EE24FF2400E010E00E9430
:10302000121AC90162E872E04AE050E00E94B52934
:103030000E94900786EC90E00E9490070E94FD0A93
:10304000992391F4882381F4772371F4662361F442
:10305000552351F4442341F4343030F4333009F033
:103060004BC0293E08F448C083EC90E00E949007D2
:103070000E94FD0AF8EEAF2EE3E0BE2ECC24DD2444
:10308000EE24FF2400E010E00E94121AC90162E859
:1030900072E04AE050E00E94B5290E9490070E9429
:1030A000FD0A0E944620C90162E872E04AE050E051
:1030B0000E94B52980918202882319F08EE20E9435
:1030C000500780918402882319F480E30E945007FE
:1030D00080918302882319F480E30E945007809135
:1030E0008202882321F082E892E00E9490078CEC13
:1030F00090E00E94900703C08AE00E9450071F9151
:103100000F91FF90EF90DF90CF90BF90AF90089518
:10311000AF92BF92DF92EF92FF920F931F93DF93D4
:10312000CF930F92CDB7DEB77C015C0110E3D12EB7
:103130008D2D0E9450078DEB90E00E949007850135
:1031400020E0F80181918F0190E062E872E040E1B7
:1031500050E029830E94B52982E892E00E949007FE
:1031600080E20E94500729812F5F283051F78AE0C2
:103170000E945007D39488E090E0A80EB91E9D2DC0
:103180009833B1F683E20E94AA0B0E949007F701E0
:10319000E05CFF4F808190E062E872E04AE050E03E
:1031A0000E94B52982E892E00E9490078AE00E947E
:1031B00050070F90CF91DF911F910F91FF90EF90EB
:1031C000DF90BF90AF900895CF92DF92EF92FF9281
:1031D0000F931F93CF93DF9302E812E0C0E0D0E09B
:1031E000A8950E94EC068823D9F36E010E94FA0686
:1031F0007801F80181938F010E945007F7018081C7
:103200008A3021F02196CB30D10551F7F601EE57E7
:10321000FD4F108282E892E0DF91CF911F910F91D4
:10322000FF90EF90DF90CF900895DF93CF930F92B0
:10323000CDB7DEB789830E94E41860E070E0498171
:1032400050E00E949828862F0F90CF91DF9108952B
:10325000CF93DF93462FC2E8D2E090E0BE0150E06A
:103260000E94B529CE010E949007DF91CF91089569
:10327000EF92FF920F931F93DF93CF930F92CDB7EF
:10328000DEB781E490E00E941127182F092FE82E65
:10329000F92E83E20E94AA0B0E9490078AE00E9406
:1032A0001519F701E05CFF4F8083C801092F182F23
:1032B00020E0822F6AE029830E9428198DEB90E09C
:1032C0000E94900780E10E941519F80181938F01F7
:1032D00029812F5F203469F781E20E94AA0B0E94A6
:1032E0009007C7010F90CF91DF911F910F91FF9031
:1032F000EF9008958F929F92AF92BF92CF92DF92FC
:10330000EF92FF920F931F93DF93CF93CDB7DEB76A
:1033100029970FB6F894DEBF0FBECDBF8E010F5FA9
:103320001F4F88E0F80111928A95E9F781E490E057
:103330000E9411275C016C01FC01E05CFF4F82E000
:10334000808384E20E94AA0B0E9490078AE00E9478
:103350001519E82E85E20E94AA0B0E94900720E032
:10336000822F6AE029870E9428198DEB90E00E9445
:10337000900780E10E941519F80181938F0129853A
:103380002F5F283069F786E20E94AA0B0E949007FF
:10339000FF2420E030E04E010894811C911C1EC0E7
:1033A0008017910754F4821793073CF0D401A40FBF
:1033B000B11D5C9150834F5F01C010820196319620
:1033C0008034910569F7C701B6010E941E0B08946D
:1033D000E11CF11C0034110551F098018901085FCE
:1033E0001F4FEA2DFB2D80E090E040E0D9CF81E235
:1033F0000E94AA0B0E949007C6010E94AB27299643
:103400000FB6F894DEBF0FBECDBFCF91DF911F91F5
:103410000F91FF90EF90DF90CF90BF90AF909F9073
:103420008F900895A8E3B0E0E8E1FAE10C94DA2681
:1034300029833A834B835C836D837E838F83988754
:10344000A986BA86CB86DC86ED86FE860F87188B2A
:10345000E984FA840B851C852D853E854F85588926
:1034600029803A804B805C802DA23EA24FA258A6B4
:10347000AD80BE80CF80D88421153105410551052E
:1034800009F0A6C3AE14BF04C006D10608F03FC1C0
:1034900020E0E21620E0F20621E0020720E0120719
:1034A00058F43FEFE316F1040105110509F090F41B
:1034B00020E030E0A90117C040E0E41640E0F40647
:1034C00040E0040741E0140750F420E130E040E020
:1034D00050E009C028E030E040E050E004C028E1BE
:1034E00030E040E050E0D801C701022E04C0B6959C
:1034F000A795979587950A94D2F780539F4FDC0143
:103500006C9180E290E0A0E0B0E0821B930BA40BF2
:10351000B50B861B9109A109B1090097A105B10559
:10352000A1F1082E04C0EE0CFF1C001F111F0A940D
:10353000D2F7A6019501082E04C0220F331F441FA5
:10354000551F0A94D2F760E270E0681B790BADA0BA
:10355000BEA0CFA0D8A404C0D694C794B794A79413
:103560006A95D2F7A22AB32AC42AD52A2DA03EA052
:103570004FA058A404C0220C331C441C551C8A952F
:10358000D2F72DA23EA24FA258A638018824992432
:10359000A801970140705070298F3A8F4B8F5C8F34
:1035A000C601B501A40193010E94B826222E532E14
:1035B000442E352E6D8F7E8F8F8F98A3C601B50157
:1035C000A40193010E94B826822D952DA42DB32D20
:1035D0001C012D01C201B101298D3A8D4B8D5C8DED
:1035E0000E9499265B016C014D8D5E8D6F8D78A1D7
:1035F000DA01992788274DA15EA16FA178A59B01CB
:1036000044275527822B932BA42BB52B8A159B057A
:10361000AC05BD05E0F408942108310841085108C3
:103620008E0D9F1DA01FB11F8E159F05A007B1070E
:1036300070F08A159B05AC05BD0548F40894210877
:103640003108410851088E0D9F1DA01FB11F9C011C
:10365000AD012A193B094C095D0959016A01CA01EA
:10366000B901A40193010E94B82629A739A349AB47
:103670005DA76D8F7E8F8F8F98A3C601B501A401C2
:1036800093010E94B826A9A4B9A0C9A8DDA4C601C7
:10369000B501298D3A8D4B8D5C8D0E9499263B0199
:1036A0004C016D8D7E8D8F8D98A1AB013327222724
:1036B0008DA19EA1AFA1B8A5A070B070282B392B09
:1036C0004A2B5B2B2615370548055905C0F408948D
:1036D000A108B108C108D1082E0D3F1D401F511F80
:1036E0002E153F054007510750F0261537054805B0
:1036F000590528F40894A108B108C108D10881012E
:10370000FF24EE24EA28FB280C291D29A1C4E1147A
:10371000F1040105110559F461E070E080E090E0EA
:10372000A80197010E94B82679018A0110C070E0B3
:10373000E71670E0F70671E0070770E0170758F426
:103740008FEFE816F1040105110509F090F420E06F
:1037500030E0A90117C090E0E91690E0F90690E08A
:10376000090791E0190750F420E130E040E050E013
:1037700009C028E030E040E050E004C028E130E03B
:1037800040E050E0D801C701022E04C0B695A795CD
:10379000979587950A94D2F780539F4FDC018C91BF
:1037A000280F311D411D511D80E290E0A0E0B0E0E6
:1037B000821B930BA40BB50B61F4150126012E1887
:1037C0003F08400A510A81E0A82EB12CC12CD12C0F
:1037D00023C1082E04C0EE0CFF1C001F111F0A9409
:1037E000D2F715012601022E04C05694479437944F
:1037F00027940A94D2F735014601082E04C0660CBE
:10380000771C881C991C0A94D2F76D8E7E8E8F8E41
:1038100098A28DA09EA0AFA0B8A404C0B694A7940F
:10382000979487942A95D2F7A5019401AD8CBE8C0C
:10383000CF8CD8A0A22AB32AC42AD52AAD8EBE8E98
:10384000CF8ED8A22DA13EA14FA158A504C0220F12
:10385000331F441F551F8A95D2F72DA33EA34FA3B4
:1038600058A7380188249924B801A70160707070A6
:1038700049A75AA76BA77CA7C201B101A401930174
:103880000E94B826298F39AB4DA75DAB69A37AA3F7
:103890008BA39CA3C201B101A40193010E94B8268D
:1038A000A98CB9A8CDA4DDA8A98EBA8ECB8EDC8E4A
:1038B000C601B50129A53AA54BA55CA50E9499268C
:1038C0005B016C0129A03AA04BA05CA0D101992713
:1038D00088272D8C3E8C4F8C58A092014427552769
:1038E000822B932BA42BB52B8A159B05AC05BD050C
:1038F00030F5298D3A8D4B8D5C8D21503040404004
:103900005040298F3A8F4B8F5C8F8E0D9F1DA01FCB
:10391000B11F8E159F05A007B10788F08A159B057A
:10392000AC05BD0560F42150304040405040298F27
:103930003A8F4B8F5C8F8E0D9F1DA01FB11FAC0166
:10394000BD014A195B096C097D095A016B01CB0164
:10395000BA01A40193010E94B826522E432E342EA0
:10396000252E69A37AA38BA39CA3C601B501A4014C
:1039700093010E94B826652C742C832C922CC401D0
:10398000B30129A53AA54BA55CA50E9499269B01E8
:10399000AC0169A17AA18BA19CA16B01BB24AA24D3
:1039A0008D8D9E8DAF8DB8A1A070B070A82AB92A58
:1039B000CA2ADB2AA216B306C406D506E0F4089488
:1039C0006108710881089108AE0CBF1CC01ED11E91
:1039D000AE14BF04C006D10670F0A216B306C4062A
:1039E000D50648F408946108710881089108AE0C66
:1039F000BF1CC01ED11E15012601221A330A440A1B
:103A0000550A898D9A8DAB8DBC8D6C01BB24AA247F
:103A1000A628B728C828D9283801882499246D8E6B
:103A20007E8E8F8E98A2A80197014070507029A7B2
:103A30003AA74BA75CA7C201B101A40193010E9460
:103A4000B826922E832E742E652E69A37AA38BA39B
:103A50009CA3C201B1012D8D3E8D4F8D58A10E94B6
:103A6000B826892D982DA72DB62D898F9A8FAB8FCB
:103A7000BC8FBC01CD0129A53AA54BA55CA50E9430
:103A800099263B014C0149A15AA16BA17CA1DA0105
:103A9000992788272DA03EA04FA058A49201442723
:103AA0005527822B932BA42BB52B86159705A8059C
:103AB000B90530F5298D3A8D4B8D5C8D2150304004
:103AC00040405040298F3A8F4B8F5C8F8E0D9F1D49
:103AD000A01FB11F8E159F05A007B10788F086159E
:103AE0009705A805B90560F421503040404050408A
:103AF000298F3A8F4B8F5C8F8E0D9F1DA01FB11F9A
:103B0000AC01BD0146195709680979093A014B0111
:103B1000CB01BA012D8D3E8D4F8D58A10E94B82644
:103B2000522E432E342E252E69A37AA38BA39CA359
:103B3000C401B3012D8D3E8D4F8D58A10E94B82632
:103B4000652C742C832C922CC401B30129A53AA5B1
:103B50004BA55CA50E9499261B012C0169A17AA1A5
:103B60008BA19CA1AB01332722278DA19EA1AFA1E0
:103B7000B8A5A070B070282B392B4A2B5B2B2215CF
:103B8000330544055505C0F408946108710881089F
:103B900091082E0D3F1D401F511F2E153F05400758
:103BA000510750F0221533054405550528F40894B3
:103BB0006108710881089108898D9A8DAB8DBC8D43
:103BC0008C01FF24EE24E628F7280829192943C28E
:103BD000A216B306C406D50608F42AC2203090E027
:103BE000390791E0490790E0590750F42F3F31051C
:103BF0004105510509F090F466247724430119C06A
:103C00002030A0E03A07A0E04A07A1E05A0760F49C
:103C100090E1692E712C812C912C0BC088E0682ECC
:103C2000712C812C912C05C0B8E16B2E712C812C4C
:103C3000912CDA01C901062C04C0B695A795979579
:103C400087950A94D2F780539F4FFC018081680EBC
:103C5000711C811C911C80E290E0A0E0B0E086190C
:103C60009709A809B90989F42A153B054C055D0592
:103C700008F4E5C12DA03EA04FA058A42E143F0487
:103C80004006510608F0DBC1D3C189A719012A01FA
:103C900004C0220C331C441C551C8A95D2F7D80151
:103CA000C701062C04C0B695A795979587950A94E9
:103CB000D2F7282A392A4A2A5B2AA801970109A49F
:103CC00004C0220F331F441F551F0A94D2F729A3A3
:103CD0003AA34BA35CA386017501062C04C016957C
:103CE0000795F794E7940A94D2F7B601A50109A4C1
:103CF00004C0440F551F661F771F0A94D2F74D8FDB
:103D00005E8F6F8F78A36DA17EA18FA198A504C04F
:103D100096958795779567956A94D2F73B014C0104
:103D20008D8D9E8DAF8DB8A186299729A829B92997
:103D30008D8F9E8FAF8FB8A35201CC24DD24A201BA
:103D400091014070507029AB3AAB4BAB5CABC801F2
:103D5000B701A60195010E94B826622E932E842EEB
:103D6000752E6DA77EA78FA798ABC801B701A601D6
:103D700095010E94B826E62CF92C082D172DE98E06
:103D8000FA8E0B8F1C8FC801B70129A93AA94BA93C
:103D90005CA90E9499266DA47EA48FA498A8830193
:103DA000FF24EE246D8C7E8C8F8C98A09401442788
:103DB0005527E22AF32A042B152BE616F7060807E7
:103DC000190730F5298D3A8D4B8D5C8D215030408F
:103DD00040405040298F3A8F4B8F5C8FE20CF31C90
:103DE000041D151DE214F3040405150588F0E616FC
:103DF000F7060807190760F4215030404040504052
:103E0000298F3A8F4B8F5C8FE20CF31C041D151D1C
:103E1000E61AF70A080B190BC801B701A6019501AC
:103E20000E94B8262DAB3EAB4FAB58AF6DA77EA717
:103E30008FA798ABC801B701A60195010E94B826CB
:103E40006DA87EA88FA898ACC401B30129A93AA98E
:103E50004BA95CA90E9499269B01AC01ADA4BEA40C
:103E6000CFA4D8A8D50199278827AD8CBE8CCF8C3C
:103E7000D8A06FEFE62E6FEFF62E012D112DAE209C
:103E8000BF20C022D1228A299B29AC29BD298217B3
:103E90009307A407B507E0F4089461087108810846
:103EA0009108820D931DA41DB51D82159305A405CF
:103EB000B50570F082179307A407B50748F4089476
:103EC0006108710881089108820D931DA41DB51D1C
:103ED0001C012D01221A330A440A550A2D8E3E8EEA
:103EE0004F8E58A2A98CBA8CCB8CDC8C8501FF2418
:103EF000EE24E628F72808291929AFEFAA2EAFEFFC
:103F0000BA2EC12CD12CAE20BF20C022D122180144
:103F10004424552469A07AA08BA09CA02FEF3FEFEA
:103F200040E050E0622273228422952269A17AA1A6
:103F30008BA19CA1AC0166277727498F5A8F6B8F85
:103F40007C8FC601B501A40193010E94992669A343
:103F50007AA38BA39CA3C601B501298D3A8D4B8D05
:103F60005C8D0E9499265B016C01C201B101A40124
:103F700093010E9499263B014C01C201B101298D98
:103F80003A8D4B8D5C8D0E9499269B01AC01A60C4D
:103F9000B71CC81CD91C29A03AA04BA05CA0C20128
:103FA000AA27BB27A80EB91ECA1EDB1EA614B7047B
:103FB000C804D90420F4205030404F4F5F4FC60151
:103FC000AA27BB27820F931FA41FB51F4D8C5E8CA1
:103FD0006F8C78A0481659066A067B0618F184157E
:103FE0009505A605B705A1F56501BB24AA2489A1FD
:103FF0009AA1ABA1BCA1A070B070A80EB91ECA1E38
:10400000DB1E8DA19EA1AFA1B8A509A404C0880F95
:10401000991FAA1FBB1F0A94D2F78A159B05AC05EE
:10402000BD05B0F40894E108F1080109110910C0B8
:10403000AA24BB246501EE24FF2487010CC0AA2416
:10404000BB24650181E0E82EF12C012D112D03C068
:10405000AA24BB246501FE01719688E0DF011D9250
:104060008A95E9F7E98AFA8A0B8B1C8BAD8ABE8A9E
:10407000CF8AD88E2E2D3A894B895C896A2D7E890C
:104080008F89988DE896E2E10C94F626ACE3B0E0D7
:10409000ECE4F0E20C94DA26F82FE92FA986BA8630
:1040A000CB86DC86ED86FE860F87188BE984FA8442
:1040B0000B851C858D859E85AF85B889298F3A8FA4
:1040C0004B8F5C8F298C3A8C4B8C5C8C2DA23EA242
:1040D0004FA258A63B018F2E9E2E1301240100975C
:1040E000A105B10509F00DC36E147F048006910689
:1040F00008F0F7C020E0E21620E0F20621E0020717
:1041000020E0120758F43FEFE316F1040105110512
:1041100009F090F480E090E0DC0117C040E0E41684
:1041200040E0F40640E0040741E0140750F480E169
:1041300090E0A0E0B0E009C088E090E0A0E0B0E04E
:1041400004C088E190E0A0E0B0E0A8019701082E4B
:1041500004C056954795379527950A94D2F7205372
:104160003F4FF9012081F0E2AF2EB12CC12CD12CB0
:10417000A81AB90ACA0ADB0AA21AB108C108D108EA
:10418000AD8EBE8ECF8ED8A2A114B104C104D104CD
:1041900099F12D8D022E04C0EE0CFF1C001F111F83
:1041A0000A94D2F7022E04C0660C771C881C991C56
:1041B0000A94D2F760E270E06A197B09298C3A8C84
:1041C0004B8C5C8C04C056944794379427946A9522
:1041D000D2F72628372848285928498D5A8D6B8DC3
:1041E0007C8D04C0440F551F661F771F2A95D2F798
:1041F0004DA35EA36FA378A7380188249924C80132
:10420000B70180709070698F7A8F8B8F9C8FC201FD
:10421000B101A40193010E94B826D22EA32EC42E70
:10422000B52E69A37AA38BA39CA3C201B101A401FB
:1042300093010E94B8266D2D7A2D8C2D9B2D298DF2
:104240003A8D4B8D5C8D0E9499265B016C0129A0F3
:104250003AA04BA05CA0D101992788272DA03EA0B1
:104260004FA058A4920144275527822B932BA42BAF
:10427000B52B8A159B05AC05BD0590F48E0D9F1DD1
:10428000A01FB11F8E159F05A007B10748F08A1522
:104290009B05AC05BD0520F48E0D9F1DA01FB11F11
:1042A0009C01AD012A193B094C095D0959016A01BC
:1042B000CA01B901A40193010E94B826522E232EEF
:1042C000442E352E69A37AA38BA39CA3C601B50106
:1042D000A40193010E94B826652D722D842D932D83
:1042E000C5C1E114F1040105110559F461E070E064
:1042F00080E090E0A80197010E94B82679018A0128
:1043000010C050E0E51650E0F50651E0050750E01A
:10431000150758F46FEFE616F1040105110509F0D1
:1043200090F480E090E0DC0117C070E0E71670E0E8
:10433000F70670E0070771E0170750F480E190E09E
:10434000A0E0B0E009C088E090E0A0E0B0E004C0E8
:1043500088E190E0A0E0B0E0A8019701082E04C039
:1043600056954795379527950A94D2F720533F4F96
:10437000F9012081820F911DA11DB11D50E2252E52
:10438000312C412C512C281A390A4A0A5B0A2D8EED
:104390003E8E4F8E58A2211431044104510439F449
:1043A00064015301AE18BF08C00AD10AEBC02D8DBD
:1043B000022E04C0EE0CFF1C001F111F0A94D2F73E
:1043C00013012401082E04C056944794379427946F
:1043D0000A94D2F764015301022E04C0AA0CBB1C3C
:1043E000CC1CDD1C0A94D2F7498D5A8D6B8D7C8DC7
:1043F00004C076956795579547958A95D2F7A42A74
:10440000B52AC62AD72AA9A2BAA2CBA2DCA2698D54
:104410007A8D8B8D9C8D04C0660F771F881F991F26
:104420002A95D2F76DA37EA38FA398A7380188247D
:104430009924D801C701A070B070898F9A8FAB8F73
:10444000BC8FC201B101A40193010E94B826D22EF3
:10445000A32EC42EB52E69A77AA78BA79CA7C2014D
:10446000B101A40193010E94B8266D2D7A2D8C2DE7
:104470009B2D298D3A8D4B8D5C8D0E9499265B0179
:104480006C0129A43AA44BA45CA4D10199278827E4
:1044900029A03AA04BA05CA0920144275527822B6B
:1044A000932BA42BB52B8A159B05AC05BD0590F469
:1044B0008E0D9F1DA01FB11F8E159F05A007B10770
:1044C00048F08A159B05AC05BD0520F48E0D9F1D97
:1044D000A01FB11F9C01AD012A193B094C095D09C0
:1044E00059016A01CA01B901A40193010E94B826C9
:1044F000522E232E442E352E69A77AA78BA79CA770
:10450000C601B501A40193010E94B826652D722D44
:10451000842D932D298D3A8D4B8D5C8D0E9499268B
:104520005B016C0149A55AA56BA57CA5DA01992709
:10453000882729A13AA14BA15CA140705070822B21
:10454000932BA42BB52B8A159B05AC05BD0590F4C8
:104550008E0D9F1DA01FB11F8E159F05A007B107CF
:1045600048F08A159B05AC05BD0520F48E0D9F1DF6
:10457000A01FB11F1C012D012A183B084C085D0823
:1045800062015101180144245524A801970140708B
:104590005070298F3A8F4B8F5C8FC601B501A201F5
:1045A00091010E94B826622E932E842E752E69A347
:1045B0007AA38BA39CA3C601B501A20191010E941D
:1045C000B826662D792D882D972D298D3A8D4B8D06
:1045D0005C8D0E9499265B016C0149A15AA16BA1D7
:1045E0007CA1DA01992788276DA07EA08FA098A4CE
:1045F000940144275527822B932BA42BB52B8A1586
:104600009B05AC05BD0590F48E0D9F1DA01FB11F2D
:104610008E159F05A007B10748F08A159B05AC05CC
:10462000BD0520F48E0D9F1DA01FB11F9C01AD0183
:104630002A193B094C095D0959016A01CA01B901EE
:10464000A20191010E94B826622E932E842E752E0F
:1046500069A37AA38BA39CA3C601B501A201910112
:104660000E94B826662D792D882D972D298D3A8D9B
:104670004B8D5C8D0E9499265B016C0149A15AA16A
:104680006BA17CA1DA01992788272DA13EA14FA11A
:1046900058A540705070822B932BA42BB52B8A15F4
:1046A0009B05AC05BD0590F48E0D9F1DA01FB11F8D
:1046B0008E159F05A007B10748F08A159B05AC052C
:1046C000BD0520F48E0D9F1DA01FB11F8A199B09E7
:1046D000AC09BD099C01AD010D8C04C056954795F0
:1046E000379527950A94D2F7298B3A8B4B8B5C8BA5
:1046F0001D8A1E8A1F8A188E3A894B895C8960E060
:10470000DEC2681679068A069B0618F48F2F9E2F44
:10471000D9C2803050E0950751E0A50750E0B507B9
:1047200050F48F3F9105A105B10509F090F4AA243A
:10473000BB24650119C0803060E0960760E0A607E1
:1047400061E0B60760F440E1A42EB12CC12CD12C5D
:104750000BC038E0A32EB12CC12CD12C05C028E110
:10476000A22EB12CC12CD12C9C01AD010A2C04C06D
:1047700056954795379527950A94D2F720533F4F82
:10478000F9012081A20EB11CC11CD11C20E230E035
:1047900040E050E02A193B094C095D0909F047C087
:1047A00086159705A805B90548F0A98CBA8CCB8C5D
:1047B000DC8CAE14BF04C006D10638F1298D3A8DC9
:1047C0004B8D5C8D2E193F09400B510B681A790AED
:1047D0008A0A9B0AA1E0EA2EF12C012D112D698D88
:1047E0007A8D8B8D9C8D621773078407950718F05F
:1047F000EE24FF248701130124012E183F08400AEC
:10480000510A2DA33EA34FA358A78DA19EA1AFA1EE
:10481000B8A5898B9A8BAB8BBC8B2D8A3E8A4F8A2D
:10482000588E2DA13A894B895C89622D48C22DA3EF
:104830001C012D01022E04C0220C331C441C551CEB
:104840000A94D2F7A9A6D801C70104C0B695A795C6
:1048500097958795AA94D2F7282A392A4A2A5B2A5B
:104860002D8E3E8E4F8E58A257016801022E04C035
:10487000AA0CBB1CCC1CDD1C0A94D2F7ADA6BEA6AC
:10488000CFA6D8AA1301240109A404C056944794C2
:10489000379427940A94D2F774016301022E04C05E
:1048A000CC0CDD1CEE1CFF1C0A94D2F7898D9A8D6E
:1048B000AB8DBC8D09A404C0B695A7959795879537
:1048C0000A94D2F7C82AD92AEA2AFB2AC9A2DAA26C
:1048D000EBA2FCA2E98CFA8C0B8D1C8D04C0EE0CB3
:1048E000FF1C001F111F2A95D2F7E9AAFAAA0BABE9
:1048F0001CAB0D8D1E8D2F8D38A139018824992474
:104900002070307009AF1AAF2BAF3CAFC201B101BC
:10491000A40193010E94B826A22ED32EE42E052FC7
:104920006DAB7EAB8FAB98AFC201B101A401930117
:104930000E94B8268A2D9D2DAE2DB02F898F9A8F7B
:10494000AB8FBC8FBC01CD0129AD3AAD4BAD5CAD99
:104950000E9499262DA93EA94FA958AD8901FF248F
:10496000EE2429A03AA04BA05CA092014427552731
:10497000E22AF32A042B152BE616F7060807190777
:1049800050F5298D3A8D4B8D5C8D21503040404043
:104990005040298F3A8F4B8F5C8F2D8C3E8C4F8CE3
:1049A00058A0E20CF31C041D151DE214F3040405C9
:1049B000150588F0E616F7060807190760F4215078
:1049C000304040405040298F3A8F4B8F5C8FE20C33
:1049D000F31C041D151DE61AF70A080B190BC80174
:1049E000B701A40193010E94B826D22EC32EB42E83
:1049F000552E6DAB7EAB8FAB98AFC801B701A4014C
:104A000093010E94B8268D2D9C2DAB2DB52D5C01F8
:104A10006D01C601B50129AD3AAD4BAD5CAD0E944B
:104A200099268B019C014DA85EA86FA878ACB201B5
:104A30005527442789A19AA1ABA1BCA1A070B07051
:104A4000482B592B6A2B7B2B4017510762077307A2
:104A500000F50894A108B108C108D1086D8C7E8CBE
:104A60008F8C98A0460D571D681D791D461557055A
:104A70006805790570F0401751076207730748F41D
:104A80000894A108B108C108D108460D571D681D3A
:104A9000791DDB01CA01801B910BA20BB30B89A30B
:104AA0009AA3ABA3BCA3298C3A8C4B8C5C8CD10110
:104AB000992788278A299B29AC29BD292FEFE22E27
:104AC0002FEFF22E012D112DE822F9220A231B23AC
:104AD0003D0188249924ADA4BEA4CFA4D8A82FEF6B
:104AE0003FEF40E050E0A222B322C422D5224DA5E0
:104AF0005EA56FA578A91B0144245524C801B70100
:104B0000A60195010E949926698F7A8F8B8F9C8FC1
:104B1000C801B701A20191010E9499267B018C0175
:104B2000C401B301A60195010E9499265B016C01A5
:104B3000C401B301A20191010E9499269B01AC011D
:104B4000EA0CFB1C0C1D1D1D298C3A8C4B8C5C8CBB
:104B5000C201AA27BB27E80EF91E0A1F1B1FEA1471
:104B6000FB040C051D0520F4205030404F4F5F4FD3
:104B7000C801AA27BB27820F931FA41FB51F870157
:104B8000FF24EE24298D3A8D4B8D5C8D4070507042
:104B9000E20EF31E041F151F49A05AA06BA07CA0B3
:104BA000481659066A067B0670F084159505A60519
:104BB000B70599F569A87AA88BA89CA86E147F04FC
:104BC0008006910650F5A80197018DA49EA4AFA47C
:104BD000B8A8281939094A095B095C016D012D8CB7
:104BE0003E8C4F8C58A0A218B308C408D50881E0A9
:104BF00090E0A0E0B0E0E216F3060407150718F015
:104C000080E090E0DC0125013601481A590A6A0A61
:104C10007B0AD301C20179018A0169A87AA88BA80D
:104C20009CA86E187F08800A910A9401830149A10B
:104C30005AA16BA17CA1481B590B6A0B7B0B81E02D
:104C400090E0A0E0B0E089A89AA8ABA8BCA8801624
:104C50009106A206B30618F080E090E0DC01481B44
:104C6000590B6A0B7B0B5A016B0109A404C0AA0CF7
:104C7000BB1CCC1CDD1C0A94D2F70DA004C03695D9
:104C80002795179507950A94D2F7A02AB12AC22A28
:104C9000D32AA98ABA8ACB8ADC8ACB01BA010DA0B1
:104CA00004C096958795779567950A94D2F76D8B92
:104CB0007E8B8F8B988F2A2D3A894B895C897E89D0
:104CC0008F89988DEC96E2E10C94F626991B79E099
:104CD00004C0991F961708F0961B881F7A95C9F78C
:104CE00080950895AA1BBB1B51E107C0AA1FBB1FDB
:104CF000A617B70710F0A61BB70B881F991F5A9568
:104D0000A9F780959095BC01CD01089597FB092ED8
:104D100007260AD077FD04D0E5DF06D000201AF47C
:104D2000709561957F4F0895F6F7909581959F4F07
:104D30000895629FD001739FF001829FE00DF11DE5
:104D4000649FE00DF11D929FF00D839FF00D749F05
:104D5000F00D659FF00D9927729FB00DE11DF91FB1
:104D6000639FB00DE11DF91FBD01CF01112408950E
:104D7000A1E21A2EAA1BBB1BFD010DC0AA1FBB1F5F
:104D8000EE1FFF1FA217B307E407F50720F0A21BD1
:104D9000B30BE40BF50B661F771F881F991F1A943E
:104DA00069F760957095809590959B01AC01BD0168
:104DB000CF0108952F923F924F925F926F927F9210
:104DC0008F929F92AF92BF92CF92DF92EF92FF921B
:104DD0000F931F93CF93DF93CDB7DEB7CA1BDB0BC7
:104DE0000FB6F894DEBF0FBECDBF09942A8839886C
:104DF00048885F846E847D848C849B84AA84B98473
:104E0000C884DF80EE80FD800C811B81AA81B9817E
:104E1000CE0FD11D0FB6F894DEBF0FBECDBFED0192
:104E20000895CF93DF938230910510F482E090E0F3
:104E3000E091C002F091C10240E050E020E030E09B
:104E400026C06081718168177907E0F068177907DB
:104E500081F4828193812115310531F0D9011396B6
:104E60009C938E9312972BC09093C1028093C002A3
:104E700026C04115510519F06417750718F4AB01E8
:104E8000E901DF019F0172816381E72FF62F3097DF
:104E9000C1F64115510501F1481B590B443051052C
:104EA00080F412968D919C911397209719F09B8313
:104EB0008A8304C09093C1028093C002FD013296A0
:104EC00046C0FD01E40FF51F81939193425050407D
:104ED00011965C934E933BC02091BE023091BF026D
:104EE0002115310541F42091D2013091D301309345
:104EF000BF022093BE022091D4013091D50121152B
:104F0000310541F42DB73EB74091D0015091D10108
:104F1000241B350BE091BE02F091BF02E217F307AC
:104F2000A0F42E1B3F0B2817390778F0AC014E5F19
:104F30005F4F2417350748F04E0F5F1F5093BF0295
:104F40004093BE028193919302C0E0E0F0E0CF0174
:104F5000DF91CF910895CF93DF93009709F491C02B
:104F6000FC013297138212826091C0027091C102DB
:104F70006115710581F420813181280F391F8091DD
:104F8000BE029091BF028217930799F5F093BF027A
:104F9000E093BE0276C0DB0180E090E002C0CD016C
:104FA000D901AE17BF0748F412962D913C91139783
:104FB00021153105A1F7CD0121C0B383A283EF01F3
:104FC000499159919E01240F351FA217B30779F417
:104FD0002D913C911197240F351F2E5F3F4F318348
:104FE000208312962D913C9113973383228300974F
:104FF00029F4F093C102E093C00243C0DC01139690
:10500000FC93EE9312974D915D91A40FB51FEA1793
:10501000FB0769F420813181240F351F2E5F3F4F3C
:10502000EC0139832883228133813B832A83E0E0AA
:10503000F0E002C0FB01BC01DB0112968D919C9156
:1050400013970097B9F79B012E5F3F4F8D919C916D
:105050001197820F931F4091BE025091BF024817D3
:10506000590779F4309729F41092C1021092C002C6
:1050700002C013821282225030403093BF0220932C
:10508000BE02DF91CF910895A0E0B0E0EAE4F8E23B
:105090000C94E226EC01688179818A819B816115FB
:1050A00071058105910521F464E279ED8BE597E0C6
:1050B0002DE133EF41E050E00E941D2A79018A0181
:1050C00027EA31E440E050E00E9499265B016C0140
:1050D000C801B7012CEE34EF4FEF5FEF0E94992625
:1050E0006A0D7B1D8C1D9D1D97FF04C06150704093
:1050F00080409048688379838A839B837F77CB0144
:10510000CDB7DEB7EAE00C94FE260E94442808954D
:1051100086ED91E00E9444280895A0E0B0E08093DD
:10512000D6019093D701A093D801B093D9010895E7
:105130002F923F924F925F926F927F929F92AF9287
:10514000BF92CF92DF92EF92FF920F931F93CF9374
:10515000DF933B01EA016115710519F0FB018083C2
:105160009183209739F09E0122503040233231053F
:1051700008F0D5C0C82ED92EF60111916F017F011C
:10518000812F90E00E94A6290097B1F71D3231F4DB
:10519000F60111917F019924939406C01B3219F4F2
:1051A000F60111917F019924209719F0C031D105A2
:1051B000D1F4103389F4F7018081883711F08835F4
:1051C00059F4F701118182E090E0E80EF91E92E0B7
:1051D000992AC0E1D0E007C0209729F41033B1F03C
:1051E000CAE0D0E02BC0CA30D10541F1C031D105B1
:1051F00021F0C830D105A9F409C02FEFA22E2FEF5E
:10520000B22E2FEFC22E2FE0D22E20C0C8E0D0E069
:105210009FEFA92E9FEFB92E9FEFC92E9FE1D92EA8
:1052200015C09E01442737FD4095542F6FEF7FEF47
:10523000CB010E94B82659016A0108C089E9A82E4D
:1052400089E9B82E89E9C82E89E1D82E60E020E0EE
:1052500030E0A9011E01442437FC4094542C012F56
:1052600000530A3060F0812F81548A3110F40750C6
:1052700006C0812F81568A3150F5012F0755802FA6
:1052800090E08C179D071CF56F3FE9F0A216B3065E
:10529000C406D506A8F0CA01B901A20191010E9475
:1052A00099269B01AC01802F90E0A0E0B0E0280F90
:1052B000391F4A1F5B1F281739074A075B0710F47D
:1052C0006FEF01C061E0F70111917F01C8CF611458
:1052D000710481F0662339F00894E108F108F301C4
:1052E000F182E08207C091FE05C0C7010297F30179
:1052F0009183808390FE07C050954095309521950D
:105300003F4F4F4F5F4F67FF0DC082E290E0909399
:10531000C3028093C2022FEF3FEFA90103C020E038
:1053200030E0A901B901CA01DF91CF911F910F911E
:10533000FF90EF90DF90CF90BF90AF909F907F90C5
:105340006F905F904F903F902F900895911162C0A1
:10535000803219F089508550D0F70895FB01DC01A7
:1053600005900D920020E1F70895FB019F01E8945C
:105370004230C4F04532B4F44A3029F497FB1EF4AD
:10538000909581959F4F642F77270E947226805DAC
:105390008A330CF0895D8193CB010097A1F716F455
:1053A0005DE251931082C9010C940D2AFA01CF934A
:1053B000FF93EF93223044F1253234F5C22FE89465
:1053C000CA3049F497FB3EF49095809570956195AD
:1053D0007F4F8F4F9F4F2C2F332744275527FF9305
:1053E000EF930E94B826EF91FF91605D6A330CF055
:1053F000695D6193B901CA0160507040804090407E
:1054000051F716F4CDE2C19310828F919F91CF9105
:105410000C940D2A992788270895DC01FC01672F39
:1054200071917723E1F7329704C07C916D9370837B
:105430006291AE17BF07C8F3089597FB092E0526A2
:105440000ED057FD04D094DC0AD0001C38F45095DF
:105450004095309521953F4F4F4F5F4F0895F6F798
:1054600090958095709561957F4F8F4F9F4F0895D0
:04547000F894FFCFDE
:1054740020280029008142241818244281000000B9
:105484000000000000000000000000000081422431
:1054940018182442818142241818244281000000F3
:1054A4000000000000000000000000000081422411
:1054B400181824428101013B0D870DF30CDB0DA369
:1054C4000D170D630D020408101F3F7DFA3A2000EA
:1054D4006D7300202800206D696E290073290A006D
:1054E4000001020203030303040404040404040487
:1054F4000505050505050505050505050505050558
:105504000606060606060606060606060606060637
:105514000606060606060606060606060606060627
:105524000707070707070707070707070707070707
:1055340007070707070707070707070707070707F7
:1055440007070707070707070707070707070707E7
:1055540007070707070707070707070707070707D7
:1055640008080808080808080808080808080808B7
:1055740008080808080808080808080808080808A7
:105584000808080808080808080808080808080897
:105594000808080808080808080808080808080887
:1055A4000808080808080808080808080808080877
:1055B4000808080808080808080808080808080867
:1055C4000808080808080808080808080808080857
:1055D4000808080808080808080808080808080847
:0A55E4002000C402000001000000D6
:00000001FF
