:100000000C9441020C945E020C945E020C945E020D
:100010000C945E020C945E020C945E020C94380602
:100020000C945E020C945E020C9434080C945E02F4
:100030000C945E020C94F3030C9422040C945E0264
:100040000C945E020C945E020C945E020C945E02B0
:100050000C945E0276322E332052656C65617365B6
:100060000A00496E697469616C697A65643A2000B6
:1000700053656C662D54657374204572726F723AC5
:1000800020306200203D3E204E6F20616E73776508
:10009000722066726F6D20417564696F210A0020BD
:1000A0003D3E204E6F20616E737765722066726FE1
:1000B0006D204D656D6F7279210A00203D3E204311
:1000C000616E277420777269746520746F204D65A6
:1000D0006D6F7279210A00286429656C6574652C3E
:1000E00020286729657420616E696D732C20287340
:1000F00029657420616E696D732C202876296572DC
:1001000073696F6E0A00287429696D652C20286157
:10011000297564696F2C202863296F756E742C20F3
:10012000287829437573746F6D20636F756E740A38
:100130000028792953657420666978656420616EAA
:10014000696D6174696F6E20636F756E740A005318
:100150002865296C6620546573742C20286D296FDE
:1001600064650A00506C61792053286E29616B65C3
:100170000A00416C6C204C454473204F66662F4F3B
:100180006E2028302F31290A002832293A20546560
:10019000737420416E696D2E20310A002833293A8C
:1001A00020416C6C2053757266616365204C454438
:1001B00073206F6E0A0053797374656D2054696DF6
:1001C000653A2000204672616D65732073746F720A
:1001D00065640A0053656E64206120627974652E3F
:1001E0002E2E2000207772697474656E210A0041FA
:1001F0006E696D6174696F6E20636F756E74206EC9
:100200006F772038373035210A0053656C662D54DE
:100210006573743A203062004B696C6C65642041F0
:100220006E696D6174696F6E20436F756E7465726F
:10023000210A00436F756C64206E6F7420616363E4
:1002400065737320646576696365210A004175648E
:10025000696F20446174613A0A00436F6E74726F73
:100260006C733A2057204120532044205120452CC4
:10027000207820746F20717569740A0052616E20B5
:100280006F7574206F662048656170210A00416EA9
:10029000696D6174696F6E2061626F72746564214B
:1002A0000A002869296E7465727275707420636F14
:1002B000756E742C20287229616E646F6D2C202855
:1002C000712972657365740A0020496E74657272D3
:1002D0007570747320616674657220313030306DD2
:1002E0007365630A00204672616D657320706572E4
:1002F000205365636F6E640A004D656D6F727920DF
:1003000064656C65746564210A00526573657420C8
:10031000696E203530306D732E20427965210A00D8
:100320005761746368646F672052657365742064F5
:10033000657465637465642E0A0042726F776E2D72
:100340004F757420526573657420646574656374B9
:1003500065642E0A004E6F205265736574207265C5
:1003600061736F6E2064657465637465642E0A0042
:1003700045787465726E616C205265736574206493
:10038000657465637465642E0A004A5441472052BF
:10039000657365742064657465637465642E0A0012
:1003A000506F7765722D4F6E2052657365742064AF
:1003B000657465637465642E0A0059617921204172
:1003C0006E6F74686572206D696E757465207061FA
:1003D00073736564203A290A00417564696F204D82
:1003E0006F6465210A0043756265204D6F64652165
:1003F0000A0043756265206D6F646520656E7465E3
:10040000726564210A00417564696F206D6F6465CF
:1004100020656E7465726564210A00540070006284
:100420000084009F00BB00D700060131014F01642A
:1004300001720189019C01B601C401D401E401EFFC
:10044000010A02180233024D025A027C028E02A2F5
:1004500002C902E502F9020A0320033A03550370B8
:10046000038A03A003BA03D903E603F20306045385
:100470007472696E67206E6F7420666F756E64218A
:100480000A0011241FBECFE5D8E0DEBFCDBF11E0CA
:10049000A0E6B0E0E8EEFCE202C005900D92AC38B8
:1004A000B107D9F712E0ACE8B1E001C01D92A13765
:1004B000B107E1F70E94AE020C9472160C94000092
:1004C000B09911C040918D01242F30E080918E01B0
:1004D00090E001972817390724F44F5F40938D016E
:1004E00002C010928D0180918D010895863561F1D1
:1004F000873580F4873411F1883438F48234E1F0A0
:100500008434C1F08F3331F513C0883489F08335DA
:1005100009F517C0883661F0893628F4843651F021
:100520008736C1F40BC0833761F0863799F40CC06D
:1005300086E00BC00E94CB0882E40DC00E94291403
:1005400008950E94F30F089580E00E9434090E94EC
:100550003B05089583E20E94FB0408955F926F9229
:100560007F928F929F92AF92BF92CF92DF92EF9243
:10057000FF920F931F93CF93DF9384B78093A901CA
:1005800014BE98E10FB6F89491BD11BC0FBE8FEF69
:100590008ABB8CEF81BB97BB84BB87B3866087BB6C
:1005A000B8980E94C10589E190E068E040E021E050
:1005B0000E9465040E94B2060E942B0878942EE0E7
:1005C00088E190E00FB6F894A89581BD0FBE21BDDB
:1005D00081E690E00E9468050E94A4098F5F8093E5
:1005E0008E010E9460020E949908D22EC32EB42E62
:1005F000A52E962E872E782E592E0E94EA08EC0101
:10060000FF246624EE2480918C01882309F4A895A8
:1006100080918D01882381F00E94BD05882309F413
:1006200063C00E940D08009709F45EC060918D01BF
:1006300061500E94A60958C080916000882331F063
:100640000E94EA08EC0110926000EE242097F1F07D
:100650000E94BD05681608F047C02E2D30E0CE017F
:1006600001972817390710F4E39401C0EE248E2D6A
:1006700090E00E94AA088C01FC01E05CFF4F6080C2
:100680000E946805C8010E94A1152EC080918F01AB
:1006900082FD2AC081FF0FC00E94E40FF81638F4D3
:1006A0000F2D0F5F8F2D0E94E60FF02E1DC0809141
:1006B0008F018D7F16C00E94BD058033A8F0EF2DFD
:1006C000F0E0EE0FFF1FEF59FE4F808191810E94F5
:1006D00068053F2D333010F4F39406C080918F01EC
:1006E000826080938F01FF240E949704882321F069
:1006F0000E94A5040E9476020E949908F22FFD191B
:10070000A1E02F1708F0A0E0232F2C19E1E0321709
:1007100008F0E0E0322F3A1BA32F31E02A1708F04F
:1007200030E0E32B342F3B1921E0431708F020E0A1
:10073000432F4E1BE42F41E03E1708F040E0242BEE
:10074000452F4A1931E0541708F030E0542F521B5E
:1007500021E0451708F020E0322B462F491921E00F
:10076000641708F020E0642F631B31E0461708F09F
:1007700030E0232B472F481931E0741708F030E0A0
:10078000742F721B21E0471708F020E0322B482F0E
:10079000471921E0841708F020E0842F831B31E003
:1007A000481708F030E0232B9519921779F4882325
:1007B00069F4772359F4662349F4552339F4EE2379
:1007C00029F4AA2319F4F73908F41DCF0E94600216
:1007D0000E949908D22EC32EB42EA52E962E872EB7
:1007E000782E592E10CF1F920F920FB60F92112410
:1007F0008F939F93EF93FF93E0919201F091930178
:100800008CB1E655FE4F80838091920190919301C7
:100810008F31910550F4809192019091930101964E
:10082000909393018093920104C0109293011092CF
:100830009201FF91EF919F918F910F900FBE0F90BA
:100840001F9018951F920F920FB60F9211242F939D
:100850003F938F939F93EF93FF9320919401309157
:100860009501809196019091970128173907F1F031
:10087000E0919401F0919501E653FE4F80818CB98F
:1008800080919401909195018F31910550F4809160
:100890009401909195010196909395018093940114
:1008A00009C0109295011092940104C081E08093D8
:1008B00067015598FF91EF919F918F913F912F91F3
:1008C0000F900FBE0F901F901895433060F5362F94
:1008D0003550343040F5322F3150323030F544232A
:1008E00041F030B5306230BD423019F430B530617E
:1008F00030BD223019F420B5286020BD653061F08C
:10090000663011F0683029F420B5226020BD6630D1
:1009100019F020B5246020BD90BD89B98AB18869DD
:100920008AB980E0089581E0089581E008954091BA
:10093000900150919101209192013091930181E0B9
:100940004217530709F480E00895209190013091F7
:10095000910180919201909193012817390729F113
:10096000E0919001F0919101E655FE4F8081E09178
:100970009001F0919101E655FE4F10822091900177
:10098000309191012F31310558F42091900130912F
:1009900091012F5F3F4F3093910120939001089573
:1009A0001092910110929001089580E00895809135
:1009B00096019091970120919401309195010196B3
:1009C0008217930791F0809194019091950100977F
:1009D00079F4209196013091970181E090E02F31D8
:1009E000310541F080E090E0089581E090E00895C5
:1009F00080E090E008952091960130919701409118
:100A00009401509195012F5F3F4F2417350799F3BB
:100A100020919401309195012115310539F42091EF
:100A20009601309197012F31310529F3E09196011C
:100A3000F0919701E653FE4F80838091960190914B
:100A400097018F31910550F4809196019091970113
:100A50000196909397018093960104C0109297019C
:100A60001092960180916701813021F41092670104
:100A7000559A5D9A0895CF93DF93C82FD92F02C05E
:100A80000E94FB0489918823D9F7DF91CF910895C3
:100A90001AB810BC10BC19B81092910110929001B4
:100AA000109295011092940110929301109292016C
:100AB0001092970110929601089520919C01309117
:100AC0009D0140919E0150919F01B901CA01089575
:100AD0007FB7F89421E02093980110929901109229
:100AE0009B01482F592F80E090E019C06D916095CF
:100AF000F901EE0FFF1FEE0FFF1FEE0FFF1FE80FB4
:100B0000F91FE651FE4F60832F5F3F4F28303105BC
:100B100069F70196485F5F4F8830910521F0DA014F
:100B200020E030E0E3CF7FBF08959FB7F89421E045
:100B3000209398011092990110929B0120E030E0DF
:100B4000809510C0FB01E40FF51FE651FE4F808336
:100B50004F5F5F4F48305105A9F72F5F3F4F283057
:100B6000310549F040E050E0B901E3E0660F771F3E
:100B7000EA95E1F7E7CF9FBF0895809199018695A7
:100B800008958EB589608EBD82EC92EA9BBD8ABDC8
:100B900080E189BF80E00E949505789480E090E034
:100BA00061E01DC07FB7F894FA01E20FF31FE65130
:100BB000FE4FA081108260939801109299011092CB
:100BC0009B017FBF709199017723E1F32F5F3F4F26
:100BD0002830310539F701968830910549F020E039
:100BE00030E0AC01F3E0440F551FFA95E1F7DACF9E
:100BF000F89410929C0110929D0110929E01109207
:100C00009F011092990110929B01089589B78F7EE0
:100C100089BF0895982F9C7F92BB98B3880F880F47
:100C2000880F8871977E892B88BB089595B3937040
:100C300095BB98B3997F98BB823058F095B321E06B
:100C400030E002C0220F331F8A95E2F7922B95BB4A
:100C50000CC048B390E0019621E030E002C0220FC2
:100C6000331F8A95E2F7422B48BB6BBB0000089507
:100C70001F920F920FB60F9211242F933F934F9311
:100C80005F936F937F938F939F93AF93BF93CF9314
:100C9000DF93EF93FF9380919B01809198018823CC
:100CA00021F010929A011092980180E00E940A06A9
:100CB000C0E0D0E0E0919A01F0E0A3E0EE0FFF1F6A
:100CC000AA95E1F7EC0FFD1FE651FE4F60818C2FD6
:100CD0000E9416062196C830D10561F720919A012D
:100CE00081E090E002C0880F991F2A95E2F70E94E8
:100CF0000A0680919A01873030F480919A018F5FC3
:100D000080939A0107C010929A01809199018F5F98
:100D10008093990110929B0180919C0190919D017B
:100D2000A0919E01B0919F010196A11DB11D8093DC
:100D30009C0190939D01A0939E01B0939F01FF9110
:100D4000EF91DF91CF91BF91AF919F918F917F9163
:100D50006F915F914F913F912F910F900FBE0F9028
:100D60001F90189511B88CE080B9089594EA96BF49
:100D700006B607FEFDCF91B1987F983011F0903103
:100D800079F483B984E886BF06B607FEFDCF91B13A
:100D9000987F983139F081E0903429F480E008950B
:100DA00081E0089580E0089544EA34E824E946BFEC
:100DB00006B607FEFDCF91B1987F983011F09031C3
:100DC000B1F783B936BF06B607FEFDCF91B1987F64
:100DD000903211F0983529F426BF06B604FCFDCFF9
:100DE000E6CF08950E94B606089584E986BF06B648
:100DF00004FCFDCF089583B984E886BF06B607FEDC
:100E0000FDCF91B1987F81E0983209F480E0089598
:100E100084EC86BF06B607FEFDCF83B1089584E853
:100E200086BF06B607FEFDCF83B10895DF92EF922D
:100E3000FF920F931F93DF93CF930F92CDB7DEB73F
:100E40007B018C0180E0E81680E0F80681E008076D
:100E500080E0180718F490EAD92E02C082EAD82E52
:100E60008D2D0E94B606882381F40E94FB068E2DEC
:100E70000E94FB068D2D81600E94F2060E940F07E2
:100E800089830E94F506898101C080E00F90CF918F
:100E9000DF911F910F91FF90EF90DF9008958F9257
:100EA0009F92AF92BF92CF92DF92EF92FF920F93F9
:100EB0001F93CF93DF934B015C0180E0881680E0A5
:100EC000980681E0A80680E0B80618F430EAE32E20
:100ED00002C022EAE22E042F10E0C8010E9407158A
:100EE000EC016C01009759F18E2D0E94B606882303
:100EF00021F50E94FB06882D0E94FB068E2D816045
:100F00000E94F206BB24480108948108910807C09A
:100F10000E940807FE01EE0DFF1D8083B394EB2CA9
:100F2000FF24E814F904A4F30E940F07C00FD11F97
:100F3000219788830E94F50602C0CC24DD24C601D7
:100F4000DF91CF911F910F91FF90EF90DF90CF90A5
:100F5000BF90AF909F908F900895EF92FF920F9364
:100F60001F93CF937B018C01C42F80E0E81680E0B3
:100F7000F80681E0080780E0180710F480EA01C055
:100F800082EA0E94B606882351F40E94FB068E2D49
:100F90000E94FB068C2F0E94FB060E94F506CF9153
:100FA0001F910F91FF90EF900895CF92DF92EF92F3
:100FB000FF920F931F93CF93DF937B018C01D42E6D
:100FC000C52FC22E80E0E81680E0F80681E0080711
:100FD00080E0180710F480EA01C082EA0E94B60699
:100FE000882391F40E94FB068E2D0E94FB068C2F15
:100FF000CD2DD82F03C089910E94FB068C2F8D190F
:101000008C15C8F30E94F506DF91CF911F910F91C7
:10101000FF90EF90DF90CF900895CF93DF9383E41C
:101020000E94B606882389F4CAE2D2E00E9408072B
:10103000899382E0C033D807C9F70E940F078093D5
:1010400030020E94F506269702C0C0E0D0E0CE0133
:10105000DF91CF91089583B78B6083BF8AEF8CBFF8
:1010600089B7826089BF08951F920F920FB60F92C1
:1010700011242F933F934F935F936F937F938F939D
:101080009F93AF93EF93FF934091A1013091A20101
:101090002091A3019091A4018091A501F091A60156
:1010A000E091A701A091A801642F6F5F51E0641740
:1010B00008F050E0530F41E0531708F040E0420FB2
:1010C00031E0421708F030E0390F21E0391708F01D
:1010D00020E0280F91E0281708F090E09F0F81E0B2
:1010E0009F1708F080E08E0F71E08E1708F070E017
:1010F0007A0F6093A1015093A2014093A301309312
:10110000A4012093A5019093A6018093A701709359
:10111000A801FF91EF91AF919F918F917F916F9176
:101120005F914F913F912F910F900FBE0F901F90A5
:1011300018952091A1013091A2014091A3015091F5
:10114000A4016091A5017091A6018091A7019091E1
:10115000A8010895BC0126E0660F771F2A95E1F7E4
:10116000680F791F605E7F4F80E090E041E40E944D
:101170004F070895AB01BC0136E0660F771F3A9523
:10118000E1F7680F791F605E7F4F80E090E021E417
:101190000E94D5070895EF92FF920F931F93EE24BC
:1011A000FF248701C801B70140E00E94AD07089401
:1011B000E11CF11C011D111D80E0E81680E0F8061D
:1011C00082E0080780E0180769F71F910F91FF90F0
:1011D000EF900895CF9360E070E0CB010E94160776
:1011E000C82F61E070E080E090E00E9416072C2F8D
:1011F00030E0582F40E0242B352B87E0213E380784
:1012000010F020EE37E0C901CF910895CF93482F19
:10121000C92F60E070E0CB010E94AD0761E070E093
:1012200080E090E04C2F0E94AD07CF910895462FAB
:101230008E3150F490E002969C01B901882777FD29
:101240008095982F0E94AD0708958E3158F4682F2D
:1012500070E06E5F7F4F882777FD8095982F0E9402
:101260001607089580E008958A3248F4E82FF0E0E8
:10127000EE0FFF1FE55EFB4F2591349104C0EFE6B2
:10128000F4E02591349181E392E0B9010E943A168D
:1012900081E392E0089580E490E00E9407159C01AC
:1012A000009709F4FFCFE82FF92FCF01805C9F4F03
:1012B0001192E817F907E1F7C9010895A7E0B0E036
:1012C000FD01E41BF109AD01421B51099A0143E004
:1012D000220F331F4A95E1F7E20FF31FE80FF91FC2
:1012E00081E090E002C0880F991F6A95E2F72081A3
:1012F000282B20830895A7E0B0E0FD01E41BF1094D
:10130000AD01421B51099A0153E0220F331F5A9538
:10131000E1F7E20FF31FE80FF91F81E090E002C050
:10132000880F991F6A95E2F78095908198239083A2
:101330000895282F392FF90180E411928150E9F79F
:1013400008950E94A115089583E00895633050F434
:10135000E62FF0E0EE0FFF1FE859FE4F0190F081FD
:10136000E02D099508959F92AF92BF92CF92DF92A0
:10137000EF92FF920F931F93CF93DF93E82E8B0191
:10138000D42ECE2DD92FFF243FE1C32E89916C2D71
:101390000E94E714982EBB24AC2EAE1810C0FF207C
:1013A00039F44B2D4695C80160E02D2D0E945E0951
:1013B000C8016A2D4B2D2D2D0E945E09B394B914DE
:1013C00070F3F3948F2D873009F7DF91CF911F9140
:1013D0000F91FF90EF90DF90CF90BF90AF909F90D4
:1013E0000895EF92FF920F931F93DF93CF930F9285
:1013F000CDB7DEB78C010E944B097C010E94990990
:1014000020E0C801B701422F29830E94B309298136
:101410002F5F2830B1F7C7010E946805C7010E94FD
:10142000A1090F90CF91DF911F910F91FF90EF9045
:1014300008950F931F93CF93DF938C010E944B0964
:10144000EC010E949909C801BE0147E00E94B3095E
:10145000CE010E946805CE010E94A109DF91CF91C3
:101460001F910F910895F901A7E0B0E09D01261B9F
:101470003109BD01641B7109AB0163E0440F551FC5
:101480006A95E1F7240F351FE20FF31F21E030E0EA
:1014900002C0220F331F8A95E2F78081822B80835E
:1014A0000895EF92FF920F931F93CF93DF93E82E4F
:1014B000F62E042FE90110E007C08E2D612F4F2D6D
:1014C0009E010E94330A1F5F1017B8F3DF91CF917E
:1014D0001F910F91FF90EF900895FF920F931F932C
:1014E000CF93DF938C010E944B09EC010E94990974
:1014F000F80180817FE1F72E6F2D0E94E714482FBD
:1015000080E060E09E010E94510AF80180816F2D09
:101510000E94E714482F80E061E09E010E94510A7A
:10152000F80180816F2D0E94E714482F81E060E070
:101530009E010E94510AF80181816F2D0E94E714DB
:10154000482F80E062E09E010E94510AF8018181EB
:101550006F2D0E94E714482F80E063E09E010E94F7
:10156000510AF80181816F2D0E94E714482F81E014
:1015700061E09E010E94510AF80181816F2D0E9455
:10158000E714482F81E062E09E010E94510AF801B1
:1015900081816F2D0E94E714482F82E060E09E0158
:1015A0000E94510AF80181816F2D0E94E714482F93
:1015B00082E061E09E010E94510AF80182816F2D54
:1015C0000E94E714482F80E064E09E010E94510AC7
:1015D000F80182816F2D0E94E714482F80E065E0BA
:1015E0009E010E94510AF80182816F2D0E94E7142A
:1015F000482F81E063E09E010E94510AF801828138
:101600006F2D0E94E714482F81E064E09E010E9444
:10161000510AF80182816F2D0E94E714482F82E061
:1016200062E09E010E94510AF80182816F2D0E94A2
:10163000E714482F82E063E09E010E94510AF801FE
:1016400082816F2D0E94E714482F83E060E09E01A5
:101650000E94510AF80182816F2D0E94E714482FE1
:1016600083E061E09E010E94510AF80182816F2DA2
:101670000E94E714482F83E062E09E010E94510A15
:10168000F80182816F2D0E94E714482F84E060E00A
:101690009E010E94510AF80182816F2D0E94E71479
:1016A000482F84E061E09E010E94510AF801838185
:1016B0006F2D0E94E714482F80E066E09E010E9493
:1016C000510AF80183816F2D0E94E714482F80E0B2
:1016D00067E09E010E94510AF80183816F2D0E94EC
:1016E000E714482F81E065E09E010E94510AF8014D
:1016F00083816F2D0E94E714482F81E066E09E01F0
:101700000E94510AF80183816F2D0E94E714482F2F
:1017100082E064E09E010E94510AF80183816F2DEE
:101720000E94E714482F82E065E09E010E94510A62
:10173000F80183816F2D0E94E714482F83E063E056
:101740009E010E94510AF80183816F2D0E94E714C7
:10175000482F83E064E09E010E94510AF8018381D2
:101760006F2D0E94E714482F84E062E09E010E94E2
:10177000510AF80183816F2D0E94E714482F84E0FD
:1017800063E09E010E94510AF80183816F2D0E943F
:10179000E714482F85E060E09E010E94510AF8019D
:1017A00083816F2D0E94E714482F85E061E09E0140
:1017B0000E94510AF80183816F2D0E94E714482F7F
:1017C00085E062E09E010E94510AF80183816F2D3D
:1017D0000E94E714482F86E060E09E010E94510AB3
:1017E000F80183816F2D0E94E714482F86E061E0A5
:1017F0009E010E94510AF80184816F2D0E94E71416
:10180000482F81E067E09E010E94510AF80184811F
:101810006F2D0E94E714482F82E066E09E010E942F
:10182000510AF80184816F2D0E94E714482F82E04D
:1018300067E09E010E94510AF80184816F2D0E9489
:10184000E714482F83E065E09E010E94510AF801E9
:1018500084816F2D0E94E714482F83E066E09E018B
:101860000E94510AF80184816F2D0E94E714482FCD
:1018700084E064E09E010E94510AF80184816F2D8A
:101880000E94E714482F84E065E09E010E94510AFF
:10189000F80184816F2D0E94E714482F85E063E0F2
:1018A0009E010E94510AF80184816F2D0E94E71465
:1018B000482F85E064E09E010E94510AF80184816E
:1018C0006F2D0E94E714482F86E062E09E010E947F
:1018D000510AF80184816F2D0E94E714482F86E099
:1018E00063E09E010E94510AF80184816F2D0E94DD
:1018F000E714482F87E060E09E010E94510AF8013A
:1019000084816F2D0E94E714482F87E061E09E01DB
:101910000E94510AF80185816F2D0E94E714482F1B
:1019200083E067E09E010E94510AF80185816F2DD6
:101930000E94E714482F84E066E09E010E94510A4D
:10194000F80185816F2D0E94E714482F84E067E03D
:101950009E010E94510AF80185816F2D0E94E714B3
:10196000482F85E065E09E010E94510AF8018581BB
:101970006F2D0E94E714482F85E066E09E010E94CB
:10198000510AF80185816F2D0E94E714482F86E0E7
:1019900064E09E010E94510AF80185816F2D0E942A
:1019A000E714482F86E065E09E010E94510AF80185
:1019B00085816F2D0E94E714482F87E062E09E0129
:1019C0000E94510AF80185816F2D0E94E714482F6B
:1019D00087E063E09E010E94510AF80185816F2D26
:1019E0000E94E714482F87E064E09E010E94510A9C
:1019F000F80186816F2D0E94E714482F85E067E08B
:101A00009E010E94510AF80186816F2D0E94E71401
:101A1000482F86E066E09E010E94510AF801868107
:101A20006F2D0E94E714482F86E067E09E010E9418
:101A3000510AF80186816F2D0E94E714482F87E034
:101A400065E09E010E94510AF80186816F2D0E9477
:101A5000E714482F87E066E09E010E94510AF801D2
:101A600086816F2D0E94E714482F87E067E09E0172
:101A70000E94510ACE010E946805CE010E94A10970
:101A8000DF91CF911F910F91FF9008950F931F93B6
:101A9000CF93DF930E944B09EC0110E012C0CE01FE
:101AA000612F402F20E00E945E09CE01612F402F60
:101AB00027E00E945E090F5F083089F71F5F18302A
:101AC000B1F000E0ECCFCE0160E0412F202F0E946A
:101AD0005E09CE0168E0412F202F0E945E090F5F52
:101AE000083089F71F5F183019F410E015C010E0B6
:101AF00000E0E9CFCE01612F40E0202F0E945E0977
:101B0000CE01612F48E0202F0E945E090F5F083050
:101B100089F71F5F183011F000E0ECCFCE010E9472
:101B2000680501C0A8950E94BD058230D8F3CE019A
:101B30000E949909CE010E94A115DF91CF911F91BA
:101B40000F9108950F931F93CF93DF930E944B093A
:101B5000EC0111E012C0CE01612F402F21E00E9464
:101B60005E09CE01612F402F26E00E945E090F5FC3
:101B7000073089F71F5F1730B1F001E0ECCFCE01DD
:101B800061E0412F202F0E945E09CE0166E0412FC7
:101B9000202F0E945E090F5F073089F71F5F173003
:101BA00019F411E015C011E001E0E9CFCE01612F79
:101BB00041E0202F0E945E09CE01612F46E0202FD8
:101BC0000E945E090F5F073089F71F5F173011F021
:101BD00001E0ECCFCE010E94680501C0A8950E94EB
:101BE000BD058230D8F3CE010E949909CE010E9432
:101BF000A115DF91CF911F910F9108950F931F931E
:101C0000CF93DF930E944B09EC0112E012C0CE018A
:101C1000612F402F22E00E945E09CE01612F402FEC
:101C200025E00E945E090F5F063089F71F5F1630BE
:101C3000B1F002E0ECCFCE0162E0412F202F0E94F4
:101C40005E09CE0165E0412F202F0E945E090F5FE3
:101C5000063089F71F5F163019F412E015C012E044
:101C600002E0E9CFCE01612F42E0202F0E945E0901
:101C7000CE01612F45E0202F0E945E090F5F0630E4
:101C800089F71F5F163011F002E0ECCFCE010E9401
:101C9000680501C0A8950E94BD058230D8F3CE0129
:101CA0000E949909CE010E94A115DF91CF911F9149
:101CB0000F910895CF93DF930E944B09EC0163E0ED
:101CC00043E023E00E945E09CE0164E043E023E0AC
:101CD0000E945E09CE0164E044E023E00E945E09B8
:101CE000CE0164E044E024E00E945E09CE010E943F
:101CF000680501C0A8950E94BD058230D8F3CE01C9
:101D00000E949909CE010E94A115DF91CF910895FB
:101D1000EF92FF920F931F93DF93CF930F92CDB764
:101D2000DEB70E944B097C0117E01FC0C701602F7E
:101D3000432F212F39830E945E0939813F5F38305C
:101D4000A9F70F5F083011F030E0F0CFC7010E9413
:101D5000680501C0A8950E94BD058230D8F3C7016F
:101D60000E94990911501F3F11F000E0EDCFC7010B
:101D70000E94A1150F90CF91DF911F910F91FF90BD
:101D8000EF900895EF92FF920F931F93DF93CF93FD
:101D90000F92CDB7DEB70E944B097C0110E01FC047
:101DA000C701632F402F212F39830E945E0939819B
:101DB0003F5F3830A9F70F5F083011F030E0F0CF07
:101DC000C7010E94680501C0A8950E94BD05823028
:101DD000D8F3C7010E9499091F5F183011F000E085
:101DE000EDCFC7010E94A1150F90CF91DF911F91F8
:101DF0000F91FF90EF900895EF92FF920F931F9332
:101E0000DF93CF930F92CDB7DEB70E944B097C01D1
:101E100017E01FC0C701612F402F232F39830E9475
:101E20005E0939813F5F3830A9F70F5F083011F044
:101E300030E0F0CFC7010E94680501C0A8950E945C
:101E4000BD058230D8F3C7010E94990911501F3F88
:101E500011F000E0EDCFC7010E94A1150F90CF91C6
:101E6000DF911F910F91FF90EF900895EF92FF92F5
:101E70000F931F93DF93CF930F92CDB7DEB70E94DE
:101E80004B097C0110E01FC0C701612F402F232F99
:101E900039830E945E0939813F5F3830A9F70F5FAF
:101EA000083011F030E0F0CFC7010E94680501C092
:101EB000A8950E94BD058230D8F3C7010E949909F8
:101EC0001F5F183011F000E0EDCFC7010E94A1158F
:101ED0000F90CF91DF911F910F91FF90EF90089598
:101EE000EF92FF920F931F93DF93CF930F92CDB793
:101EF000DEB70E944B097C0117E01FC0C701602FAD
:101F0000412F232F39830E945E0939813F5F38308A
:101F1000A9F70F5F083011F030E0F0CFC7010E9441
:101F2000680501C0A8950E94BD058230D8F3C7019D
:101F30000E94990911501F3F11F000E0EDCFC70139
:101F40000E94A1150F90CF91DF911F910F91FF90EB
:101F5000EF900895EF92FF920F931F93DF93CF932B
:101F60000F92CDB7DEB70E944B097C0110E01FC075
:101F7000C701602F412F232F39830E945E093981C9
:101F80003F5F3830A9F70F5F083011F030E0F0CF35
:101F9000C7010E94680501C0A8950E94BD05823056
:101FA000D8F3C7010E9499091F5F183011F000E0B3
:101FB000EDCFC7010E94A1150F90CF91DF911F9126
:101FC0000F91FF90EF9008958AE008958A3050F4C1
:101FD000E82FF0E0EE0FFF1FE259FE4F0190F08175
:101FE000E02D099508952F923F924F925F926F9244
:101FF0007F928F929F92AF92BF92CF92DF92EF9299
:10200000FF920F931F93DF93CF93CDB7DEB72B973C
:102010000FB6F894DEBF0FBECDBF81E490E00E9402
:10202000071589839A832C010E949908B22EC32E2A
:10203000D42E152F062FF72EE82EA92E82E40E940B
:10204000FB046CC00E949908A22FAB19F1E02A177B
:1020500008F0F0E0232F2C19E1E0321708F0E0E05F
:10206000322F3F1BF32F31E02F1708F030E0E32B26
:10207000342F3D1921E0431708F020E0432F4E1B79
:10208000E42F41E03E1708F040E0242B452F411B90
:1020900031E0541708F030E0542F521B21E045176F
:1020A00008F020E0322B462F401B21E0641708F097
:1020B00020E0642F631B31E0461708F030E0232B4B
:1020C000472F4F1931E0741708F030E0742F721B5E
:1020D00021E0471708F020E0322B482F4E1921E06D
:1020E000841708F020E0842F831B31E0481708F0A4
:1020F00030E0232B9A19921789F4882379F47723F7
:1021000069F4662359F4552349F4EE2339F4F63083
:1021100028F4F53011F4AD3D08F4A8950E94970419
:10212000882309F48FCF0E94A5048B8382E40E9448
:10213000FB04882499243324C201805C9F4F9F8331
:102140008E838EC10E949908E22FEB19F1E02E17C1
:1021500008F0F0E0232F2C19A1E0321708F0A0E0DE
:10216000322F3F1BF32F31E02F1708F030E0A32B65
:10217000342F3D1921E0431708F020E0432F4A1B7C
:10218000A1E0341708F0A0E02A2BA52FA11B31E015
:102190005A1708F030E05A2F521B21E0A51708F01B
:1021A00020E0322BB62FB01B21E06B1708F020E0A7
:1021B000AB2FA31B31E0BA1708F030E0232B672FB9
:1021C0006F1931E0761708F030E0762F721B21E0AE
:1021D000671708F020E0322B682F6E1921E0861770
:1021E00008F020E0862F831B31E0681708F030E00C
:1021F000232B9A19921789F4882379F4772369F4A9
:10220000AA2359F4552349F4442339F4F63028F429
:10221000F53011F4ED3D08F4A8950E949704882349
:1022200009F490CF0E94A504282E82E40E94FB04AA
:1022300034010EC10E949908E22FEB19F1E02E172C
:1022400008F0F0E0A32FAC1921E03A1708F020E0E5
:102250003A2F3F1BF1E0A31708F0F0E02F2BA42F3B
:10226000AD19F1E04A1708F0F0E04A2F421B21E0D7
:10227000A41708F020E0F22BA52FA11B21E05A178C
:1022800008F020E05A2F5F1BF1E0A51708F0F0E0FE
:102290002F2BA62FA01BF1E06A1708F0F0E06A2FA1
:1022A000621B21E0A61708F020E0F22B272F2F1940
:1022B000A1E0721708F0A0E0722F7F1BF1E0271752
:1022C00008F0F0E0AF2BF82FFE1921E08F1708F08F
:1022D00020E08F2F8A1BA1E0F81708F0A0E02A2B3E
:1022E0009A19921789F4882379F4772369F466237D
:1022F00059F4552349F4442339F4363028F4353061
:1023000011F4ED3D08F4A8950E949704882309F480
:1023100091CF0E94A504EE81FF81808382E40E9418
:10232000FB0499818A81292F382FC901805C9F4F36
:102330009D838C83398728876BC00E949908E22F80
:10234000EB19F1E02E1708F0F0E0232F2C19A1E093
:10235000321708F0A0E0322F3F1BF32F31E02F1788
:1023600008F030E0A32B342F3D1921E0431708F08B
:1023700020E0432F4A1BA1E0341708F0A0E02A2BED
:10238000A52FA11B31E05A1708F030E05A2F521B3D
:1023900021E0A51708F020E0322BB62FB01B21E07A
:1023A0006B1708F020E0AB2FA31B31E0BA1708F041
:1023B00030E0232B672F6F1931E0761708F030E0FB
:1023C000762F721B21E0671708F020E0322B682F70
:1023D0006E1921E0861708F020E0862F831B31E07C
:1023E000681708F030E0232B9A19921789F4882394
:1023F00079F4772369F4AA2359F4552349F4442343
:1024000039F4F63028F4F53011F4ED3D08F4A895D0
:102410000E949704882309F490CF0E94A504E885C0
:10242000F9858193F987E8872C813D81E217F307CD
:1024300079F782E40E94FB0493012F5F3F4FC301B1
:10244000B2012A873B870E94BA082A853B85390159
:10245000862D8819821508F457CF820C911C33946D
:102460003B81331608F4D9CEC2010E94A1156CC07D
:102470000E949908A22FAB19F1E02A1708F0F0E0AA
:10248000232F2C19E1E0321708F0E0E0322F3F1B38
:10249000F32F31E02F1708F030E0E32B342F3D19F4
:1024A00021E0431708F020E0432F4E1BE42F41E0CA
:1024B0003E1708F040E0242B452F411B31E0541714
:1024C00008F030E0542F521B21E0451708F020E0BF
:1024D000322B462F401B21E0641708F020E0642FC8
:1024E000631B31E0461708F030E0232B472F4F19CC
:1024F00031E0741708F030E0742F721B21E04717A9
:1025000008F020E0322B482F4E1921E0841708F004
:1025100020E0842F831B31E0481708F030E0232BA4
:102520009A19921789F4882379F4772369F466233A
:1025300059F4552349F4EE2339F4F63028F4F530F4
:1025400011F4AD3D08F4A8950E949704882309F47E
:102550008FCF0E94A5046CC00E949908A22FAB19CE
:10256000F1E02A1708F0F0E0232F2C19E1E03217F0
:1025700008F0E0E0322F3F1BF32F31E02F1708F077
:1025800030E0E32B342F3D1921E0431708F020E021
:10259000432F4E1BE42F41E03E1708F040E0242B70
:1025A000452F411B31E0541708F030E0542F521BE7
:1025B00021E0451708F020E0322B462F401B21E098
:1025C000641708F020E0642F631B31E0461708F021
:1025D00030E0232B472F4F1931E0741708F030E01B
:1025E000742F721B21E0471708F020E0322B482F90
:1025F0004E1921E0841708F020E0842F831B31E07E
:10260000481708F030E0232B9A19921789F4882391
:1026100079F4772369F4662359F4552349F4EE23BA
:1026200039F4F63028F4F53011F4AD3D08F4A895EE
:102630000E949704882309F48FCF0E94A5046CC0E0
:102640000E949908A22FAB19F1E02A1708F0F0E0D8
:10265000232F2C19E1E0321708F0E0E0322F3F1B66
:10266000F32F31E02F1708F030E0E32B342F3D1922
:1026700021E0431708F020E0432F4E1BE42F41E0F8
:102680003E1708F040E0242B452F411B31E0541742
:1026900008F030E0542F521B21E0451708F020E0ED
:1026A000322B462F401B21E0641708F020E0642FF6
:1026B000631B31E0461708F030E0232B472F4F19FA
:1026C00031E0741708F030E0742F721B21E04717D7
:1026D00008F020E0322B482F4E1921E0841708F033
:1026E00020E0842F831B31E0481708F030E0232BD3
:1026F0009A19921789F4882379F4772369F4662369
:1027000059F4552349F4EE2339F4F63028F4F53022
:1027100011F4AD3D08F4A8950E949704882309F4AC
:102720008FCF0E94A5046CC00E949908A22FAB19FC
:10273000F1E02A1708F0F0E0232F2C19E1E032171E
:1027400008F0E0E0322F3F1BF32F31E02F1708F0A5
:1027500030E0E32B342F3D1921E0431708F020E04F
:10276000432F4E1BE42F41E03E1708F040E0242B9E
:10277000452F411B31E0541708F030E0542F521B15
:1027800021E0451708F020E0322B462F401B21E0C6
:10279000641708F020E0642F631B31E0461708F04F
:1027A00030E0232B472F4F1931E0741708F030E049
:1027B000742F721B21E0471708F020E0322B482FBE
:1027C0004E1921E0841708F020E0842F831B31E0AC
:1027D000481708F030E0232B9A19921789F48823C0
:1027E00079F4772369F4662359F4552349F4EE23E9
:1027F00039F4F63028F4F53011F4AD3D08F4A8951D
:102800000E949704882309F48FCF0E94A50482E4D4
:102810000E94FB04C4010E94060981E080936000CD
:102820002B960FB6F894DEBF0FBECDBFCF91DF91D0
:102830001F910F91FF90EF90DF90CF90BF90AF90DE
:102840009F908F907F906F905F904F903F902F90D0
:1028500008956F927F928F929F92AF92BF92CF9284
:10286000DF92EF92FF920F931F93CF93DF930E941B
:10287000EA086C016FEF70E00E94F314009711F406
:10288000862E02C0862E839482E40E94FB04882D4B
:102890000E94FB040E94A504823409F058C000E0A5
:1028A00010E041C08FEFC816D10409F010F49C2C41
:1028B00002C099249A94892D0E94FB040E94A504C9
:1028C000823409F044C0780126C0C7010E94AA08DA
:1028D000EC01FC01E05CFF4F80810E94FB040E9440
:1028E000A504823489F45E0180E4682EF5018191AB
:1028F0005F010E94FB046A94C9F70E94A504089432
:10290000E11CF11C823421F0CE010E94A1151FC0F0
:10291000CE010E94A1158E2D87198915B0F2C91814
:10292000D10801501F4F702E802F8195881508F413
:10293000B9CF82E40E94FB0482E40E94FB0482E49B
:102940000E94FB0482E40E94FB040E94A504DF9124
:10295000CF911F910F91FF90EF90DF90CF90BF909C
:10296000AF909F908F907F906F9008951F93CF931B
:10297000DF930E940D08EC01009731F485E10E947D
:1029800034090E943B051FC086E10E9434090E9461
:102990003B0510E3812F0E94FB0482E891E00E9436
:1029A0003B05899190E061E372E04AE050E00E94CB
:1029B000411681E392E00E943B058AE00E94FB04FD
:1029C0001F5F173339F7DF91CF911F910895991B3E
:1029D00079E004C0991F961708F0961B881F7A9516
:1029E000C9F780950895AA1BBB1B51E107C0AA1F18
:1029F000BB1FA617B70710F0A61BB70B881F991FA0
:102A00005A95A9F780959095BC01CD010895CF9373
:102A1000DF938230910510F482E090E0E0916F0244
:102A2000F091700240E050E020E030E026C060818C
:102A3000718168177907E0F06817790781F482815E
:102A400093812115310531F0D90113969C938E9312
:102A500012972BC09093700280936F0226C041158D
:102A6000510519F06417750718F4AB01E901DF018E
:102A70009F0172816381E72FF62F3097C1F64115D0
:102A8000510501F1481B590B4430510580F4129651
:102A90008D919C911397209719F09B838A8304C092
:102AA0009093700280936F02FD01329646C0FD0143
:102AB000E40FF51F819391934250504011965C931F
:102AC0004E933BC020916D0230916E02211531056D
:102AD00041F4209187013091880130936E02209358
:102AE0006D022091890130918A012115310541F44F
:102AF0002DB73EB74091850150918601241B350BBF
:102B0000E0916D02F0916E02E217F307A0F42E1B24
:102B10003F0B2817390778F0AC014E5F5F4F241741
:102B2000350748F04E0F5F1F50936E0240936D02C1
:102B30008193919302C0E0E0F0E0CF01DF91CF916B
:102B40000895CF93DF93009709F491C0FC01329769
:102B50001382128260916F0270917002611571058B
:102B600081F420813181280F391F80916D0290916D
:102B70006E028217930799F5F0936E02E0936D024F
:102B800076C0DB0180E090E002C0CD01D901AE1734
:102B9000BF0748F412962D913C91139721153105EA
:102BA000A1F7CD0121C0B383A283EF0149915991CF
:102BB0009E01240F351FA217B30779F42D913C9184
:102BC0001197240F351F2E5F3F4F318320831296BC
:102BD0002D913C91139733832283009729F4F0932E
:102BE0007002E0936F0243C0DC011396FC93EE93F6
:102BF00012974D915D91A40FB51FEA17FB0769F479
:102C000020813181240F351F2E5F3F4FEC01398326
:102C10002883228133813B832A83E0E0F0E002C0F5
:102C2000FB01BC01DB0112968D919C9113970097DB
:102C3000B9F79B012E5F3F4F8D919C911197820FA9
:102C4000931F40916D0250916E024817590779F415
:102C5000309729F41092700210926F0202C0138212
:102C600012822250304030936E0220936D02DF9129
:102C7000CF910895FB01DC0105900D920020E1F752
:102C80000895FB019F01E8944230C4F04532B4F44A
:102C90004A3029F497FB1EF4909581959F4F642F3D
:102CA00077270E94F314805D8A330CF0895D81934D
:102CB000CB010097A1F716F45DE251931082C90190
:102CC0000C946216DC01FC01672F71917723E1F708
:102CD000329704C07C916D9370836291AE17BF07E9
:082CE000C8F30895F894FFCF3A
:102CE80001FFFFFFFFFFFFFFFFFF818181818181DE
:102CF800FFFF818181818181FFFF818181818181C4
:102D0800FFFF818181818181FFFF818181818181B3
:102D1800FFFF818181818181FFFFFFFFFFFFFFFFAF
:102D2800FFFF010101FF8080FFFF010101FF80809B
:102D3800FFFF010101FF8080FFFF010101FF80808B
:102D4800FFFF010101FF8080FFFF010101FF80807B
:102D5800FFFF010101FF8080FFFF010101FF80806B
:102D6800FF7E818181FF8181817E818181FF8181D7
:102D7800817E818181FF8181817E818181FF818145
:102D8800817E818181FF8181817E818181FF818135
:102D9800817E818181FF8181817E818181FF818125
:102DA800811E2222221E0202021E2222221E02024C
:102DB800021E2222221E0202021E2222221E0202BB
:102DC800021E2222221E0202021E2222221E0202AB
:102DD800021E2222221E0202021E2222221E02029B
:102DE80002A100E100210101190AF1096D0AAA0FE7
:102DF800700F360FFC0EC20E880E5A0EFE0DA20D75
:0C2E0800460D3A2000200071020000007E
:00000001FF
