:1000000012C02CC02BC02AC029C028C027C026C0BF
:1000100025C024C023C022C021C020C01FC01EC0D4
:100020001DC0CEC01BC011241FBECFE5D4E0DEBF73
:10003000CDBF10E0A0E6B0E0E0EDF2E002C0059038
:100040000D92AE36B107D9F710E0AEE6B0E001C0D0
:100050001D92A037B107E1F702D038C1D1CFCF93BD
:1000600014BE88E10FB6F89481BD11BC0FBE86E0C6
:1000700087BB8CE084BB11BA82E4F6D02ED03DD091
:1000800078942DE088E190E00FB6F894A89581BDB2
:100090000FBE21BD80E690E0F0D0C4E0FCD0882304
:1000A00029F088B38C2788BB61D0E7D0A895F6CF1C
:1000B00097B1907F97B997B18F70892B87B9369A8E
:1000C000089581E0369980E00895FBDF8823E9F305
:1000D000369824B135B1C901089517B83E9A86B152
:1000E000856086B9379A80E0E3DFEFDF0895EDDFC2
:1000F00096958795969587950895AB9AAA980895B1
:10010000E82FF92F87E09081993208F4108281500E
:1001100031968823C1F7089581E0CADFE8DF0895AA
:100120001F93CF93DF93D82FC92FF6DF90E08C5920
:100130009F4F6AE070E0B6D09B01CE01E92FF82F07
:1001400010E0CAE0D0E0408150E0249FC001259F2C
:10015000900D349F900D1124BE01A4D061931F5FB8
:10016000173089F7DF91CF911F910895CF93DF93D7
:10017000AB988FE191E00197F1F700C00000C0E675
:10018000D0E0AA9A95E69A95F1F70000AA9880EC3B
:100190008A95F1F780E08CDFAADF899390E0C7367B
:1001A000D90779F7AB9A00000000CE010797A8DFC6
:1001B000CE010797B5DFCE010797DF91CF91089564
:1001C0001F920F920FB60F9211248F939F93EF936C
:1001D000FF9381B190E0887F883B9105C1F0893B16
:1001E00091053CF4883A910559F0803B910581F5E1
:1001F00007C0803C910531F1883C910549F522C04A
:1002000081E080936F008091670083B915C0809171
:100210006F00863040F010926F0080916D0083B9BE
:1002200086B78F7B11C0E82FF0E0E959FF4F90812E
:1002300093B98F5F80936F0086B7806486BF1092FA
:100240006E0006C086B7806486BF81E080936E0032
:1002500086B7806886BFFF91EF919F918F910F9035
:100260000FBE0F901F901895882311F481E001C0F4
:100270008E7F82B985E486BF0895282F392FD90152
:10028000E7E6F0E08D91819380E0EE36F807D1F754
:1002900010926E00089581E090916E00992309F408
:1002A00080E00895AA1BBB1B51E107C0AA1FBB1F1A
:1002B000A617B70710F0A61BB70B881F991F5A95F2
:1002C000A9F780959095BC01CD010895F894FFCFD2
:0E02D0008080808080808042424242424242D2
:00000001FF
