:1000000012C02CC02BC02AC029C028C027C026C0BF
:1000100025C024C023C022C021C020C01FC01EC0D4
:100020001DC0F3C01BC011241FBECFE5D4E0DEBF4E
:10003000CDBF10E0A0E6B0E0E0E4F3E002C0059040
:100040000D92AE36B107D9F710E0AEE6B0E001C0D0
:100050001D92A037B107E1F702D070C1D1CFCF9385
:1000600014BE88E10FB6F89481BD11BC0FBE86E0C6
:1000700087BB8CE084BB11BA82E41BD12ED03DD06B
:1000800078942DE088E190E00FB6F894A89581BDB2
:100090000FBE21BD80E690E015D1C4E021D18823B8
:1000A00029F088B38C2788BB80D00CD1A895F6CFD7
:1000B00097B1907F97B997B18F70892B87B9369A8E
:1000C000089581E0369980E00895FBDF8823E9F305
:1000D000369824B135B1C901089517B83E9A86B152
:1000E000856086B9379A80E0E3DFEFDF0895EDDFC2
:1000F00096958795969587950895AB9AAA980895B1
:10010000FC0195818AE0989FC00111246FE070E0A6
:1001100002D166830895CF93E82FF92F40E0CAE01B
:100120002FE030E080818E3130F48C9FC0011124AB
:10013000B901F1D060834F5F3196473099F7CF9185
:10014000089581E0B5DFD3DF08950F931F93CF9318
:10015000DF93D82FC92FF5DF90E08C599F4F6AE0CD
:1001600070E0C5D09B01CE01E92FF82F10E0CAE066
:10017000D0E00FEF408150E0249FC001259F900DFB
:10018000349F900D1124BE01B2D06F3F710519F05C
:1001900010F0008301C060831F5F3196173051F764
:1001A000DF91CF911F910F910895CF93DF93AB987B
:1001B0008FE191E00197F1F700C00000C0E6D0E0C8
:1001C000AA9A95E69A95F1F70000AA9880EC8A958C
:1001D000F1F780E06DDF8BDF899390E0C736D907B8
:1001E00079F7AB9A00000000CE01079794DFCE01AB
:1001F000079786DFCE010797A8DFCE0107978BDF31
:10020000CE010797DF91CF9108951F920F920FB6FD
:100210000F9211248F939F93EF93FF9381B190E0FE
:10022000887F883B9105C1F0893B91053CF4883A71
:10023000910559F0803B910581F507C0803C9105FF
:1002400031F1883C910549F522C081E080936F002F
:100250008091670083B915C080916F00863040F0AF
:1002600010926F0080916D0083B986B78F7B11C0AB
:10027000E82FF0E0E959FF4F908193B98F5F8093A9
:100280006F0086B7806486BF10926E0006C086B786
:10029000806486BF81E080936E0086B7806886BFE9
:1002A000FF91EF919F918F910F900FBE0F901F9034
:1002B0001895882311F481E001C08E7F82B985E40E
:1002C00086BF0895282F392FD901E7E6F0E08D91F8
:1002D000819380E0EE36F807D1F710926E00089512
:1002E00081E090916E00992309F480E00895AA1BA3
:1002F000BB1B51E107C0AA1FBB1FA617B70710F011
:10030000A61BB70B881F991F5A95A9F78095909542
:10031000BC01CD01089597FB092E07260AD077FD71
:1003200004D0E5DF06D000201AF4709561957F4F68
:100330000895F6F7909581959F4F0895F894FFCF13
:0E034000808080808080804242424242424261
:00000001FF
